{
	"data": {
		"bytecode": {
			"linkReferences": {},
			"object": "60806040526000805460ff191681556007819055600881905560fa600a819055600b5562015180600e55600f8190556203f48060105560115534801561004457600080fd5b5060405160a0806146ad833981016040908152815160208301519183015160608401516080909401516000805460028054600160a060020a0319908116600160a060020a0397881617909155600380548216978716979097179096556001805487169486169490941790935560098054861696851696909617909555600c805490941692169190911790915561010060a860020a031990811633610100029081179091161781556145b29081906100fb90396000f3006080604052600436106101f55763ffffffff60e060020a60003504166304588e0581146101fa57806306fdde031461022157806307ce0553146102ab5780630eefdbad1461036d5780631305f35c1461039e57806314350c24146103b35780631a6b13e2146103cb578063239e83df146103e357806328a8ee68146104b85780632e819a03146104cd57806331e63199146104e2578063401e3813146104f75780634ec48d09146105c4578063514f03301461066557806351917b0a1461068657806354fd4d501461069b5780635bdb1128146106b05780635c629816146106c85780636296eb7e1461079557806363d36c0b1461086257806364df049e1461088f57806369fe0e2d146108a4578063715018a6146108bc5780637b103999146108d15780637ccefc52146108e65780637e84cbd4146108fb5780638076f0051461091057806383b756761461092857806385bdf989146109bb5780638da5cb5b146109dc578063923b04cb146109f1578063a25eb5d914610a7e578063a9e24d0114610a93578063bfa1dc3014610b60578063c3b2d4d914610b75578063cae6047f14610b8a578063d51323c714610b9f578063e058ce9714610c32578063e363db2f14610c4a578063e57d4adb14610c5f578063e74b981b14610c77578063f2fde38b14610c98578063f984ec5914610cb9575b600080fd5b34801561020657600080fd5b5061020f610d86565b60408051918252519081900360200190f35b34801561022d57600080fd5b50610236610d8c565b6040805160208082528351818301528351919283929083019185019080838360005b83811015610270578181015183820152602001610258565b50505050905090810190601f16801561029d5780820380516001836020036101000a031916815260200191505b509250505060405180910390f35b6040805161018081810190925261036b91369160049161018491908390600c908390839080828437505060408051610240818101909252949796958181019594509250601291508390839080828437505060408051610140818101909252949796958181019594509250600a9150839083908082843750506040805186358801803560208181028481018201909552818452979a99988801979296509082019450925082919085019084908082843750949750610dc39650505050505050565b005b34801561037957600080fd5b50610382611136565b60408051600160a060020a039092168252519081900360200190f35b3480156103aa57600080fd5b5061020f611145565b3480156103bf57600080fd5b5061036b60043561114b565b3480156103d757600080fd5b5061036b60043561116c565b3480156103ef57600080fd5b506040805160206004803580820135601f810184900484028501840190955284845261023694369492936024939284019190819084018382808284375050604080516020601f89358b018035918201839004830284018301909452808352979a99988101979196509182019450925082915084018382808284375050604080516020601f89358b018035918201839004830284018301909452808352979a99988101979196509182019450925082915084018382808284375094975061118d9650505050505050565b3480156104c457600080fd5b5061020f6111a2565b3480156104d957600080fd5b5061020f6111a8565b3480156104ee57600080fd5b506102366111ae565b34801561050357600080fd5b506040805160c081810190925261020f91369160049160c491908390600690839083908082843750506040805161012081810190925294979695818101959450925060099150839083908082843750506040805160a087013588018035602081810284810182018652828552989b60ff8b3581169c838d013582169c9788013582169b606089013583169b5060808901359092169950919750909560c001949382019291829190850190849080828437509497506111e59650505050505050565b3480156105d057600080fd5b506040805160c081810190925261065191369160049160c4919083906006908390839080828437505060408051610120818101909252949796958181019594509250600991508390839080828437509396505060ff843581169550602085013581169460408101358216945060608101358216935060800135169050611315565b604080519115158252519081900360200190f35b34801561067157600080fd5b5061036b600160a060020a0360043516611440565b34801561069257600080fd5b5061038261148b565b3480156106a757600080fd5b5061023661149a565b3480156106bc57600080fd5b5061020f6004356114d1565b3480156106d457600080fd5b506040805160c081810190925261036b91369160049160c491908390600690839083908082843750506040805161012081810190925294979695818101959450925060099150839083908082843750506040805160a087013588018035602081810284810182018652828552989b60ff8b3581169c838d013582169c9788013582169b606089013583169b5060808901359092169950919750909560c001949382019291829190850190849080828437509497506114e39650505050505050565b3480156107a157600080fd5b506040805160c081810190925261036b91369160049160c491908390600690839083908082843750506040805161012081810190925294979695818101959450925060099150839083908082843750506040805160a087013588018035602081810284810182018652828552989b60ff8b3581169c838d013582169c9788013582169b606089013583169b5060808901359092169950919750909560c001949382019291829190850190849080828437509497506116189650505050505050565b34801561086e57600080fd5b5061020f60ff6004358116906024351660443560643560843560a435611742565b34801561089b57600080fd5b5061038261175d565b3480156108b057600080fd5b5061036b60043561176c565b3480156108c857600080fd5b5061036b61192d565b3480156108dd57600080fd5b506103826119a3565b3480156108f257600080fd5b5061020f6119b2565b34801561090757600080fd5b5061020f6119b8565b34801561091c57600080fd5b506106516004356119be565b34801561093457600080fd5b506040805161018081810190925261065191369160049161018491908390600c908390839080828437505060408051610240818101909252949796958181019594509250601291508390839080828437505060408051610140818101909252949796958181019594509250600a91508390839080828437509396506119d395505050505050565b3480156109c757600080fd5b5061036b600160a060020a0360043516611d5f565b3480156109e857600080fd5b50610382611df6565b3480156109fd57600080fd5b506040805160c081810190925261020f91369160049160c4919083906006908390839080828437505060408051610120818101909252949796958181019594509250600991508390839080828437509396505060ff843581169550602085013581169460408101358216945060608101358216935060800135169050611e0a565b348015610a8a57600080fd5b50610382611f38565b348015610a9f57600080fd5b506040805160c081810190925261020f91369160049160c491908390600690839083908082843750506040805161012081810190925294979695818101959450925060099150839083908082843750506040805160a087013588018035602081810284810182018652828552989b60ff8b3581169c838d013582169c9788013582169b606089013583169b5060808901359092169950919750909560c00194938201929182919085019084908082843750949750611f479650505050505050565b348015610b6c57600080fd5b5061038261206a565b348015610b8157600080fd5b5061020f612079565b348015610b9657600080fd5b5061020f61207f565b348015610bab57600080fd5b506040805161018081810190925261020f91369160049161018491908390600c908390839080828437505060408051610240818101909252949796958181019594509250601291508390839080828437505060408051610140818101909252949796958181019594509250600a915083908390808284375093965061208595505050505050565b348015610c3e57600080fd5b5061036b600435612407565b348015610c5657600080fd5b5061020f612471565b348015610c6b57600080fd5b50610651600435612477565b348015610c8357600080fd5b5061036b600160a060020a036004351661248c565b348015610ca457600080fd5b5061036b600160a060020a0360043516612683565b348015610cc557600080fd5b506040805160c081810190925261065191369160049160c491908390600690839083908082843750506040805161012081810190925294979695818101959450925060099150839083908082843750506040805160a087013588018035602081810284810182018652828552989b60ff8b3581169c838d013582169c9788013582169b606089013583169b5060808901359092169950919750909560c001949382019291829190850190849080828437509497506127279650505050505050565b600f5481565b60408051808201909152601781527f50726f6a65637420506c614e46542045786368616e6765000000000000000000602082015281565b60408051610280810182528551600160a060020a0390811682526020808801518216818401528784015182168385015286516060808501919091529087015160808401529286015160a08301528583015160c08301529186015190911660e08201528251611130919061010082019060ff166001811115610e4057fe5b6001811115610e4b57fe5b8152602001846001602002015160ff166001811115610e6657fe5b6001811115610e7157fe5b8152602001846002602002015160ff166001811115610e8c57fe5b6001811115610e9757fe5b8152602001846003602002015160ff166001811115610eb257fe5b6001811115610ebd57fe5b8152608080880151600160a060020a0316602083015285015160409091019060ff166001811115610eea57fe5b6001811115610ef557fe5b815260200186600560209081029190910151600160a060020a031682520185600460209081029190910151825201856005602090810291909101518252018560066020908102919091015182520185600760209081029190910151825201856008602002015190526040805161028081019091528087600660209081029190910151600160a060020a031682520187600760209081029190910151600160a060020a031682520187600860209081029190910151600160a060020a03168252018660096020908102919091015182520186600a6020908102919091015182520186600b6020908102919091015182520186600c6020908102919091015182520187600960209081029190910151600160a060020a0316825201856005602002015160ff16600181111561102457fe5b600181111561102f57fe5b8152602001856006602002015160ff16600181111561104a57fe5b600181111561105557fe5b8152602001856007602002015160ff16600181111561107057fe5b600181111561107b57fe5b8152602001856008602002015160ff16600181111561109657fe5b60018111156110a157fe5b8152610140880151600160a060020a0316602082015261012086015160409091019060ff1660018111156110d157fe5b60018111156110dc57fe5b8152610160880151600160a060020a031660208201526101a087015160408201526101c087015160608201526101e0870151608082015261020087015160a082015261022087015160c0909101528361286a565b50505050565b600354600160a060020a031681565b600e5481565b6000546101009004600160a060020a0316331461116757600080fd5b600755565b6000546101009004600160a060020a0316331461118857600080fd5b600855565b606061119a848484612f65565b509192915050565b60085481565b60115481565b60408051808201909152600c81527f4c616d62746f6e20576f726d0000000000000000000000000000000000000000602082015281565b60408051610280810182528951600160a060020a0390811682526020808c01518216818401528b8401518216838501528a51606080850191909152908b01516080840152928a015160a08301528983015160c0830152918a015190911660e082015260009061130890610100810189600181111561125f57fe5b815260200188600181111561127057fe5b815260200187600181111561128157fe5b815260200186600181111561129257fe5b815260808c0151600160a060020a031660208201526040018560018111156112b657fe5b815260a0808d0151600160a060020a0316602083015260808c81015160408401528c820151606084015260c0808e01519184019190915260e08d0151918301919091526101008c0151910152836130ec565b9998505050505050505050565b600061131f6144e0565b60408051610280810182528a51600160a060020a0390811682526020808d01518216818401528c8401518216838501528b51606080850191909152908c01516080840152928b015160a08301528a83015160c0830152918b015190911660e0820152610100810188600181111561139257fe5b81526020018760018111156113a357fe5b81526020018660018111156113b457fe5b81526020018560018111156113c557fe5b815260808b0151600160a060020a031660208201526040018460018111156113e957fe5b815260a0808c0151600160a060020a0316602083015260808b81015160408401528b820151606084015260c0808d01519184019190915260e08c0151918301919091526101008b01519101529050611308816132ed565b6000546101009004600160a060020a0316331461145c57600080fd5b6009805473ffffffffffffffffffffffffffffffffffffffff1916600160a060020a0392909216919091179055565b600d54600160a060020a031681565b60408051808201909152600381527f312e300000000000000000000000000000000000000000000000000000000000602082015281565b60066020526000908152604090205481565b6114eb6144e0565b60408051610280810182528a51600160a060020a0390811682526020808d01518216818401528c8401518216838501528b51606080850191909152908c01516080840152928b015160a08301528a83015160c0830152918b015190911660e0820152610100810188600181111561155e57fe5b815260200187600181111561156f57fe5b815260200186600181111561158057fe5b815260200185600181111561159157fe5b815260808b0151600160a060020a031660208201526040018460018111156115b557fe5b815260a0808c0151600160a060020a0316602083015260808b81015160408401528b820151606084015260c0808d01519184019190915260e08c0151918301919091526101008b0151910152905061160d8183613375565b505050505050505050565b60408051610280810182528951600160a060020a0390811682526020808c01518216818401528b8401518216838501528a51606080850191909152908b01516080840152928a015160a08301528983015160c0830152918a015190911660e082015261173890610100810188600181111561168f57fe5b81526020018760018111156116a057fe5b81526020018660018111156116b157fe5b81526020018560018111156116c257fe5b815260808b0151600160a060020a031660208201526040018460018111156116e657fe5b815260a0808c0151600160a060020a0316602083015260808b81015160408401528b820151606084015260c0808d01519184019190915260e08c0151918301919091526101008b015191015282613625565b5050505050505050565b6000611752878787878787613692565b979650505050505050565b600954600160a060020a031681565b6000546101009004600160a060020a0316331461178857600080fd5b600f5415156117e1576040805160e560020a62461bcd02815260206004820152601d60248201527f506c614e46543a205f72656c6179536574466565206e6f742063616c6c000000604482015290519081900360640190fd5b600b548114611860576040805160e560020a62461bcd02815260206004820152603060248201527f506c614e46543a205f72656c617945786368616e6765466565206e6f7420657160448201527f75616c2065786368616e67654665655f00000000000000000000000000000000606482015290519081900360840190fd5b600e54600f5442910111156118e5576040805160e560020a62461bcd02815260206004820152602560248201527f506c615f544e46543a205f64656c617953657446656554696d65206e6f74206160448201527f7272697665000000000000000000000000000000000000000000000000000000606482015290519081900360840190fd5b6000600f55600a819055604080513381526020810183905281517f01fe2943baee27f47add82886c2200f910c749c461c9b63c5fe83901a53bdb49929181900390910190a150565b6000546101009004600160a060020a0316331461194957600080fd5b60008054604051610100909104600160a060020a0316917ff8df31144d9c2f0f6b59d69b8b98abd5459d07f2742c4df920b25aae33c6482091a26000805474ffffffffffffffffffffffffffffffffffffffff0019169055565b600254600160a060020a031681565b60075481565b60105481565b60046020526000908152604090205460ff1681565b60006119dd6144e0565b6119e56144e0565b60408051610280810182528751600160a060020a0390811682526020808a01518216818401528984015182168385015288516060808501919091529089015160808401529288015160a08301528783015160c08301529188015190911660e0820152845161010082019060ff166001811115611a5d57fe5b6001811115611a6857fe5b8152602001856001602002015160ff166001811115611a8357fe5b6001811115611a8e57fe5b8152602001856002602002015160ff166001811115611aa957fe5b6001811115611ab457fe5b8152602001856003602002015160ff166001811115611acf57fe5b6001811115611ada57fe5b8152608080890151600160a060020a0316602083015286015160409091019060ff166001811115611b0757fe5b6001811115611b1257fe5b815260200187600560209081029190910151600160a060020a031682520186600460209081029190910151825201866005602090810291909101518252018660066020908102919091015182520186600760209081029190910151825201866008602002015190526040805161028081019091529092508087600660209081029190910151600160a060020a031682520187600760209081029190910151600160a060020a031682520187600860209081029190910151600160a060020a03168252018660096020908102919091015182520186600a6020908102919091015182520186600b6020908102919091015182520186600c6020908102919091015182520187600960209081029190910151600160a060020a0316825201856005602002015160ff166001811115611c4457fe5b6001811115611c4f57fe5b8152602001856006602002015160ff166001811115611c6a57fe5b6001811115611c7557fe5b8152602001856007602002015160ff166001811115611c9057fe5b6001811115611c9b57fe5b8152602001856008602002015160ff166001811115611cb657fe5b6001811115611cc157fe5b8152610140880151600160a060020a0316602082015261012086015160409091019060ff166001811115611cf157fe5b6001811115611cfc57fe5b8152602088810151600160a060020a0316908201526101a087015160408201526101c087015160608201526101e0870151608082015261020087015160a082015261022087015160c0909101529050611d558282613725565b9695505050505050565b6000546101009004600160a060020a03163314611d7b57600080fd5b426011819055600d805473ffffffffffffffffffffffffffffffffffffffff1916600160a060020a038481169190911791829055604080513381529290911660208301528181019290925290517f41b9bf56a41f7160677b991bb03fcd599356e239d488c4ecf1dd083fe2df28bd916060908290030190a150565b6000546101009004600160a060020a031681565b60408051610280810182528851600160a060020a0390811682526020808b01518216818401528a8401518216838501528951606080850191909152908a015160808401529289015160a08301528883015160c08301529189015190911660e0820152600090611f2c906101008101886001811115611e8457fe5b8152602001876001811115611e9557fe5b8152602001866001811115611ea657fe5b8152602001856001811115611eb757fe5b815260808b0151600160a060020a03166020820152604001846001811115611edb57fe5b815260a0808c0151600160a060020a0316602083015260808b81015160408401528b820151606084015260c0808d01519184019190915260e08c0151918301919091526101008b0151910152613933565b98975050505050505050565b600154600160a060020a031681565b60408051610280810182528951600160a060020a0390811682526020808c01518216818401528b8401518216838501528a51606080850191909152908b01516080840152928a015160a08301528983015160c0830152918a015190911660e0820152600090611308906101008101896001811115611fc157fe5b8152602001886001811115611fd257fe5b8152602001876001811115611fe357fe5b8152602001866001811115611ff457fe5b815260808c0151600160a060020a0316602082015260400185600181111561201857fe5b815260a0808d0151600160a060020a0316602083015260808c81015160408401528c820151606084015260c0808e01519184019190915260e08d0151918301919091526101008c015191015283613961565b600c54600160a060020a031681565b600a5481565b61271081565b600061208f6144e0565b6120976144e0565b60408051610280810182528751600160a060020a0390811682526020808a01518216818401528984015182168385015288516060808501919091529089015160808401529288015160a08301528783015160c08301529188015190911660e0820152845161010082019060ff16600181111561210f57fe5b600181111561211a57fe5b8152602001856001602002015160ff16600181111561213557fe5b600181111561214057fe5b8152602001856002602002015160ff16600181111561215b57fe5b600181111561216657fe5b8152602001856003602002015160ff16600181111561218157fe5b600181111561218c57fe5b8152608080890151600160a060020a0316602083015286015160409091019060ff1660018111156121b957fe5b60018111156121c457fe5b815260200187600560209081029190910151600160a060020a031682520186600460209081029190910151825201866005602090810291909101518252018660066020908102919091015182520186600760209081029190910151825201866008602002015190526040805161028081019091529092508087600660209081029190910151600160a060020a031682520187600760209081029190910151600160a060020a031682520187600860209081029190910151600160a060020a03168252018660096020908102919091015182520186600a6020908102919091015182520186600b6020908102919091015182520186600c6020908102919091015182520187600960209081029190910151600160a060020a0316825201856005602002015160ff1660018111156122f657fe5b600181111561230157fe5b8152602001856006602002015160ff16600181111561231c57fe5b600181111561232757fe5b8152602001856007602002015160ff16600181111561234257fe5b600181111561234d57fe5b8152602001856008602002015160ff16600181111561236857fe5b600181111561237357fe5b8152610140880151600160a060020a0316602082015261012086015160409091019060ff1660018111156123a357fe5b60018111156123ae57fe5b8152602088810151600160a060020a0316908201526101a087015160408201526101c087015160608201526101e0870151608082015261020087015160a082015261022087015160c0909101529050611d5582826139ae565b6000546101009004600160a060020a0316331461242357600080fd5b42600f819055600b829055604080513381526020810184905280820192909252517fad6b6a1532b4c7d7a4a30501132d072ea2994194ef0faf631e0ae718ecf1f7329181900360600190a150565b600b5481565b60056020526000908152604090205460ff1681565b6000546101009004600160a060020a031633146124a857600080fd5b6011541515612501576040805160e560020a62461bcd02815260206004820152601d60248201527f506c614e46543a205f72656c6179536574466565206e6f742063616c6c000000604482015290519081900360640190fd5b600d54600160a060020a0382811691161461258c576040805160e560020a62461bcd02815260206004820152603e60248201527f506c614e46543a205f72656c6179526577617264466565526563697069656e7460448201527f206e6f7420657175616c20726577617264466565526563697069656e745f0000606482015290519081900360840190fd5b6010546011544291011115612611576040805160e560020a62461bcd02815260206004820152602560248201527f506c615f544e46543a205f64656c617953657446656554696d65206e6f74206160448201527f7272697665000000000000000000000000000000000000000000000000000000606482015290519081900360840190fd5b6000601155600c805473ffffffffffffffffffffffffffffffffffffffff1916600160a060020a0383811691909117918290556040805133815292909116602083015280517fd9d6b85b6d670cd443496fc6d03390f739bbff47f96a8e33fb0cdd52ad26f5c29281900390910190a150565b6000546101009004600160a060020a0316331461269f57600080fd5b600160a060020a03811615156126b457600080fd5b60008054604051600160a060020a038085169361010090930416917f8be0079c531659141344cd1fd0a4f28419497f9722a3daafe3b4186f6b6457e091a360008054600160a060020a039092166101000274ffffffffffffffffffffffffffffffffffffffff0019909216919091179055565b60006127316144e0565b60408051610280810182528b51600160a060020a0390811682526020808e01518216818401528d8401518216838501528c51606080850191909152908d01516080840152928c015160a08301528b83015160c0830152918c015190911660e082015261010081018960018111156127a457fe5b81526020018860018111156127b557fe5b81526020018760018111156127c657fe5b81526020018660018111156127d757fe5b815260808c0151600160a060020a031660208201526040018560018111156127fb57fe5b815260a0808d0151600160a060020a0316602083015260808c81015160408401528c820151606084015260c0808e01519184019190915260e08d0151918301919091526101008c0151910152905061285c6128568285613961565b82613a41565b9a9950505050505050505050565b6000806000806000806000806000809054906101000a900460ff161561288f57600080fd5b6000805460ff1916600117905560208b0151600160a060020a03163314612925576040805160e560020a62461bcd028152602060048201526024808201527f506c6145786368616e67653a2063616c6c6572206973206e6f7420627579206d60448201527f616b657200000000000000000000000000000000000000000000000000000000606482015290519081900360840190fd5b61292e8b6132ed565b151561293957600080fd5b6129438a8a613aa1565b965061294f8b8b613725565b151561295a57600080fd5b6101808a0151803b965094506000861161297357600080fd5b6002546020808c0151604080517fc4552791000000000000000000000000000000000000000000000000000000008152600160a060020a0392831660048201529051919093169263c45527919260248083019391928290030181600087803b1580156129de57600080fd5b505af11580156129f2573d6000803e3d6000fd5b505050506040513d6020811015612a0857600080fd5b50519350600160a060020a0384161515612a2157600080fd5b600260009054906101000a9004600160a060020a0316600160a060020a03166397204d8e6040518163ffffffff1660e060020a028152600401602060405180830381600087803b158015612a7457600080fd5b505af1158015612a88573d6000803e3d6000fd5b505050506040513d6020811015612a9e57600080fd5b5051604080517f5c60da1b0000000000000000000000000000000000000000000000000000000081529051600160a060020a0392831692871691635c60da1b9160048083019260209291908290030181600087803b158015612aff57600080fd5b505af1158015612b13573d6000803e3d6000fd5b505050506040513d6020811015612b2957600080fd5b5051600160a060020a031614612b3e57600080fd5b839250612b4b8b8b613acc565b915060008a61010001516001811115612b6057fe5b1415612bf957885160008881526006602052604090205410612bcc576040805160e560020a62461bcd02815260206004820181905260248201527f506c6145786368616e67653a20696c6c6567616c206d6174636820696e646578604482015290519081900360640190fd5b60008781526006602052604090205489518a91908110612be857fe5b906020019060200201519050612cc3565b886000815181101515612c0857fe5b90602001906020020151896001815181101515612c2157fe5b602090810290910181015160008a815260069092526040909120549190031015612c95576040805160e560020a62461bcd02815260206004820181905260248201527f506c6145786368616e67653a20696c6c6567616c206d6174636820696e646578604482015290519081900360640190fd5b886000815181101515612ca457fe5b6020908102909101810151600089815260069092526040909120540190505b600660008860001916600019168152602001908152602001600020546001016006600089600019166000191681526020019081526020016000208190555082600160a060020a0316631b0f7ba98b61018001518c6101a001518d602001518f60200151866040516024018084600160a060020a0316600160a060020a0316815260200183600160a060020a0316600160a060020a0316815260200182815260200193505050506040516020818303038152906040527f23b872dd000000000000000000000000000000000000000000000000000000007bffffffffffffffffffffffffffffffffffffffffffffffffffffffff19166020820180517bffffffffffffffffffffffffffffffffffffffffffffffffffffffff83818316178352505050506040518463ffffffff1660e060020a0281526004018084600160a060020a0316600160a060020a03168152602001836001811115612e2057fe5b60ff16815260200180602001828103825283818151815260200191508051906020019080838360005b83811015612e61578181015183820152602001612e49565b50505050905090810190601f168015612e8e5780820380516001836020036101000a031916815260200191505b50945050505050602060405180830381600087803b158015612eaf57600080fd5b505af1158015612ec3573d6000803e3d6000fd5b505050506040513d6020811015612ed957600080fd5b50511515612ee657600080fd5b6020808c01518b8201516101808d0151604080518c8152600160a060020a03928316958101959095528481018690526060850187905251928116939116917f83517c79fd30b597c1e067b1580b3888ee68d8bcceac8273414d1c741ce3e2a29181900360800190a350506000805460ff19169055505050505050505050565b600080600084518651141515612f7a57600080fd5b8351865114612f8857600080fd5b8551602090049250602080840292508390830414612fa257fe5b5060005b82811015612fd25760010160208102848101518682015191880180519282169119909216179052612fa6565b600083111561300257829050806001016020028085015181870151811682890151821916178289015250506130e4565b50805b85518110156130e457848181518110151561301c57fe5b90602001015160f860020a900460f860020a02848281518110151561303d57fe5b90602001015160f860020a900460f860020a0216868281518110151561305f57fe5b90602001015160f860020a900460f860020a02858381518110151561308057fe5b90602001015160f860020a900460f860020a0260ff60f860020a0218161786828151811015156130ac57fe5b9060200101907effffffffffffffffffffffffffffffffffffffffffffffffffffffffffffff1916908160001a905350600101613005565b505050505050565b60008060606000806130ff878751614329565b9350836040519080825280601f01601f19166020018201604052801561312f578160200160208202803883390190505b509250602083019150613146828860000151614337565b9150613156828860200151614337565b9150613166828860400151614337565b9150613176828860600151614357565b9150613186828860800151614357565b9150613196828860a00151614357565b91506131a6828860c00151614357565b91506131b6828860e00151614337565b91506131d28288610100015160018111156131cd57fe5b61435f565b91506131e98288610120015160018111156131cd57fe5b91506132008288610140015160018111156131cd57fe5b91506132178288610160015160018111156131cd57fe5b915061322882886101800151614337565b915061323f82886101a0015160018111156131cd57fe5b915061325082886101c00151614337565b915061326182886101e00151614357565b915061327282886102000151614357565b915061328382886102200151614357565b915061329482886102400151614357565b91506132a582886102600151614357565b9150600090505b85518110156132e0576132d68287838151811015156132c757fe5b90602001906020020151614357565b91506001016132ac565b5050602001209392505050565b8051600090600160a060020a0316301461330957506000613370565b61331d82610160015183610240015161436c565b151561332b57506000613370565b6001826101200151600181111561333e57fe5b14801561335f57506007548260a00151108061335f57506008548260c00151105b1561336c57506000613370565b5060015b919050565b6020820151600090600160a060020a0316331461339157600080fd5b600083610100015160018111156133a457fe5b141561342e578151600010613429576040805160e560020a62461bcd02815260206004820152602760248201527f506c6145786368616e67653a2073697a65206d7573742062696767657220746860448201527f616e207a65726f00000000000000000000000000000000000000000000000000606482015290519081900360840190fd5b61355a565b81516002146134ad576040805160e560020a62461bcd02815260206004820152602160248201527f506c6145786368616e67653a20746f6b656e732073636f706520696c6c65676160448201527f6c00000000000000000000000000000000000000000000000000000000000000606482015290519081900360840190fd5b8160008151811015156134bc57fe5b906020019060200201518260018151811015156134d557fe5b602090810290910101511161355a576040805160e560020a62461bcd02815260206004820152602260248201527f506c6145786368616e67653a20746f6b656e732073636f7065206d757374206160448201527f7363000000000000000000000000000000000000000000000000000000000000606482015290519081900360840190fd5b6135648383613961565b60008181526005602052604090205490915060ff161561358357600080fd5b6000818152600560209081526040808320805460ff19166001179055600682528083209290925560e0850151858201516060808801516080808a015160a08b015160c08c015189519485529784019190915282880152918101949094529351600160a060020a0392831694919092169285927f8aef416b0e896f7ae3e695584ecfe77745bcb941a902684234d114759927adb9929181900390910190a4505050565b60006136318383613aa1565b6020840151909150600160a060020a0316331461364d57600080fd5b600081815260046020526040808220805460ff191660011790555182917f5152abf959f6564662358c2e52b702259b78bac5ee7842a0f01937e670efcc7d91a2505050565b600080808760018111156136a257fe5b14156136b05785915061371a565b60018760018111156136be57fe5b141561371a576136e96136da866136d5428861438b565b61439d565b6136e4858761438b565b6143c6565b905060018860018111156136f957fe5b141561371057613709868261438b565b915061371a565b61370986826143db565b509695505050505050565b600080836101400151600181111561373957fe5b14801561375657506001826101400151600181111561375457fe5b145b80156137815750816101000151600181111561376e57fe5b836101000151600181111561377f57fe5b145b80156137ac5750816101200151600181111561379957fe5b83610120015160018111156137aa57fe5b145b80156137d35750816101c00151600160a060020a0316836101c00151600160a060020a0316145b801561380d57506040820151600160a060020a0316158061380d57508260200151600160a060020a03168260400151600160a060020a0316145b801561384757506040830151600160a060020a0316158061384757508160200151600160a060020a03168360400151600160a060020a0316145b80156138a2575060e0820151600160a060020a0316158015613875575060e0830151600160a060020a031615155b806138a2575060e0820151600160a060020a0316158015906138a2575060e0830151600160a060020a0316155b80156138c95750816101800151600160a060020a0316836101800151600160a060020a0316145b80156138f45750816101a0015160018111156138e157fe5b836101a0015160018111156138f257fe5b145b801561390f575061390f8361022001518461024001516143e8565b801561392a575061392a8261022001518361024001516143e8565b90505b92915050565b600061392d826101400151836101600151846101e00151856102000151866102200151876102400151613692565b600061396d83836130ec565b604080517f19457468657265756d205369676e6564204d6573736167653a0a3332000000008152601c8101929092525190819003603c019020905092915050565b60008060006139df846101400151856101600151866101e00151876102000151886102200151896102400151613692565b9150613a0d856101400151866101600151876101e001518861020001518961022001518a6102400151613692565b905081811015613a1c57600080fd5b60e0840151600160a060020a03161515613a365780613a38565b815b95945050505050565b6000613a4c826132ed565b1515613a5a5750600061392d565b60008381526004602052604090205460ff1615613a795750600061392d565b60008381526005602052604090205460ff1615613a985750600161392d565b50600092915050565b600080613aae8484613961565b9050613aba8185613a41565b1515613ac557600080fd5b9392505050565b6000806000806000806000806000806000600160a060020a03168b6101c00151600160a060020a0316141515613b07573415613b0757600080fd5b613b118c8c6139ae565b9850600089118015613b3057506101c08b0151600160a060020a031615155b15613b4e57613b4e8b6101c001518d602001518d602001518c614404565b889750889650613b6b613b63600a548b61439d565b6127106143c6565b60e08c0151909650600160a060020a031615614024576080808d0151908c01511115613b9657600080fd5b60018b61012001516001811115613ba957fe5b1415613fb35760c0808d0151908c01511115613bc457600080fd5b60608b0151158015613bd8575060808b0151155b15613c60576101c08b0151600160a060020a03161515613c3d57613bfc888761438b565b600c54604051919950600160a060020a03169087156108fc029088906000818181858888f19350505050158015613c37573d6000803e3d6000fd5b50613c60565b6101c08b015160208c0151600c54613c60929190600160a060020a031689614404565b60008b606001511115613d6357613c7e613b638c606001518b61439d565b6101c08c0151909550600160a060020a03161515613d2757613ca9613ca3898761438b565b8761438b565b60e08c0151604051919950600160a060020a03169086156108fc029087906000818181858888f19350505050158015613ce6573d6000803e3d6000fd5b50600c54604051600160a060020a039091169087156108fc029088906000818181858888f19350505050158015613d21573d6000803e3d6000fd5b50613d63565b613d408b6101c001518c602001518d60e0015188614404565b6101c08b015160208c0151600c54613d63929190600160a060020a031689614404565b60008b608001511115613e6657613d81613b638c608001518b61439d565b6101c08c0151909450600160a060020a03161515613e2a57613dac613da688866143db565b876143db565b60e08c0151604051919850600160a060020a03169085156108fc029086906000818181858888f19350505050158015613de9573d6000803e3d6000fd5b50600c54604051600160a060020a039091169087156108fc029088906000818181858888f19350505050158015613e24573d6000803e3d6000fd5b50613e66565b613e438b6101c001518d602001518d60e0015187614404565b6101c08b015160208d0151600c54613e66929190600160a060020a031689614404565b60008b60a001511115613f0a57613e84613b638c60a001518b61439d565b6101c08c0151909350600160a060020a03161515613ee757613ea6888461438b565b600954604051919950600160a060020a03169084156108fc029085906000818181858888f19350505050158015613ee1573d6000803e3d6000fd5b50613f0a565b6101c08b015160208c0151600954613f0a929190600160a060020a031686614404565b60008b60c001511115613fae57613f28613b638c60c001518b61439d565b6101c08c0151909250600160a060020a03161515613f8b57613f4a87836143db565b600954604051919850600160a060020a03169083156108fc029084906000818181858888f19350505050158015613f85573d6000803e3d6000fd5b50613fae565b6101c08b015160208d0151600954613fae929190600160a060020a031685614404565b61401f565b613fca8b602001518c60e001518d606001516144c3565b60208b0151600c54600a54613fe99291600160a060020a0316906144c3565b6140008c602001518c60e001518d608001516144c3565b60208c0151600c54600a5461401f9291600160a060020a0316906144c3565b614265565b6080808c0151908d0151111561403957600080fd5b60018b6101200151600181111561404c57fe5b14156141f9576101c08b0151600160a060020a0316151561406c57600080fd5b60c0808c0151908d0151111561408157600080fd5b60608c0151158015614095575060808c0151155b156140bd576101c08b015160208c0151600c546140bd929190600160a060020a031689614404565b60008c606001511115614119576140db613b638d606001518b61439d565b94506140f68b6101c001518d602001518e60e0015188614404565b6101c08b015160208d0151600c54614119929190600160a060020a031689614404565b60008c60800151111561417557614137613b638d608001518b61439d565b93506141528b6101c001518c602001518e60e0015187614404565b6101c08b015160208c0151600c54614175929190600160a060020a031689614404565b60008c60a0015111156141b757614193613b638d60a001518b61439d565b6101c08c015160208e01516009549295506141b792600160a060020a031686614404565b60008c60c00151111561401f576141d5613b638d60c001518b61439d565b6101c08c015160208d015160095492945061401f92600160a060020a031685614404565b6142108c602001518d60e001518e606001516144c3565b60208c0151600c54600a5461422f9291600160a060020a0316906144c3565b6142468b602001518d60e001518e608001516144c3565b60208b0151600c54600a546142659291600160a060020a0316906144c3565b6101c08b0151600160a060020a03161515614319573487111561428757600080fd5b8a60200151600160a060020a03166108fc899081150290604051600060405180830381858888f193505050501580156142c4573d6000803e3d6000fd5b506142cf348861438b565b90506000811115614319578b60200151600160a060020a03166108fc829081150290604051600060405180830381858888f19350505050158015614317573d6000803e3d6000fd5b505b50969a9950505050505050505050565b600901602002607d01919050565b600160a060020a03166c0100000000000000000000000002815260140190565b815260200190565b6000818353505060010190565b60008083600181111561437b57fe5b148061392a575050600010919050565b60008282111561439757fe5b50900390565b60008215156143ae5750600061392d565b508181028183828115156143be57fe5b041461392d57fe5b600081838115156143d357fe5b049392505050565b8181018281101561392d57fe5b6000428310801561392a575081158061392a5750504210919050565b600081111561113057600354604080517f15dacbea000000000000000000000000000000000000000000000000000000008152600160a060020a0387811660048301528681166024830152858116604483015260648201859052915191909216916315dacbea9160848083019260209291908290030181600087803b15801561448c57600080fd5b505af11580156144a0573d6000803e3d6000fd5b505050506040513d60208110156144b657600080fd5b5051151561113057600080fd5b6001546144db90600160a060020a0316848484614404565b505050565b6040805161028081018252600080825260208201819052918101829052606081018290526080810182905260a0810182905260c0810182905260e0810182905290610100820190815260200160008152602001600081526020016000815260006020820181905260409091019081526020016000600160a060020a03168152602001600081526020016000815260200160008152602001600081526020016000815250905600a165627a7a72305820df8247e081446187e9b2122e61cb61e7f6d512a5146fdfd7a841d9966c23a87a0029",
			"opcodes": "PUSH1 0x80 PUSH1 0x40 MSTORE PUSH1 0x0 DUP1 SLOAD PUSH1 0xFF NOT AND DUP2 SSTORE PUSH1 0x7 DUP2 SWAP1 SSTORE PUSH1 0x8 DUP2 SWAP1 SSTORE PUSH1 0xFA PUSH1 0xA DUP2 SWAP1 SSTORE PUSH1 0xB SSTORE PUSH3 0x15180 PUSH1 0xE SSTORE PUSH1 0xF DUP2 SWAP1 SSTORE PUSH3 0x3F480 PUSH1 0x10 SSTORE PUSH1 0x11 SSTORE CALLVALUE DUP1 ISZERO PUSH2 0x44 JUMPI PUSH1 0x0 DUP1 REVERT JUMPDEST POP PUSH1 0x40 MLOAD PUSH1 0xA0 DUP1 PUSH2 0x46AD DUP4 CODECOPY DUP2 ADD PUSH1 0x40 SWAP1 DUP2 MSTORE DUP2 MLOAD PUSH1 0x20 DUP4 ADD MLOAD SWAP2 DUP4 ADD MLOAD PUSH1 0x60 DUP5 ADD MLOAD PUSH1 0x80 SWAP1 SWAP5 ADD MLOAD PUSH1 0x0 DUP1 SLOAD PUSH1 0x2 DUP1 SLOAD PUSH1 0x1 PUSH1 0xA0 PUSH1 0x2 EXP SUB NOT SWAP1 DUP2 AND PUSH1 0x1 PUSH1 0xA0 PUSH1 0x2 EXP SUB SWAP8 DUP9 AND OR SWAP1 SWAP2 SSTORE PUSH1 0x3 DUP1 SLOAD DUP3 AND SWAP8 DUP8 AND SWAP8 SWAP1 SWAP8 OR SWAP1 SWAP7 SSTORE PUSH1 0x1 DUP1 SLOAD DUP8 AND SWAP5 DUP7 AND SWAP5 SWAP1 SWAP5 OR SWAP1 SWAP4 SSTORE PUSH1 0x9 DUP1 SLOAD DUP7 AND SWAP7 DUP6 AND SWAP7 SWAP1 SWAP7 OR SWAP1 SWAP6 SSTORE PUSH1 0xC DUP1 SLOAD SWAP1 SWAP5 AND SWAP3 AND SWAP2 SWAP1 SWAP2 OR SWAP1 SWAP2 SSTORE PUSH2 0x100 PUSH1 0xA8 PUSH1 0x2 EXP SUB NOT SWAP1 DUP2 AND CALLER PUSH2 0x100 MUL SWAP1 DUP2 OR SWAP1 SWAP2 AND OR DUP2 SSTORE PUSH2 0x45B2 SWAP1 DUP2 SWAP1 PUSH2 0xFB SWAP1 CODECOPY PUSH1 0x0 RETURN STOP PUSH1 0x80 PUSH1 0x40 MSTORE PUSH1 0x4 CALLDATASIZE LT PUSH2 0x1F5 JUMPI PUSH4 0xFFFFFFFF PUSH1 0xE0 PUSH1 0x2 EXP PUSH1 0x0 CALLDATALOAD DIV AND PUSH4 0x4588E05 DUP2 EQ PUSH2 0x1FA JUMPI DUP1 PUSH4 0x6FDDE03 EQ PUSH2 0x221 JUMPI DUP1 PUSH4 0x7CE0553 EQ PUSH2 0x2AB JUMPI DUP1 PUSH4 0xEEFDBAD EQ PUSH2 0x36D JUMPI DUP1 PUSH4 0x1305F35C EQ PUSH2 0x39E JUMPI DUP1 PUSH4 0x14350C24 EQ PUSH2 0x3B3 JUMPI DUP1 PUSH4 0x1A6B13E2 EQ PUSH2 0x3CB JUMPI DUP1 PUSH4 0x239E83DF EQ PUSH2 0x3E3 JUMPI DUP1 PUSH4 0x28A8EE68 EQ PUSH2 0x4B8 JUMPI DUP1 PUSH4 0x2E819A03 EQ PUSH2 0x4CD JUMPI DUP1 PUSH4 0x31E63199 EQ PUSH2 0x4E2 JUMPI DUP1 PUSH4 0x401E3813 EQ PUSH2 0x4F7 JUMPI DUP1 PUSH4 0x4EC48D09 EQ PUSH2 0x5C4 JUMPI DUP1 PUSH4 0x514F0330 EQ PUSH2 0x665 JUMPI DUP1 PUSH4 0x51917B0A EQ PUSH2 0x686 JUMPI DUP1 PUSH4 0x54FD4D50 EQ PUSH2 0x69B JUMPI DUP1 PUSH4 0x5BDB1128 EQ PUSH2 0x6B0 JUMPI DUP1 PUSH4 0x5C629816 EQ PUSH2 0x6C8 JUMPI DUP1 PUSH4 0x6296EB7E EQ PUSH2 0x795 JUMPI DUP1 PUSH4 0x63D36C0B EQ PUSH2 0x862 JUMPI DUP1 PUSH4 0x64DF049E EQ PUSH2 0x88F JUMPI DUP1 PUSH4 0x69FE0E2D EQ PUSH2 0x8A4 JUMPI DUP1 PUSH4 0x715018A6 EQ PUSH2 0x8BC JUMPI DUP1 PUSH4 0x7B103999 EQ PUSH2 0x8D1 JUMPI DUP1 PUSH4 0x7CCEFC52 EQ PUSH2 0x8E6 JUMPI DUP1 PUSH4 0x7E84CBD4 EQ PUSH2 0x8FB JUMPI DUP1 PUSH4 0x8076F005 EQ PUSH2 0x910 JUMPI DUP1 PUSH4 0x83B75676 EQ PUSH2 0x928 JUMPI DUP1 PUSH4 0x85BDF989 EQ PUSH2 0x9BB JUMPI DUP1 PUSH4 0x8DA5CB5B EQ PUSH2 0x9DC JUMPI DUP1 PUSH4 0x923B04CB EQ PUSH2 0x9F1 JUMPI DUP1 PUSH4 0xA25EB5D9 EQ PUSH2 0xA7E JUMPI DUP1 PUSH4 0xA9E24D01 EQ PUSH2 0xA93 JUMPI DUP1 PUSH4 0xBFA1DC30 EQ PUSH2 0xB60 JUMPI DUP1 PUSH4 0xC3B2D4D9 EQ PUSH2 0xB75 JUMPI DUP1 PUSH4 0xCAE6047F EQ PUSH2 0xB8A JUMPI DUP1 PUSH4 0xD51323C7 EQ PUSH2 0xB9F JUMPI DUP1 PUSH4 0xE058CE97 EQ PUSH2 0xC32 JUMPI DUP1 PUSH4 0xE363DB2F EQ PUSH2 0xC4A JUMPI DUP1 PUSH4 0xE57D4ADB EQ PUSH2 0xC5F JUMPI DUP1 PUSH4 0xE74B981B EQ PUSH2 0xC77 JUMPI DUP1 PUSH4 0xF2FDE38B EQ PUSH2 0xC98 JUMPI DUP1 PUSH4 0xF984EC59 EQ PUSH2 0xCB9 JUMPI JUMPDEST PUSH1 0x0 DUP1 REVERT JUMPDEST CALLVALUE DUP1 ISZERO PUSH2 0x206 JUMPI PUSH1 0x0 DUP1 REVERT JUMPDEST POP PUSH2 0x20F PUSH2 0xD86 JUMP JUMPDEST PUSH1 0x40 DUP1 MLOAD SWAP2 DUP3 MSTORE MLOAD SWAP1 DUP2 SWAP1 SUB PUSH1 0x20 ADD SWAP1 RETURN JUMPDEST CALLVALUE DUP1 ISZERO PUSH2 0x22D JUMPI PUSH1 0x0 DUP1 REVERT JUMPDEST POP PUSH2 0x236 PUSH2 0xD8C JUMP JUMPDEST PUSH1 0x40 DUP1 MLOAD PUSH1 0x20 DUP1 DUP3 MSTORE DUP4 MLOAD DUP2 DUP4 ADD MSTORE DUP4 MLOAD SWAP2 SWAP3 DUP4 SWAP3 SWAP1 DUP4 ADD SWAP2 DUP6 ADD SWAP1 DUP1 DUP4 DUP4 PUSH1 0x0 JUMPDEST DUP4 DUP2 LT ISZERO PUSH2 0x270 JUMPI DUP2 DUP2 ADD MLOAD DUP4 DUP3 ADD MSTORE PUSH1 0x20 ADD PUSH2 0x258 JUMP JUMPDEST POP POP POP POP SWAP1 POP SWAP1 DUP2 ADD SWAP1 PUSH1 0x1F AND DUP1 ISZERO PUSH2 0x29D JUMPI DUP1 DUP3 SUB DUP1 MLOAD PUSH1 0x1 DUP4 PUSH1 0x20 SUB PUSH2 0x100 EXP SUB NOT AND DUP2 MSTORE PUSH1 0x20 ADD SWAP2 POP JUMPDEST POP SWAP3 POP POP POP PUSH1 0x40 MLOAD DUP1 SWAP2 SUB SWAP1 RETURN JUMPDEST PUSH1 0x40 DUP1 MLOAD PUSH2 0x180 DUP2 DUP2 ADD SWAP1 SWAP3 MSTORE PUSH2 0x36B SWAP2 CALLDATASIZE SWAP2 PUSH1 0x4 SWAP2 PUSH2 0x184 SWAP2 SWAP1 DUP4 SWAP1 PUSH1 0xC SWAP1 DUP4 SWAP1 DUP4 SWAP1 DUP1 DUP3 DUP5 CALLDATACOPY POP POP PUSH1 0x40 DUP1 MLOAD PUSH2 0x240 DUP2 DUP2 ADD SWAP1 SWAP3 MSTORE SWAP5 SWAP8 SWAP7 SWAP6 DUP2 DUP2 ADD SWAP6 SWAP5 POP SWAP3 POP PUSH1 0x12 SWAP2 POP DUP4 SWAP1 DUP4 SWAP1 DUP1 DUP3 DUP5 CALLDATACOPY POP POP PUSH1 0x40 DUP1 MLOAD PUSH2 0x140 DUP2 DUP2 ADD SWAP1 SWAP3 MSTORE SWAP5 SWAP8 SWAP7 SWAP6 DUP2 DUP2 ADD SWAP6 SWAP5 POP SWAP3 POP PUSH1 0xA SWAP2 POP DUP4 SWAP1 DUP4 SWAP1 DUP1 DUP3 DUP5 CALLDATACOPY POP POP PUSH1 0x40 DUP1 MLOAD DUP7 CALLDATALOAD DUP9 ADD DUP1 CALLDATALOAD PUSH1 0x20 DUP2 DUP2 MUL DUP5 DUP2 ADD DUP3 ADD SWAP1 SWAP6 MSTORE DUP2 DUP5 MSTORE SWAP8 SWAP11 SWAP10 SWAP9 DUP9 ADD SWAP8 SWAP3 SWAP7 POP SWAP1 DUP3 ADD SWAP5 POP SWAP3 POP DUP3 SWAP2 SWAP1 DUP6 ADD SWAP1 DUP5 SWAP1 DUP1 DUP3 DUP5 CALLDATACOPY POP SWAP5 SWAP8 POP PUSH2 0xDC3 SWAP7 POP POP POP POP POP POP POP JUMP JUMPDEST STOP JUMPDEST CALLVALUE DUP1 ISZERO PUSH2 0x379 JUMPI PUSH1 0x0 DUP1 REVERT JUMPDEST POP PUSH2 0x382 PUSH2 0x1136 JUMP JUMPDEST PUSH1 0x40 DUP1 MLOAD PUSH1 0x1 PUSH1 0xA0 PUSH1 0x2 EXP SUB SWAP1 SWAP3 AND DUP3 MSTORE MLOAD SWAP1 DUP2 SWAP1 SUB PUSH1 0x20 ADD SWAP1 RETURN JUMPDEST CALLVALUE DUP1 ISZERO PUSH2 0x3AA JUMPI PUSH1 0x0 DUP1 REVERT JUMPDEST POP PUSH2 0x20F PUSH2 0x1145 JUMP JUMPDEST CALLVALUE DUP1 ISZERO PUSH2 0x3BF JUMPI PUSH1 0x0 DUP1 REVERT JUMPDEST POP PUSH2 0x36B PUSH1 0x4 CALLDATALOAD PUSH2 0x114B JUMP JUMPDEST CALLVALUE DUP1 ISZERO PUSH2 0x3D7 JUMPI PUSH1 0x0 DUP1 REVERT JUMPDEST POP PUSH2 0x36B PUSH1 0x4 CALLDATALOAD PUSH2 0x116C JUMP JUMPDEST CALLVALUE DUP1 ISZERO PUSH2 0x3EF JUMPI PUSH1 0x0 DUP1 REVERT JUMPDEST POP PUSH1 0x40 DUP1 MLOAD PUSH1 0x20 PUSH1 0x4 DUP1 CALLDATALOAD DUP1 DUP3 ADD CALLDATALOAD PUSH1 0x1F DUP2 ADD DUP5 SWAP1 DIV DUP5 MUL DUP6 ADD DUP5 ADD SWAP1 SWAP6 MSTORE DUP5 DUP5 MSTORE PUSH2 0x236 SWAP5 CALLDATASIZE SWAP5 SWAP3 SWAP4 PUSH1 0x24 SWAP4 SWAP3 DUP5 ADD SWAP2 SWAP1 DUP2 SWAP1 DUP5 ADD DUP4 DUP3 DUP1 DUP3 DUP5 CALLDATACOPY POP POP PUSH1 0x40 DUP1 MLOAD PUSH1 0x20 PUSH1 0x1F DUP10 CALLDATALOAD DUP12 ADD DUP1 CALLDATALOAD SWAP2 DUP3 ADD DUP4 SWAP1 DIV DUP4 MUL DUP5 ADD DUP4 ADD SWAP1 SWAP5 MSTORE DUP1 DUP4 MSTORE SWAP8 SWAP11 SWAP10 SWAP9 DUP2 ADD SWAP8 SWAP2 SWAP7 POP SWAP2 DUP3 ADD SWAP5 POP SWAP3 POP DUP3 SWAP2 POP DUP5 ADD DUP4 DUP3 DUP1 DUP3 DUP5 CALLDATACOPY POP POP PUSH1 0x40 DUP1 MLOAD PUSH1 0x20 PUSH1 0x1F DUP10 CALLDATALOAD DUP12 ADD DUP1 CALLDATALOAD SWAP2 DUP3 ADD DUP4 SWAP1 DIV DUP4 MUL DUP5 ADD DUP4 ADD SWAP1 SWAP5 MSTORE DUP1 DUP4 MSTORE SWAP8 SWAP11 SWAP10 SWAP9 DUP2 ADD SWAP8 SWAP2 SWAP7 POP SWAP2 DUP3 ADD SWAP5 POP SWAP3 POP DUP3 SWAP2 POP DUP5 ADD DUP4 DUP3 DUP1 DUP3 DUP5 CALLDATACOPY POP SWAP5 SWAP8 POP PUSH2 0x118D SWAP7 POP POP POP POP POP POP POP JUMP JUMPDEST CALLVALUE DUP1 ISZERO PUSH2 0x4C4 JUMPI PUSH1 0x0 DUP1 REVERT JUMPDEST POP PUSH2 0x20F PUSH2 0x11A2 JUMP JUMPDEST CALLVALUE DUP1 ISZERO PUSH2 0x4D9 JUMPI PUSH1 0x0 DUP1 REVERT JUMPDEST POP PUSH2 0x20F PUSH2 0x11A8 JUMP JUMPDEST CALLVALUE DUP1 ISZERO PUSH2 0x4EE JUMPI PUSH1 0x0 DUP1 REVERT JUMPDEST POP PUSH2 0x236 PUSH2 0x11AE JUMP JUMPDEST CALLVALUE DUP1 ISZERO PUSH2 0x503 JUMPI PUSH1 0x0 DUP1 REVERT JUMPDEST POP PUSH1 0x40 DUP1 MLOAD PUSH1 0xC0 DUP2 DUP2 ADD SWAP1 SWAP3 MSTORE PUSH2 0x20F SWAP2 CALLDATASIZE SWAP2 PUSH1 0x4 SWAP2 PUSH1 0xC4 SWAP2 SWAP1 DUP4 SWAP1 PUSH1 0x6 SWAP1 DUP4 SWAP1 DUP4 SWAP1 DUP1 DUP3 DUP5 CALLDATACOPY POP POP PUSH1 0x40 DUP1 MLOAD PUSH2 0x120 DUP2 DUP2 ADD SWAP1 SWAP3 MSTORE SWAP5 SWAP8 SWAP7 SWAP6 DUP2 DUP2 ADD SWAP6 SWAP5 POP SWAP3 POP PUSH1 0x9 SWAP2 POP DUP4 SWAP1 DUP4 SWAP1 DUP1 DUP3 DUP5 CALLDATACOPY POP POP PUSH1 0x40 DUP1 MLOAD PUSH1 0xA0 DUP8 ADD CALLDATALOAD DUP9 ADD DUP1 CALLDATALOAD PUSH1 0x20 DUP2 DUP2 MUL DUP5 DUP2 ADD DUP3 ADD DUP7 MSTORE DUP3 DUP6 MSTORE SWAP9 SWAP12 PUSH1 0xFF DUP12 CALLDATALOAD DUP2 AND SWAP13 DUP4 DUP14 ADD CALLDATALOAD DUP3 AND SWAP13 SWAP8 DUP9 ADD CALLDATALOAD DUP3 AND SWAP12 PUSH1 0x60 DUP10 ADD CALLDATALOAD DUP4 AND SWAP12 POP PUSH1 0x80 DUP10 ADD CALLDATALOAD SWAP1 SWAP3 AND SWAP10 POP SWAP2 SWAP8 POP SWAP1 SWAP6 PUSH1 0xC0 ADD SWAP5 SWAP4 DUP3 ADD SWAP3 SWAP2 DUP3 SWAP2 SWAP1 DUP6 ADD SWAP1 DUP5 SWAP1 DUP1 DUP3 DUP5 CALLDATACOPY POP SWAP5 SWAP8 POP PUSH2 0x11E5 SWAP7 POP POP POP POP POP POP POP JUMP JUMPDEST CALLVALUE DUP1 ISZERO PUSH2 0x5D0 JUMPI PUSH1 0x0 DUP1 REVERT JUMPDEST POP PUSH1 0x40 DUP1 MLOAD PUSH1 0xC0 DUP2 DUP2 ADD SWAP1 SWAP3 MSTORE PUSH2 0x651 SWAP2 CALLDATASIZE SWAP2 PUSH1 0x4 SWAP2 PUSH1 0xC4 SWAP2 SWAP1 DUP4 SWAP1 PUSH1 0x6 SWAP1 DUP4 SWAP1 DUP4 SWAP1 DUP1 DUP3 DUP5 CALLDATACOPY POP POP PUSH1 0x40 DUP1 MLOAD PUSH2 0x120 DUP2 DUP2 ADD SWAP1 SWAP3 MSTORE SWAP5 SWAP8 SWAP7 SWAP6 DUP2 DUP2 ADD SWAP6 SWAP5 POP SWAP3 POP PUSH1 0x9 SWAP2 POP DUP4 SWAP1 DUP4 SWAP1 DUP1 DUP3 DUP5 CALLDATACOPY POP SWAP4 SWAP7 POP POP PUSH1 0xFF DUP5 CALLDATALOAD DUP2 AND SWAP6 POP PUSH1 0x20 DUP6 ADD CALLDATALOAD DUP2 AND SWAP5 PUSH1 0x40 DUP2 ADD CALLDATALOAD DUP3 AND SWAP5 POP PUSH1 0x60 DUP2 ADD CALLDATALOAD DUP3 AND SWAP4 POP PUSH1 0x80 ADD CALLDATALOAD AND SWAP1 POP PUSH2 0x1315 JUMP JUMPDEST PUSH1 0x40 DUP1 MLOAD SWAP2 ISZERO ISZERO DUP3 MSTORE MLOAD SWAP1 DUP2 SWAP1 SUB PUSH1 0x20 ADD SWAP1 RETURN JUMPDEST CALLVALUE DUP1 ISZERO PUSH2 0x671 JUMPI PUSH1 0x0 DUP1 REVERT JUMPDEST POP PUSH2 0x36B PUSH1 0x1 PUSH1 0xA0 PUSH1 0x2 EXP SUB PUSH1 0x4 CALLDATALOAD AND PUSH2 0x1440 JUMP JUMPDEST CALLVALUE DUP1 ISZERO PUSH2 0x692 JUMPI PUSH1 0x0 DUP1 REVERT JUMPDEST POP PUSH2 0x382 PUSH2 0x148B JUMP JUMPDEST CALLVALUE DUP1 ISZERO PUSH2 0x6A7 JUMPI PUSH1 0x0 DUP1 REVERT JUMPDEST POP PUSH2 0x236 PUSH2 0x149A JUMP JUMPDEST CALLVALUE DUP1 ISZERO PUSH2 0x6BC JUMPI PUSH1 0x0 DUP1 REVERT JUMPDEST POP PUSH2 0x20F PUSH1 0x4 CALLDATALOAD PUSH2 0x14D1 JUMP JUMPDEST CALLVALUE DUP1 ISZERO PUSH2 0x6D4 JUMPI PUSH1 0x0 DUP1 REVERT JUMPDEST POP PUSH1 0x40 DUP1 MLOAD PUSH1 0xC0 DUP2 DUP2 ADD SWAP1 SWAP3 MSTORE PUSH2 0x36B SWAP2 CALLDATASIZE SWAP2 PUSH1 0x4 SWAP2 PUSH1 0xC4 SWAP2 SWAP1 DUP4 SWAP1 PUSH1 0x6 SWAP1 DUP4 SWAP1 DUP4 SWAP1 DUP1 DUP3 DUP5 CALLDATACOPY POP POP PUSH1 0x40 DUP1 MLOAD PUSH2 0x120 DUP2 DUP2 ADD SWAP1 SWAP3 MSTORE SWAP5 SWAP8 SWAP7 SWAP6 DUP2 DUP2 ADD SWAP6 SWAP5 POP SWAP3 POP PUSH1 0x9 SWAP2 POP DUP4 SWAP1 DUP4 SWAP1 DUP1 DUP3 DUP5 CALLDATACOPY POP POP PUSH1 0x40 DUP1 MLOAD PUSH1 0xA0 DUP8 ADD CALLDATALOAD DUP9 ADD DUP1 CALLDATALOAD PUSH1 0x20 DUP2 DUP2 MUL DUP5 DUP2 ADD DUP3 ADD DUP7 MSTORE DUP3 DUP6 MSTORE SWAP9 SWAP12 PUSH1 0xFF DUP12 CALLDATALOAD DUP2 AND SWAP13 DUP4 DUP14 ADD CALLDATALOAD DUP3 AND SWAP13 SWAP8 DUP9 ADD CALLDATALOAD DUP3 AND SWAP12 PUSH1 0x60 DUP10 ADD CALLDATALOAD DUP4 AND SWAP12 POP PUSH1 0x80 DUP10 ADD CALLDATALOAD SWAP1 SWAP3 AND SWAP10 POP SWAP2 SWAP8 POP SWAP1 SWAP6 PUSH1 0xC0 ADD SWAP5 SWAP4 DUP3 ADD SWAP3 SWAP2 DUP3 SWAP2 SWAP1 DUP6 ADD SWAP1 DUP5 SWAP1 DUP1 DUP3 DUP5 CALLDATACOPY POP SWAP5 SWAP8 POP PUSH2 0x14E3 SWAP7 POP POP POP POP POP POP POP JUMP JUMPDEST CALLVALUE DUP1 ISZERO PUSH2 0x7A1 JUMPI PUSH1 0x0 DUP1 REVERT JUMPDEST POP PUSH1 0x40 DUP1 MLOAD PUSH1 0xC0 DUP2 DUP2 ADD SWAP1 SWAP3 MSTORE PUSH2 0x36B SWAP2 CALLDATASIZE SWAP2 PUSH1 0x4 SWAP2 PUSH1 0xC4 SWAP2 SWAP1 DUP4 SWAP1 PUSH1 0x6 SWAP1 DUP4 SWAP1 DUP4 SWAP1 DUP1 DUP3 DUP5 CALLDATACOPY POP POP PUSH1 0x40 DUP1 MLOAD PUSH2 0x120 DUP2 DUP2 ADD SWAP1 SWAP3 MSTORE SWAP5 SWAP8 SWAP7 SWAP6 DUP2 DUP2 ADD SWAP6 SWAP5 POP SWAP3 POP PUSH1 0x9 SWAP2 POP DUP4 SWAP1 DUP4 SWAP1 DUP1 DUP3 DUP5 CALLDATACOPY POP POP PUSH1 0x40 DUP1 MLOAD PUSH1 0xA0 DUP8 ADD CALLDATALOAD DUP9 ADD DUP1 CALLDATALOAD PUSH1 0x20 DUP2 DUP2 MUL DUP5 DUP2 ADD DUP3 ADD DUP7 MSTORE DUP3 DUP6 MSTORE SWAP9 SWAP12 PUSH1 0xFF DUP12 CALLDATALOAD DUP2 AND SWAP13 DUP4 DUP14 ADD CALLDATALOAD DUP3 AND SWAP13 SWAP8 DUP9 ADD CALLDATALOAD DUP3 AND SWAP12 PUSH1 0x60 DUP10 ADD CALLDATALOAD DUP4 AND SWAP12 POP PUSH1 0x80 DUP10 ADD CALLDATALOAD SWAP1 SWAP3 AND SWAP10 POP SWAP2 SWAP8 POP SWAP1 SWAP6 PUSH1 0xC0 ADD SWAP5 SWAP4 DUP3 ADD SWAP3 SWAP2 DUP3 SWAP2 SWAP1 DUP6 ADD SWAP1 DUP5 SWAP1 DUP1 DUP3 DUP5 CALLDATACOPY POP SWAP5 SWAP8 POP PUSH2 0x1618 SWAP7 POP POP POP POP POP POP POP JUMP JUMPDEST CALLVALUE DUP1 ISZERO PUSH2 0x86E JUMPI PUSH1 0x0 DUP1 REVERT JUMPDEST POP PUSH2 0x20F PUSH1 0xFF PUSH1 0x4 CALLDATALOAD DUP2 AND SWAP1 PUSH1 0x24 CALLDATALOAD AND PUSH1 0x44 CALLDATALOAD PUSH1 0x64 CALLDATALOAD PUSH1 0x84 CALLDATALOAD PUSH1 0xA4 CALLDATALOAD PUSH2 0x1742 JUMP JUMPDEST CALLVALUE DUP1 ISZERO PUSH2 0x89B JUMPI PUSH1 0x0 DUP1 REVERT JUMPDEST POP PUSH2 0x382 PUSH2 0x175D JUMP JUMPDEST CALLVALUE DUP1 ISZERO PUSH2 0x8B0 JUMPI PUSH1 0x0 DUP1 REVERT JUMPDEST POP PUSH2 0x36B PUSH1 0x4 CALLDATALOAD PUSH2 0x176C JUMP JUMPDEST CALLVALUE DUP1 ISZERO PUSH2 0x8C8 JUMPI PUSH1 0x0 DUP1 REVERT JUMPDEST POP PUSH2 0x36B PUSH2 0x192D JUMP JUMPDEST CALLVALUE DUP1 ISZERO PUSH2 0x8DD JUMPI PUSH1 0x0 DUP1 REVERT JUMPDEST POP PUSH2 0x382 PUSH2 0x19A3 JUMP JUMPDEST CALLVALUE DUP1 ISZERO PUSH2 0x8F2 JUMPI PUSH1 0x0 DUP1 REVERT JUMPDEST POP PUSH2 0x20F PUSH2 0x19B2 JUMP JUMPDEST CALLVALUE DUP1 ISZERO PUSH2 0x907 JUMPI PUSH1 0x0 DUP1 REVERT JUMPDEST POP PUSH2 0x20F PUSH2 0x19B8 JUMP JUMPDEST CALLVALUE DUP1 ISZERO PUSH2 0x91C JUMPI PUSH1 0x0 DUP1 REVERT JUMPDEST POP PUSH2 0x651 PUSH1 0x4 CALLDATALOAD PUSH2 0x19BE JUMP JUMPDEST CALLVALUE DUP1 ISZERO PUSH2 0x934 JUMPI PUSH1 0x0 DUP1 REVERT JUMPDEST POP PUSH1 0x40 DUP1 MLOAD PUSH2 0x180 DUP2 DUP2 ADD SWAP1 SWAP3 MSTORE PUSH2 0x651 SWAP2 CALLDATASIZE SWAP2 PUSH1 0x4 SWAP2 PUSH2 0x184 SWAP2 SWAP1 DUP4 SWAP1 PUSH1 0xC SWAP1 DUP4 SWAP1 DUP4 SWAP1 DUP1 DUP3 DUP5 CALLDATACOPY POP POP PUSH1 0x40 DUP1 MLOAD PUSH2 0x240 DUP2 DUP2 ADD SWAP1 SWAP3 MSTORE SWAP5 SWAP8 SWAP7 SWAP6 DUP2 DUP2 ADD SWAP6 SWAP5 POP SWAP3 POP PUSH1 0x12 SWAP2 POP DUP4 SWAP1 DUP4 SWAP1 DUP1 DUP3 DUP5 CALLDATACOPY POP POP PUSH1 0x40 DUP1 MLOAD PUSH2 0x140 DUP2 DUP2 ADD SWAP1 SWAP3 MSTORE SWAP5 SWAP8 SWAP7 SWAP6 DUP2 DUP2 ADD SWAP6 SWAP5 POP SWAP3 POP PUSH1 0xA SWAP2 POP DUP4 SWAP1 DUP4 SWAP1 DUP1 DUP3 DUP5 CALLDATACOPY POP SWAP4 SWAP7 POP PUSH2 0x19D3 SWAP6 POP POP POP POP POP POP JUMP JUMPDEST CALLVALUE DUP1 ISZERO PUSH2 0x9C7 JUMPI PUSH1 0x0 DUP1 REVERT JUMPDEST POP PUSH2 0x36B PUSH1 0x1 PUSH1 0xA0 PUSH1 0x2 EXP SUB PUSH1 0x4 CALLDATALOAD AND PUSH2 0x1D5F JUMP JUMPDEST CALLVALUE DUP1 ISZERO PUSH2 0x9E8 JUMPI PUSH1 0x0 DUP1 REVERT JUMPDEST POP PUSH2 0x382 PUSH2 0x1DF6 JUMP JUMPDEST CALLVALUE DUP1 ISZERO PUSH2 0x9FD JUMPI PUSH1 0x0 DUP1 REVERT JUMPDEST POP PUSH1 0x40 DUP1 MLOAD PUSH1 0xC0 DUP2 DUP2 ADD SWAP1 SWAP3 MSTORE PUSH2 0x20F SWAP2 CALLDATASIZE SWAP2 PUSH1 0x4 SWAP2 PUSH1 0xC4 SWAP2 SWAP1 DUP4 SWAP1 PUSH1 0x6 SWAP1 DUP4 SWAP1 DUP4 SWAP1 DUP1 DUP3 DUP5 CALLDATACOPY POP POP PUSH1 0x40 DUP1 MLOAD PUSH2 0x120 DUP2 DUP2 ADD SWAP1 SWAP3 MSTORE SWAP5 SWAP8 SWAP7 SWAP6 DUP2 DUP2 ADD SWAP6 SWAP5 POP SWAP3 POP PUSH1 0x9 SWAP2 POP DUP4 SWAP1 DUP4 SWAP1 DUP1 DUP3 DUP5 CALLDATACOPY POP SWAP4 SWAP7 POP POP PUSH1 0xFF DUP5 CALLDATALOAD DUP2 AND SWAP6 POP PUSH1 0x20 DUP6 ADD CALLDATALOAD DUP2 AND SWAP5 PUSH1 0x40 DUP2 ADD CALLDATALOAD DUP3 AND SWAP5 POP PUSH1 0x60 DUP2 ADD CALLDATALOAD DUP3 AND SWAP4 POP PUSH1 0x80 ADD CALLDATALOAD AND SWAP1 POP PUSH2 0x1E0A JUMP JUMPDEST CALLVALUE DUP1 ISZERO PUSH2 0xA8A JUMPI PUSH1 0x0 DUP1 REVERT JUMPDEST POP PUSH2 0x382 PUSH2 0x1F38 JUMP JUMPDEST CALLVALUE DUP1 ISZERO PUSH2 0xA9F JUMPI PUSH1 0x0 DUP1 REVERT JUMPDEST POP PUSH1 0x40 DUP1 MLOAD PUSH1 0xC0 DUP2 DUP2 ADD SWAP1 SWAP3 MSTORE PUSH2 0x20F SWAP2 CALLDATASIZE SWAP2 PUSH1 0x4 SWAP2 PUSH1 0xC4 SWAP2 SWAP1 DUP4 SWAP1 PUSH1 0x6 SWAP1 DUP4 SWAP1 DUP4 SWAP1 DUP1 DUP3 DUP5 CALLDATACOPY POP POP PUSH1 0x40 DUP1 MLOAD PUSH2 0x120 DUP2 DUP2 ADD SWAP1 SWAP3 MSTORE SWAP5 SWAP8 SWAP7 SWAP6 DUP2 DUP2 ADD SWAP6 SWAP5 POP SWAP3 POP PUSH1 0x9 SWAP2 POP DUP4 SWAP1 DUP4 SWAP1 DUP1 DUP3 DUP5 CALLDATACOPY POP POP PUSH1 0x40 DUP1 MLOAD PUSH1 0xA0 DUP8 ADD CALLDATALOAD DUP9 ADD DUP1 CALLDATALOAD PUSH1 0x20 DUP2 DUP2 MUL DUP5 DUP2 ADD DUP3 ADD DUP7 MSTORE DUP3 DUP6 MSTORE SWAP9 SWAP12 PUSH1 0xFF DUP12 CALLDATALOAD DUP2 AND SWAP13 DUP4 DUP14 ADD CALLDATALOAD DUP3 AND SWAP13 SWAP8 DUP9 ADD CALLDATALOAD DUP3 AND SWAP12 PUSH1 0x60 DUP10 ADD CALLDATALOAD DUP4 AND SWAP12 POP PUSH1 0x80 DUP10 ADD CALLDATALOAD SWAP1 SWAP3 AND SWAP10 POP SWAP2 SWAP8 POP SWAP1 SWAP6 PUSH1 0xC0 ADD SWAP5 SWAP4 DUP3 ADD SWAP3 SWAP2 DUP3 SWAP2 SWAP1 DUP6 ADD SWAP1 DUP5 SWAP1 DUP1 DUP3 DUP5 CALLDATACOPY POP SWAP5 SWAP8 POP PUSH2 0x1F47 SWAP7 POP POP POP POP POP POP POP JUMP JUMPDEST CALLVALUE DUP1 ISZERO PUSH2 0xB6C JUMPI PUSH1 0x0 DUP1 REVERT JUMPDEST POP PUSH2 0x382 PUSH2 0x206A JUMP JUMPDEST CALLVALUE DUP1 ISZERO PUSH2 0xB81 JUMPI PUSH1 0x0 DUP1 REVERT JUMPDEST POP PUSH2 0x20F PUSH2 0x2079 JUMP JUMPDEST CALLVALUE DUP1 ISZERO PUSH2 0xB96 JUMPI PUSH1 0x0 DUP1 REVERT JUMPDEST POP PUSH2 0x20F PUSH2 0x207F JUMP JUMPDEST CALLVALUE DUP1 ISZERO PUSH2 0xBAB JUMPI PUSH1 0x0 DUP1 REVERT JUMPDEST POP PUSH1 0x40 DUP1 MLOAD PUSH2 0x180 DUP2 DUP2 ADD SWAP1 SWAP3 MSTORE PUSH2 0x20F SWAP2 CALLDATASIZE SWAP2 PUSH1 0x4 SWAP2 PUSH2 0x184 SWAP2 SWAP1 DUP4 SWAP1 PUSH1 0xC SWAP1 DUP4 SWAP1 DUP4 SWAP1 DUP1 DUP3 DUP5 CALLDATACOPY POP POP PUSH1 0x40 DUP1 MLOAD PUSH2 0x240 DUP2 DUP2 ADD SWAP1 SWAP3 MSTORE SWAP5 SWAP8 SWAP7 SWAP6 DUP2 DUP2 ADD SWAP6 SWAP5 POP SWAP3 POP PUSH1 0x12 SWAP2 POP DUP4 SWAP1 DUP4 SWAP1 DUP1 DUP3 DUP5 CALLDATACOPY POP POP PUSH1 0x40 DUP1 MLOAD PUSH2 0x140 DUP2 DUP2 ADD SWAP1 SWAP3 MSTORE SWAP5 SWAP8 SWAP7 SWAP6 DUP2 DUP2 ADD SWAP6 SWAP5 POP SWAP3 POP PUSH1 0xA SWAP2 POP DUP4 SWAP1 DUP4 SWAP1 DUP1 DUP3 DUP5 CALLDATACOPY POP SWAP4 SWAP7 POP PUSH2 0x2085 SWAP6 POP POP POP POP POP POP JUMP JUMPDEST CALLVALUE DUP1 ISZERO PUSH2 0xC3E JUMPI PUSH1 0x0 DUP1 REVERT JUMPDEST POP PUSH2 0x36B PUSH1 0x4 CALLDATALOAD PUSH2 0x2407 JUMP JUMPDEST CALLVALUE DUP1 ISZERO PUSH2 0xC56 JUMPI PUSH1 0x0 DUP1 REVERT JUMPDEST POP PUSH2 0x20F PUSH2 0x2471 JUMP JUMPDEST CALLVALUE DUP1 ISZERO PUSH2 0xC6B JUMPI PUSH1 0x0 DUP1 REVERT JUMPDEST POP PUSH2 0x651 PUSH1 0x4 CALLDATALOAD PUSH2 0x2477 JUMP JUMPDEST CALLVALUE DUP1 ISZERO PUSH2 0xC83 JUMPI PUSH1 0x0 DUP1 REVERT JUMPDEST POP PUSH2 0x36B PUSH1 0x1 PUSH1 0xA0 PUSH1 0x2 EXP SUB PUSH1 0x4 CALLDATALOAD AND PUSH2 0x248C JUMP JUMPDEST CALLVALUE DUP1 ISZERO PUSH2 0xCA4 JUMPI PUSH1 0x0 DUP1 REVERT JUMPDEST POP PUSH2 0x36B PUSH1 0x1 PUSH1 0xA0 PUSH1 0x2 EXP SUB PUSH1 0x4 CALLDATALOAD AND PUSH2 0x2683 JUMP JUMPDEST CALLVALUE DUP1 ISZERO PUSH2 0xCC5 JUMPI PUSH1 0x0 DUP1 REVERT JUMPDEST POP PUSH1 0x40 DUP1 MLOAD PUSH1 0xC0 DUP2 DUP2 ADD SWAP1 SWAP3 MSTORE PUSH2 0x651 SWAP2 CALLDATASIZE SWAP2 PUSH1 0x4 SWAP2 PUSH1 0xC4 SWAP2 SWAP1 DUP4 SWAP1 PUSH1 0x6 SWAP1 DUP4 SWAP1 DUP4 SWAP1 DUP1 DUP3 DUP5 CALLDATACOPY POP POP PUSH1 0x40 DUP1 MLOAD PUSH2 0x120 DUP2 DUP2 ADD SWAP1 SWAP3 MSTORE SWAP5 SWAP8 SWAP7 SWAP6 DUP2 DUP2 ADD SWAP6 SWAP5 POP SWAP3 POP PUSH1 0x9 SWAP2 POP DUP4 SWAP1 DUP4 SWAP1 DUP1 DUP3 DUP5 CALLDATACOPY POP POP PUSH1 0x40 DUP1 MLOAD PUSH1 0xA0 DUP8 ADD CALLDATALOAD DUP9 ADD DUP1 CALLDATALOAD PUSH1 0x20 DUP2 DUP2 MUL DUP5 DUP2 ADD DUP3 ADD DUP7 MSTORE DUP3 DUP6 MSTORE SWAP9 SWAP12 PUSH1 0xFF DUP12 CALLDATALOAD DUP2 AND SWAP13 DUP4 DUP14 ADD CALLDATALOAD DUP3 AND SWAP13 SWAP8 DUP9 ADD CALLDATALOAD DUP3 AND SWAP12 PUSH1 0x60 DUP10 ADD CALLDATALOAD DUP4 AND SWAP12 POP PUSH1 0x80 DUP10 ADD CALLDATALOAD SWAP1 SWAP3 AND SWAP10 POP SWAP2 SWAP8 POP SWAP1 SWAP6 PUSH1 0xC0 ADD SWAP5 SWAP4 DUP3 ADD SWAP3 SWAP2 DUP3 SWAP2 SWAP1 DUP6 ADD SWAP1 DUP5 SWAP1 DUP1 DUP3 DUP5 CALLDATACOPY POP SWAP5 SWAP8 POP PUSH2 0x2727 SWAP7 POP POP POP POP POP POP POP JUMP JUMPDEST PUSH1 0xF SLOAD DUP2 JUMP JUMPDEST PUSH1 0x40 DUP1 MLOAD DUP1 DUP3 ADD SWAP1 SWAP2 MSTORE PUSH1 0x17 DUP2 MSTORE PUSH32 0x50726F6A65637420506C614E46542045786368616E6765000000000000000000 PUSH1 0x20 DUP3 ADD MSTORE DUP2 JUMP JUMPDEST PUSH1 0x40 DUP1 MLOAD PUSH2 0x280 DUP2 ADD DUP3 MSTORE DUP6 MLOAD PUSH1 0x1 PUSH1 0xA0 PUSH1 0x2 EXP SUB SWAP1 DUP2 AND DUP3 MSTORE PUSH1 0x20 DUP1 DUP9 ADD MLOAD DUP3 AND DUP2 DUP5 ADD MSTORE DUP8 DUP5 ADD MLOAD DUP3 AND DUP4 DUP6 ADD MSTORE DUP7 MLOAD PUSH1 0x60 DUP1 DUP6 ADD SWAP2 SWAP1 SWAP2 MSTORE SWAP1 DUP8 ADD MLOAD PUSH1 0x80 DUP5 ADD MSTORE SWAP3 DUP7 ADD MLOAD PUSH1 0xA0 DUP4 ADD MSTORE DUP6 DUP4 ADD MLOAD PUSH1 0xC0 DUP4 ADD MSTORE SWAP2 DUP7 ADD MLOAD SWAP1 SWAP2 AND PUSH1 0xE0 DUP3 ADD MSTORE DUP3 MLOAD PUSH2 0x1130 SWAP2 SWAP1 PUSH2 0x100 DUP3 ADD SWAP1 PUSH1 0xFF AND PUSH1 0x1 DUP2 GT ISZERO PUSH2 0xE40 JUMPI INVALID JUMPDEST PUSH1 0x1 DUP2 GT ISZERO PUSH2 0xE4B JUMPI INVALID JUMPDEST DUP2 MSTORE PUSH1 0x20 ADD DUP5 PUSH1 0x1 PUSH1 0x20 MUL ADD MLOAD PUSH1 0xFF AND PUSH1 0x1 DUP2 GT ISZERO PUSH2 0xE66 JUMPI INVALID JUMPDEST PUSH1 0x1 DUP2 GT ISZERO PUSH2 0xE71 JUMPI INVALID JUMPDEST DUP2 MSTORE PUSH1 0x20 ADD DUP5 PUSH1 0x2 PUSH1 0x20 MUL ADD MLOAD PUSH1 0xFF AND PUSH1 0x1 DUP2 GT ISZERO PUSH2 0xE8C JUMPI INVALID JUMPDEST PUSH1 0x1 DUP2 GT ISZERO PUSH2 0xE97 JUMPI INVALID JUMPDEST DUP2 MSTORE PUSH1 0x20 ADD DUP5 PUSH1 0x3 PUSH1 0x20 MUL ADD MLOAD PUSH1 0xFF AND PUSH1 0x1 DUP2 GT ISZERO PUSH2 0xEB2 JUMPI INVALID JUMPDEST PUSH1 0x1 DUP2 GT ISZERO PUSH2 0xEBD JUMPI INVALID JUMPDEST DUP2 MSTORE PUSH1 0x80 DUP1 DUP9 ADD MLOAD PUSH1 0x1 PUSH1 0xA0 PUSH1 0x2 EXP SUB AND PUSH1 0x20 DUP4 ADD MSTORE DUP6 ADD MLOAD PUSH1 0x40 SWAP1 SWAP2 ADD SWAP1 PUSH1 0xFF AND PUSH1 0x1 DUP2 GT ISZERO PUSH2 0xEEA JUMPI INVALID JUMPDEST PUSH1 0x1 DUP2 GT ISZERO PUSH2 0xEF5 JUMPI INVALID JUMPDEST DUP2 MSTORE PUSH1 0x20 ADD DUP7 PUSH1 0x5 PUSH1 0x20 SWAP1 DUP2 MUL SWAP2 SWAP1 SWAP2 ADD MLOAD PUSH1 0x1 PUSH1 0xA0 PUSH1 0x2 EXP SUB AND DUP3 MSTORE ADD DUP6 PUSH1 0x4 PUSH1 0x20 SWAP1 DUP2 MUL SWAP2 SWAP1 SWAP2 ADD MLOAD DUP3 MSTORE ADD DUP6 PUSH1 0x5 PUSH1 0x20 SWAP1 DUP2 MUL SWAP2 SWAP1 SWAP2 ADD MLOAD DUP3 MSTORE ADD DUP6 PUSH1 0x6 PUSH1 0x20 SWAP1 DUP2 MUL SWAP2 SWAP1 SWAP2 ADD MLOAD DUP3 MSTORE ADD DUP6 PUSH1 0x7 PUSH1 0x20 SWAP1 DUP2 MUL SWAP2 SWAP1 SWAP2 ADD MLOAD DUP3 MSTORE ADD DUP6 PUSH1 0x8 PUSH1 0x20 MUL ADD MLOAD SWAP1 MSTORE PUSH1 0x40 DUP1 MLOAD PUSH2 0x280 DUP2 ADD SWAP1 SWAP2 MSTORE DUP1 DUP8 PUSH1 0x6 PUSH1 0x20 SWAP1 DUP2 MUL SWAP2 SWAP1 SWAP2 ADD MLOAD PUSH1 0x1 PUSH1 0xA0 PUSH1 0x2 EXP SUB AND DUP3 MSTORE ADD DUP8 PUSH1 0x7 PUSH1 0x20 SWAP1 DUP2 MUL SWAP2 SWAP1 SWAP2 ADD MLOAD PUSH1 0x1 PUSH1 0xA0 PUSH1 0x2 EXP SUB AND DUP3 MSTORE ADD DUP8 PUSH1 0x8 PUSH1 0x20 SWAP1 DUP2 MUL SWAP2 SWAP1 SWAP2 ADD MLOAD PUSH1 0x1 PUSH1 0xA0 PUSH1 0x2 EXP SUB AND DUP3 MSTORE ADD DUP7 PUSH1 0x9 PUSH1 0x20 SWAP1 DUP2 MUL SWAP2 SWAP1 SWAP2 ADD MLOAD DUP3 MSTORE ADD DUP7 PUSH1 0xA PUSH1 0x20 SWAP1 DUP2 MUL SWAP2 SWAP1 SWAP2 ADD MLOAD DUP3 MSTORE ADD DUP7 PUSH1 0xB PUSH1 0x20 SWAP1 DUP2 MUL SWAP2 SWAP1 SWAP2 ADD MLOAD DUP3 MSTORE ADD DUP7 PUSH1 0xC PUSH1 0x20 SWAP1 DUP2 MUL SWAP2 SWAP1 SWAP2 ADD MLOAD DUP3 MSTORE ADD DUP8 PUSH1 0x9 PUSH1 0x20 SWAP1 DUP2 MUL SWAP2 SWAP1 SWAP2 ADD MLOAD PUSH1 0x1 PUSH1 0xA0 PUSH1 0x2 EXP SUB AND DUP3 MSTORE ADD DUP6 PUSH1 0x5 PUSH1 0x20 MUL ADD MLOAD PUSH1 0xFF AND PUSH1 0x1 DUP2 GT ISZERO PUSH2 0x1024 JUMPI INVALID JUMPDEST PUSH1 0x1 DUP2 GT ISZERO PUSH2 0x102F JUMPI INVALID JUMPDEST DUP2 MSTORE PUSH1 0x20 ADD DUP6 PUSH1 0x6 PUSH1 0x20 MUL ADD MLOAD PUSH1 0xFF AND PUSH1 0x1 DUP2 GT ISZERO PUSH2 0x104A JUMPI INVALID JUMPDEST PUSH1 0x1 DUP2 GT ISZERO PUSH2 0x1055 JUMPI INVALID JUMPDEST DUP2 MSTORE PUSH1 0x20 ADD DUP6 PUSH1 0x7 PUSH1 0x20 MUL ADD MLOAD PUSH1 0xFF AND PUSH1 0x1 DUP2 GT ISZERO PUSH2 0x1070 JUMPI INVALID JUMPDEST PUSH1 0x1 DUP2 GT ISZERO PUSH2 0x107B JUMPI INVALID JUMPDEST DUP2 MSTORE PUSH1 0x20 ADD DUP6 PUSH1 0x8 PUSH1 0x20 MUL ADD MLOAD PUSH1 0xFF AND PUSH1 0x1 DUP2 GT ISZERO PUSH2 0x1096 JUMPI INVALID JUMPDEST PUSH1 0x1 DUP2 GT ISZERO PUSH2 0x10A1 JUMPI INVALID JUMPDEST DUP2 MSTORE PUSH2 0x140 DUP9 ADD MLOAD PUSH1 0x1 PUSH1 0xA0 PUSH1 0x2 EXP SUB AND PUSH1 0x20 DUP3 ADD MSTORE PUSH2 0x120 DUP7 ADD MLOAD PUSH1 0x40 SWAP1 SWAP2 ADD SWAP1 PUSH1 0xFF AND PUSH1 0x1 DUP2 GT ISZERO PUSH2 0x10D1 JUMPI INVALID JUMPDEST PUSH1 0x1 DUP2 GT ISZERO PUSH2 0x10DC JUMPI INVALID JUMPDEST DUP2 MSTORE PUSH2 0x160 DUP9 ADD MLOAD PUSH1 0x1 PUSH1 0xA0 PUSH1 0x2 EXP SUB AND PUSH1 0x20 DUP3 ADD MSTORE PUSH2 0x1A0 DUP8 ADD MLOAD PUSH1 0x40 DUP3 ADD MSTORE PUSH2 0x1C0 DUP8 ADD MLOAD PUSH1 0x60 DUP3 ADD MSTORE PUSH2 0x1E0 DUP8 ADD MLOAD PUSH1 0x80 DUP3 ADD MSTORE PUSH2 0x200 DUP8 ADD MLOAD PUSH1 0xA0 DUP3 ADD MSTORE PUSH2 0x220 DUP8 ADD MLOAD PUSH1 0xC0 SWAP1 SWAP2 ADD MSTORE DUP4 PUSH2 0x286A JUMP JUMPDEST POP POP POP POP JUMP JUMPDEST PUSH1 0x3 SLOAD PUSH1 0x1 PUSH1 0xA0 PUSH1 0x2 EXP SUB AND DUP2 JUMP JUMPDEST PUSH1 0xE SLOAD DUP2 JUMP JUMPDEST PUSH1 0x0 SLOAD PUSH2 0x100 SWAP1 DIV PUSH1 0x1 PUSH1 0xA0 PUSH1 0x2 EXP SUB AND CALLER EQ PUSH2 0x1167 JUMPI PUSH1 0x0 DUP1 REVERT JUMPDEST PUSH1 0x7 SSTORE JUMP JUMPDEST PUSH1 0x0 SLOAD PUSH2 0x100 SWAP1 DIV PUSH1 0x1 PUSH1 0xA0 PUSH1 0x2 EXP SUB AND CALLER EQ PUSH2 0x1188 JUMPI PUSH1 0x0 DUP1 REVERT JUMPDEST PUSH1 0x8 SSTORE JUMP JUMPDEST PUSH1 0x60 PUSH2 0x119A DUP5 DUP5 DUP5 PUSH2 0x2F65 JUMP JUMPDEST POP SWAP2 SWAP3 SWAP2 POP POP JUMP JUMPDEST PUSH1 0x8 SLOAD DUP2 JUMP JUMPDEST PUSH1 0x11 SLOAD DUP2 JUMP JUMPDEST PUSH1 0x40 DUP1 MLOAD DUP1 DUP3 ADD SWAP1 SWAP2 MSTORE PUSH1 0xC DUP2 MSTORE PUSH32 0x4C616D62746F6E20576F726D0000000000000000000000000000000000000000 PUSH1 0x20 DUP3 ADD MSTORE DUP2 JUMP JUMPDEST PUSH1 0x40 DUP1 MLOAD PUSH2 0x280 DUP2 ADD DUP3 MSTORE DUP10 MLOAD PUSH1 0x1 PUSH1 0xA0 PUSH1 0x2 EXP SUB SWAP1 DUP2 AND DUP3 MSTORE PUSH1 0x20 DUP1 DUP13 ADD MLOAD DUP3 AND DUP2 DUP5 ADD MSTORE DUP12 DUP5 ADD MLOAD DUP3 AND DUP4 DUP6 ADD MSTORE DUP11 MLOAD PUSH1 0x60 DUP1 DUP6 ADD SWAP2 SWAP1 SWAP2 MSTORE SWAP1 DUP12 ADD MLOAD PUSH1 0x80 DUP5 ADD MSTORE SWAP3 DUP11 ADD MLOAD PUSH1 0xA0 DUP4 ADD MSTORE DUP10 DUP4 ADD MLOAD PUSH1 0xC0 DUP4 ADD MSTORE SWAP2 DUP11 ADD MLOAD SWAP1 SWAP2 AND PUSH1 0xE0 DUP3 ADD MSTORE PUSH1 0x0 SWAP1 PUSH2 0x1308 SWAP1 PUSH2 0x100 DUP2 ADD DUP10 PUSH1 0x1 DUP2 GT ISZERO PUSH2 0x125F JUMPI INVALID JUMPDEST DUP2 MSTORE PUSH1 0x20 ADD DUP9 PUSH1 0x1 DUP2 GT ISZERO PUSH2 0x1270 JUMPI INVALID JUMPDEST DUP2 MSTORE PUSH1 0x20 ADD DUP8 PUSH1 0x1 DUP2 GT ISZERO PUSH2 0x1281 JUMPI INVALID JUMPDEST DUP2 MSTORE PUSH1 0x20 ADD DUP7 PUSH1 0x1 DUP2 GT ISZERO PUSH2 0x1292 JUMPI INVALID JUMPDEST DUP2 MSTORE PUSH1 0x80 DUP13 ADD MLOAD PUSH1 0x1 PUSH1 0xA0 PUSH1 0x2 EXP SUB AND PUSH1 0x20 DUP3 ADD MSTORE PUSH1 0x40 ADD DUP6 PUSH1 0x1 DUP2 GT ISZERO PUSH2 0x12B6 JUMPI INVALID JUMPDEST DUP2 MSTORE PUSH1 0xA0 DUP1 DUP14 ADD MLOAD PUSH1 0x1 PUSH1 0xA0 PUSH1 0x2 EXP SUB AND PUSH1 0x20 DUP4 ADD MSTORE PUSH1 0x80 DUP13 DUP2 ADD MLOAD PUSH1 0x40 DUP5 ADD MSTORE DUP13 DUP3 ADD MLOAD PUSH1 0x60 DUP5 ADD MSTORE PUSH1 0xC0 DUP1 DUP15 ADD MLOAD SWAP2 DUP5 ADD SWAP2 SWAP1 SWAP2 MSTORE PUSH1 0xE0 DUP14 ADD MLOAD SWAP2 DUP4 ADD SWAP2 SWAP1 SWAP2 MSTORE PUSH2 0x100 DUP13 ADD MLOAD SWAP2 ADD MSTORE DUP4 PUSH2 0x30EC JUMP JUMPDEST SWAP10 SWAP9 POP POP POP POP POP POP POP POP POP JUMP JUMPDEST PUSH1 0x0 PUSH2 0x131F PUSH2 0x44E0 JUMP JUMPDEST PUSH1 0x40 DUP1 MLOAD PUSH2 0x280 DUP2 ADD DUP3 MSTORE DUP11 MLOAD PUSH1 0x1 PUSH1 0xA0 PUSH1 0x2 EXP SUB SWAP1 DUP2 AND DUP3 MSTORE PUSH1 0x20 DUP1 DUP14 ADD MLOAD DUP3 AND DUP2 DUP5 ADD MSTORE DUP13 DUP5 ADD MLOAD DUP3 AND DUP4 DUP6 ADD MSTORE DUP12 MLOAD PUSH1 0x60 DUP1 DUP6 ADD SWAP2 SWAP1 SWAP2 MSTORE SWAP1 DUP13 ADD MLOAD PUSH1 0x80 DUP5 ADD MSTORE SWAP3 DUP12 ADD MLOAD PUSH1 0xA0 DUP4 ADD MSTORE DUP11 DUP4 ADD MLOAD PUSH1 0xC0 DUP4 ADD MSTORE SWAP2 DUP12 ADD MLOAD SWAP1 SWAP2 AND PUSH1 0xE0 DUP3 ADD MSTORE PUSH2 0x100 DUP2 ADD DUP9 PUSH1 0x1 DUP2 GT ISZERO PUSH2 0x1392 JUMPI INVALID JUMPDEST DUP2 MSTORE PUSH1 0x20 ADD DUP8 PUSH1 0x1 DUP2 GT ISZERO PUSH2 0x13A3 JUMPI INVALID JUMPDEST DUP2 MSTORE PUSH1 0x20 ADD DUP7 PUSH1 0x1 DUP2 GT ISZERO PUSH2 0x13B4 JUMPI INVALID JUMPDEST DUP2 MSTORE PUSH1 0x20 ADD DUP6 PUSH1 0x1 DUP2 GT ISZERO PUSH2 0x13C5 JUMPI INVALID JUMPDEST DUP2 MSTORE PUSH1 0x80 DUP12 ADD MLOAD PUSH1 0x1 PUSH1 0xA0 PUSH1 0x2 EXP SUB AND PUSH1 0x20 DUP3 ADD MSTORE PUSH1 0x40 ADD DUP5 PUSH1 0x1 DUP2 GT ISZERO PUSH2 0x13E9 JUMPI INVALID JUMPDEST DUP2 MSTORE PUSH1 0xA0 DUP1 DUP13 ADD MLOAD PUSH1 0x1 PUSH1 0xA0 PUSH1 0x2 EXP SUB AND PUSH1 0x20 DUP4 ADD MSTORE PUSH1 0x80 DUP12 DUP2 ADD MLOAD PUSH1 0x40 DUP5 ADD MSTORE DUP12 DUP3 ADD MLOAD PUSH1 0x60 DUP5 ADD MSTORE PUSH1 0xC0 DUP1 DUP14 ADD MLOAD SWAP2 DUP5 ADD SWAP2 SWAP1 SWAP2 MSTORE PUSH1 0xE0 DUP13 ADD MLOAD SWAP2 DUP4 ADD SWAP2 SWAP1 SWAP2 MSTORE PUSH2 0x100 DUP12 ADD MLOAD SWAP2 ADD MSTORE SWAP1 POP PUSH2 0x1308 DUP2 PUSH2 0x32ED JUMP JUMPDEST PUSH1 0x0 SLOAD PUSH2 0x100 SWAP1 DIV PUSH1 0x1 PUSH1 0xA0 PUSH1 0x2 EXP SUB AND CALLER EQ PUSH2 0x145C JUMPI PUSH1 0x0 DUP1 REVERT JUMPDEST PUSH1 0x9 DUP1 SLOAD PUSH20 0xFFFFFFFFFFFFFFFFFFFFFFFFFFFFFFFFFFFFFFFF NOT AND PUSH1 0x1 PUSH1 0xA0 PUSH1 0x2 EXP SUB SWAP3 SWAP1 SWAP3 AND SWAP2 SWAP1 SWAP2 OR SWAP1 SSTORE JUMP JUMPDEST PUSH1 0xD SLOAD PUSH1 0x1 PUSH1 0xA0 PUSH1 0x2 EXP SUB AND DUP2 JUMP JUMPDEST PUSH1 0x40 DUP1 MLOAD DUP1 DUP3 ADD SWAP1 SWAP2 MSTORE PUSH1 0x3 DUP2 MSTORE PUSH32 0x312E300000000000000000000000000000000000000000000000000000000000 PUSH1 0x20 DUP3 ADD MSTORE DUP2 JUMP JUMPDEST PUSH1 0x6 PUSH1 0x20 MSTORE PUSH1 0x0 SWAP1 DUP2 MSTORE PUSH1 0x40 SWAP1 KECCAK256 SLOAD DUP2 JUMP JUMPDEST PUSH2 0x14EB PUSH2 0x44E0 JUMP JUMPDEST PUSH1 0x40 DUP1 MLOAD PUSH2 0x280 DUP2 ADD DUP3 MSTORE DUP11 MLOAD PUSH1 0x1 PUSH1 0xA0 PUSH1 0x2 EXP SUB SWAP1 DUP2 AND DUP3 MSTORE PUSH1 0x20 DUP1 DUP14 ADD MLOAD DUP3 AND DUP2 DUP5 ADD MSTORE DUP13 DUP5 ADD MLOAD DUP3 AND DUP4 DUP6 ADD MSTORE DUP12 MLOAD PUSH1 0x60 DUP1 DUP6 ADD SWAP2 SWAP1 SWAP2 MSTORE SWAP1 DUP13 ADD MLOAD PUSH1 0x80 DUP5 ADD MSTORE SWAP3 DUP12 ADD MLOAD PUSH1 0xA0 DUP4 ADD MSTORE DUP11 DUP4 ADD MLOAD PUSH1 0xC0 DUP4 ADD MSTORE SWAP2 DUP12 ADD MLOAD SWAP1 SWAP2 AND PUSH1 0xE0 DUP3 ADD MSTORE PUSH2 0x100 DUP2 ADD DUP9 PUSH1 0x1 DUP2 GT ISZERO PUSH2 0x155E JUMPI INVALID JUMPDEST DUP2 MSTORE PUSH1 0x20 ADD DUP8 PUSH1 0x1 DUP2 GT ISZERO PUSH2 0x156F JUMPI INVALID JUMPDEST DUP2 MSTORE PUSH1 0x20 ADD DUP7 PUSH1 0x1 DUP2 GT ISZERO PUSH2 0x1580 JUMPI INVALID JUMPDEST DUP2 MSTORE PUSH1 0x20 ADD DUP6 PUSH1 0x1 DUP2 GT ISZERO PUSH2 0x1591 JUMPI INVALID JUMPDEST DUP2 MSTORE PUSH1 0x80 DUP12 ADD MLOAD PUSH1 0x1 PUSH1 0xA0 PUSH1 0x2 EXP SUB AND PUSH1 0x20 DUP3 ADD MSTORE PUSH1 0x40 ADD DUP5 PUSH1 0x1 DUP2 GT ISZERO PUSH2 0x15B5 JUMPI INVALID JUMPDEST DUP2 MSTORE PUSH1 0xA0 DUP1 DUP13 ADD MLOAD PUSH1 0x1 PUSH1 0xA0 PUSH1 0x2 EXP SUB AND PUSH1 0x20 DUP4 ADD MSTORE PUSH1 0x80 DUP12 DUP2 ADD MLOAD PUSH1 0x40 DUP5 ADD MSTORE DUP12 DUP3 ADD MLOAD PUSH1 0x60 DUP5 ADD MSTORE PUSH1 0xC0 DUP1 DUP14 ADD MLOAD SWAP2 DUP5 ADD SWAP2 SWAP1 SWAP2 MSTORE PUSH1 0xE0 DUP13 ADD MLOAD SWAP2 DUP4 ADD SWAP2 SWAP1 SWAP2 MSTORE PUSH2 0x100 DUP12 ADD MLOAD SWAP2 ADD MSTORE SWAP1 POP PUSH2 0x160D DUP2 DUP4 PUSH2 0x3375 JUMP JUMPDEST POP POP POP POP POP POP POP POP POP JUMP JUMPDEST PUSH1 0x40 DUP1 MLOAD PUSH2 0x280 DUP2 ADD DUP3 MSTORE DUP10 MLOAD PUSH1 0x1 PUSH1 0xA0 PUSH1 0x2 EXP SUB SWAP1 DUP2 AND DUP3 MSTORE PUSH1 0x20 DUP1 DUP13 ADD MLOAD DUP3 AND DUP2 DUP5 ADD MSTORE DUP12 DUP5 ADD MLOAD DUP3 AND DUP4 DUP6 ADD MSTORE DUP11 MLOAD PUSH1 0x60 DUP1 DUP6 ADD SWAP2 SWAP1 SWAP2 MSTORE SWAP1 DUP12 ADD MLOAD PUSH1 0x80 DUP5 ADD MSTORE SWAP3 DUP11 ADD MLOAD PUSH1 0xA0 DUP4 ADD MSTORE DUP10 DUP4 ADD MLOAD PUSH1 0xC0 DUP4 ADD MSTORE SWAP2 DUP11 ADD MLOAD SWAP1 SWAP2 AND PUSH1 0xE0 DUP3 ADD MSTORE PUSH2 0x1738 SWAP1 PUSH2 0x100 DUP2 ADD DUP9 PUSH1 0x1 DUP2 GT ISZERO PUSH2 0x168F JUMPI INVALID JUMPDEST DUP2 MSTORE PUSH1 0x20 ADD DUP8 PUSH1 0x1 DUP2 GT ISZERO PUSH2 0x16A0 JUMPI INVALID JUMPDEST DUP2 MSTORE PUSH1 0x20 ADD DUP7 PUSH1 0x1 DUP2 GT ISZERO PUSH2 0x16B1 JUMPI INVALID JUMPDEST DUP2 MSTORE PUSH1 0x20 ADD DUP6 PUSH1 0x1 DUP2 GT ISZERO PUSH2 0x16C2 JUMPI INVALID JUMPDEST DUP2 MSTORE PUSH1 0x80 DUP12 ADD MLOAD PUSH1 0x1 PUSH1 0xA0 PUSH1 0x2 EXP SUB AND PUSH1 0x20 DUP3 ADD MSTORE PUSH1 0x40 ADD DUP5 PUSH1 0x1 DUP2 GT ISZERO PUSH2 0x16E6 JUMPI INVALID JUMPDEST DUP2 MSTORE PUSH1 0xA0 DUP1 DUP13 ADD MLOAD PUSH1 0x1 PUSH1 0xA0 PUSH1 0x2 EXP SUB AND PUSH1 0x20 DUP4 ADD MSTORE PUSH1 0x80 DUP12 DUP2 ADD MLOAD PUSH1 0x40 DUP5 ADD MSTORE DUP12 DUP3 ADD MLOAD PUSH1 0x60 DUP5 ADD MSTORE PUSH1 0xC0 DUP1 DUP14 ADD MLOAD SWAP2 DUP5 ADD SWAP2 SWAP1 SWAP2 MSTORE PUSH1 0xE0 DUP13 ADD MLOAD SWAP2 DUP4 ADD SWAP2 SWAP1 SWAP2 MSTORE PUSH2 0x100 DUP12 ADD MLOAD SWAP2 ADD MSTORE DUP3 PUSH2 0x3625 JUMP JUMPDEST POP POP POP POP POP POP POP POP JUMP JUMPDEST PUSH1 0x0 PUSH2 0x1752 DUP8 DUP8 DUP8 DUP8 DUP8 DUP8 PUSH2 0x3692 JUMP JUMPDEST SWAP8 SWAP7 POP POP POP POP POP POP POP JUMP JUMPDEST PUSH1 0x9 SLOAD PUSH1 0x1 PUSH1 0xA0 PUSH1 0x2 EXP SUB AND DUP2 JUMP JUMPDEST PUSH1 0x0 SLOAD PUSH2 0x100 SWAP1 DIV PUSH1 0x1 PUSH1 0xA0 PUSH1 0x2 EXP SUB AND CALLER EQ PUSH2 0x1788 JUMPI PUSH1 0x0 DUP1 REVERT JUMPDEST PUSH1 0xF SLOAD ISZERO ISZERO PUSH2 0x17E1 JUMPI PUSH1 0x40 DUP1 MLOAD PUSH1 0xE5 PUSH1 0x2 EXP PUSH3 0x461BCD MUL DUP2 MSTORE PUSH1 0x20 PUSH1 0x4 DUP3 ADD MSTORE PUSH1 0x1D PUSH1 0x24 DUP3 ADD MSTORE PUSH32 0x506C614E46543A205F72656C6179536574466565206E6F742063616C6C000000 PUSH1 0x44 DUP3 ADD MSTORE SWAP1 MLOAD SWAP1 DUP2 SWAP1 SUB PUSH1 0x64 ADD SWAP1 REVERT JUMPDEST PUSH1 0xB SLOAD DUP2 EQ PUSH2 0x1860 JUMPI PUSH1 0x40 DUP1 MLOAD PUSH1 0xE5 PUSH1 0x2 EXP PUSH3 0x461BCD MUL DUP2 MSTORE PUSH1 0x20 PUSH1 0x4 DUP3 ADD MSTORE PUSH1 0x30 PUSH1 0x24 DUP3 ADD MSTORE PUSH32 0x506C614E46543A205F72656C617945786368616E6765466565206E6F74206571 PUSH1 0x44 DUP3 ADD MSTORE PUSH32 0x75616C2065786368616E67654665655F00000000000000000000000000000000 PUSH1 0x64 DUP3 ADD MSTORE SWAP1 MLOAD SWAP1 DUP2 SWAP1 SUB PUSH1 0x84 ADD SWAP1 REVERT JUMPDEST PUSH1 0xE SLOAD PUSH1 0xF SLOAD TIMESTAMP SWAP2 ADD GT ISZERO PUSH2 0x18E5 JUMPI PUSH1 0x40 DUP1 MLOAD PUSH1 0xE5 PUSH1 0x2 EXP PUSH3 0x461BCD MUL DUP2 MSTORE PUSH1 0x20 PUSH1 0x4 DUP3 ADD MSTORE PUSH1 0x25 PUSH1 0x24 DUP3 ADD MSTORE PUSH32 0x506C615F544E46543A205F64656C617953657446656554696D65206E6F742061 PUSH1 0x44 DUP3 ADD MSTORE PUSH32 0x7272697665000000000000000000000000000000000000000000000000000000 PUSH1 0x64 DUP3 ADD MSTORE SWAP1 MLOAD SWAP1 DUP2 SWAP1 SUB PUSH1 0x84 ADD SWAP1 REVERT JUMPDEST PUSH1 0x0 PUSH1 0xF SSTORE PUSH1 0xA DUP2 SWAP1 SSTORE PUSH1 0x40 DUP1 MLOAD CALLER DUP2 MSTORE PUSH1 0x20 DUP2 ADD DUP4 SWAP1 MSTORE DUP2 MLOAD PUSH32 0x1FE2943BAEE27F47ADD82886C2200F910C749C461C9B63C5FE83901A53BDB49 SWAP3 SWAP2 DUP2 SWAP1 SUB SWAP1 SWAP2 ADD SWAP1 LOG1 POP JUMP JUMPDEST PUSH1 0x0 SLOAD PUSH2 0x100 SWAP1 DIV PUSH1 0x1 PUSH1 0xA0 PUSH1 0x2 EXP SUB AND CALLER EQ PUSH2 0x1949 JUMPI PUSH1 0x0 DUP1 REVERT JUMPDEST PUSH1 0x0 DUP1 SLOAD PUSH1 0x40 MLOAD PUSH2 0x100 SWAP1 SWAP2 DIV PUSH1 0x1 PUSH1 0xA0 PUSH1 0x2 EXP SUB AND SWAP2 PUSH32 0xF8DF31144D9C2F0F6B59D69B8B98ABD5459D07F2742C4DF920B25AAE33C64820 SWAP2 LOG2 PUSH1 0x0 DUP1 SLOAD PUSH21 0xFFFFFFFFFFFFFFFFFFFFFFFFFFFFFFFFFFFFFFFF00 NOT AND SWAP1 SSTORE JUMP JUMPDEST PUSH1 0x2 SLOAD PUSH1 0x1 PUSH1 0xA0 PUSH1 0x2 EXP SUB AND DUP2 JUMP JUMPDEST PUSH1 0x7 SLOAD DUP2 JUMP JUMPDEST PUSH1 0x10 SLOAD DUP2 JUMP JUMPDEST PUSH1 0x4 PUSH1 0x20 MSTORE PUSH1 0x0 SWAP1 DUP2 MSTORE PUSH1 0x40 SWAP1 KECCAK256 SLOAD PUSH1 0xFF AND DUP2 JUMP JUMPDEST PUSH1 0x0 PUSH2 0x19DD PUSH2 0x44E0 JUMP JUMPDEST PUSH2 0x19E5 PUSH2 0x44E0 JUMP JUMPDEST PUSH1 0x40 DUP1 MLOAD PUSH2 0x280 DUP2 ADD DUP3 MSTORE DUP8 MLOAD PUSH1 0x1 PUSH1 0xA0 PUSH1 0x2 EXP SUB SWAP1 DUP2 AND DUP3 MSTORE PUSH1 0x20 DUP1 DUP11 ADD MLOAD DUP3 AND DUP2 DUP5 ADD MSTORE DUP10 DUP5 ADD MLOAD DUP3 AND DUP4 DUP6 ADD MSTORE DUP9 MLOAD PUSH1 0x60 DUP1 DUP6 ADD SWAP2 SWAP1 SWAP2 MSTORE SWAP1 DUP10 ADD MLOAD PUSH1 0x80 DUP5 ADD MSTORE SWAP3 DUP9 ADD MLOAD PUSH1 0xA0 DUP4 ADD MSTORE DUP8 DUP4 ADD MLOAD PUSH1 0xC0 DUP4 ADD MSTORE SWAP2 DUP9 ADD MLOAD SWAP1 SWAP2 AND PUSH1 0xE0 DUP3 ADD MSTORE DUP5 MLOAD PUSH2 0x100 DUP3 ADD SWAP1 PUSH1 0xFF AND PUSH1 0x1 DUP2 GT ISZERO PUSH2 0x1A5D JUMPI INVALID JUMPDEST PUSH1 0x1 DUP2 GT ISZERO PUSH2 0x1A68 JUMPI INVALID JUMPDEST DUP2 MSTORE PUSH1 0x20 ADD DUP6 PUSH1 0x1 PUSH1 0x20 MUL ADD MLOAD PUSH1 0xFF AND PUSH1 0x1 DUP2 GT ISZERO PUSH2 0x1A83 JUMPI INVALID JUMPDEST PUSH1 0x1 DUP2 GT ISZERO PUSH2 0x1A8E JUMPI INVALID JUMPDEST DUP2 MSTORE PUSH1 0x20 ADD DUP6 PUSH1 0x2 PUSH1 0x20 MUL ADD MLOAD PUSH1 0xFF AND PUSH1 0x1 DUP2 GT ISZERO PUSH2 0x1AA9 JUMPI INVALID JUMPDEST PUSH1 0x1 DUP2 GT ISZERO PUSH2 0x1AB4 JUMPI INVALID JUMPDEST DUP2 MSTORE PUSH1 0x20 ADD DUP6 PUSH1 0x3 PUSH1 0x20 MUL ADD MLOAD PUSH1 0xFF AND PUSH1 0x1 DUP2 GT ISZERO PUSH2 0x1ACF JUMPI INVALID JUMPDEST PUSH1 0x1 DUP2 GT ISZERO PUSH2 0x1ADA JUMPI INVALID JUMPDEST DUP2 MSTORE PUSH1 0x80 DUP1 DUP10 ADD MLOAD PUSH1 0x1 PUSH1 0xA0 PUSH1 0x2 EXP SUB AND PUSH1 0x20 DUP4 ADD MSTORE DUP7 ADD MLOAD PUSH1 0x40 SWAP1 SWAP2 ADD SWAP1 PUSH1 0xFF AND PUSH1 0x1 DUP2 GT ISZERO PUSH2 0x1B07 JUMPI INVALID JUMPDEST PUSH1 0x1 DUP2 GT ISZERO PUSH2 0x1B12 JUMPI INVALID JUMPDEST DUP2 MSTORE PUSH1 0x20 ADD DUP8 PUSH1 0x5 PUSH1 0x20 SWAP1 DUP2 MUL SWAP2 SWAP1 SWAP2 ADD MLOAD PUSH1 0x1 PUSH1 0xA0 PUSH1 0x2 EXP SUB AND DUP3 MSTORE ADD DUP7 PUSH1 0x4 PUSH1 0x20 SWAP1 DUP2 MUL SWAP2 SWAP1 SWAP2 ADD MLOAD DUP3 MSTORE ADD DUP7 PUSH1 0x5 PUSH1 0x20 SWAP1 DUP2 MUL SWAP2 SWAP1 SWAP2 ADD MLOAD DUP3 MSTORE ADD DUP7 PUSH1 0x6 PUSH1 0x20 SWAP1 DUP2 MUL SWAP2 SWAP1 SWAP2 ADD MLOAD DUP3 MSTORE ADD DUP7 PUSH1 0x7 PUSH1 0x20 SWAP1 DUP2 MUL SWAP2 SWAP1 SWAP2 ADD MLOAD DUP3 MSTORE ADD DUP7 PUSH1 0x8 PUSH1 0x20 MUL ADD MLOAD SWAP1 MSTORE PUSH1 0x40 DUP1 MLOAD PUSH2 0x280 DUP2 ADD SWAP1 SWAP2 MSTORE SWAP1 SWAP3 POP DUP1 DUP8 PUSH1 0x6 PUSH1 0x20 SWAP1 DUP2 MUL SWAP2 SWAP1 SWAP2 ADD MLOAD PUSH1 0x1 PUSH1 0xA0 PUSH1 0x2 EXP SUB AND DUP3 MSTORE ADD DUP8 PUSH1 0x7 PUSH1 0x20 SWAP1 DUP2 MUL SWAP2 SWAP1 SWAP2 ADD MLOAD PUSH1 0x1 PUSH1 0xA0 PUSH1 0x2 EXP SUB AND DUP3 MSTORE ADD DUP8 PUSH1 0x8 PUSH1 0x20 SWAP1 DUP2 MUL SWAP2 SWAP1 SWAP2 ADD MLOAD PUSH1 0x1 PUSH1 0xA0 PUSH1 0x2 EXP SUB AND DUP3 MSTORE ADD DUP7 PUSH1 0x9 PUSH1 0x20 SWAP1 DUP2 MUL SWAP2 SWAP1 SWAP2 ADD MLOAD DUP3 MSTORE ADD DUP7 PUSH1 0xA PUSH1 0x20 SWAP1 DUP2 MUL SWAP2 SWAP1 SWAP2 ADD MLOAD DUP3 MSTORE ADD DUP7 PUSH1 0xB PUSH1 0x20 SWAP1 DUP2 MUL SWAP2 SWAP1 SWAP2 ADD MLOAD DUP3 MSTORE ADD DUP7 PUSH1 0xC PUSH1 0x20 SWAP1 DUP2 MUL SWAP2 SWAP1 SWAP2 ADD MLOAD DUP3 MSTORE ADD DUP8 PUSH1 0x9 PUSH1 0x20 SWAP1 DUP2 MUL SWAP2 SWAP1 SWAP2 ADD MLOAD PUSH1 0x1 PUSH1 0xA0 PUSH1 0x2 EXP SUB AND DUP3 MSTORE ADD DUP6 PUSH1 0x5 PUSH1 0x20 MUL ADD MLOAD PUSH1 0xFF AND PUSH1 0x1 DUP2 GT ISZERO PUSH2 0x1C44 JUMPI INVALID JUMPDEST PUSH1 0x1 DUP2 GT ISZERO PUSH2 0x1C4F JUMPI INVALID JUMPDEST DUP2 MSTORE PUSH1 0x20 ADD DUP6 PUSH1 0x6 PUSH1 0x20 MUL ADD MLOAD PUSH1 0xFF AND PUSH1 0x1 DUP2 GT ISZERO PUSH2 0x1C6A JUMPI INVALID JUMPDEST PUSH1 0x1 DUP2 GT ISZERO PUSH2 0x1C75 JUMPI INVALID JUMPDEST DUP2 MSTORE PUSH1 0x20 ADD DUP6 PUSH1 0x7 PUSH1 0x20 MUL ADD MLOAD PUSH1 0xFF AND PUSH1 0x1 DUP2 GT ISZERO PUSH2 0x1C90 JUMPI INVALID JUMPDEST PUSH1 0x1 DUP2 GT ISZERO PUSH2 0x1C9B JUMPI INVALID JUMPDEST DUP2 MSTORE PUSH1 0x20 ADD DUP6 PUSH1 0x8 PUSH1 0x20 MUL ADD MLOAD PUSH1 0xFF AND PUSH1 0x1 DUP2 GT ISZERO PUSH2 0x1CB6 JUMPI INVALID JUMPDEST PUSH1 0x1 DUP2 GT ISZERO PUSH2 0x1CC1 JUMPI INVALID JUMPDEST DUP2 MSTORE PUSH2 0x140 DUP9 ADD MLOAD PUSH1 0x1 PUSH1 0xA0 PUSH1 0x2 EXP SUB AND PUSH1 0x20 DUP3 ADD MSTORE PUSH2 0x120 DUP7 ADD MLOAD PUSH1 0x40 SWAP1 SWAP2 ADD SWAP1 PUSH1 0xFF AND PUSH1 0x1 DUP2 GT ISZERO PUSH2 0x1CF1 JUMPI INVALID JUMPDEST PUSH1 0x1 DUP2 GT ISZERO PUSH2 0x1CFC JUMPI INVALID JUMPDEST DUP2 MSTORE PUSH1 0x20 DUP9 DUP2 ADD MLOAD PUSH1 0x1 PUSH1 0xA0 PUSH1 0x2 EXP SUB AND SWAP1 DUP3 ADD MSTORE PUSH2 0x1A0 DUP8 ADD MLOAD PUSH1 0x40 DUP3 ADD MSTORE PUSH2 0x1C0 DUP8 ADD MLOAD PUSH1 0x60 DUP3 ADD MSTORE PUSH2 0x1E0 DUP8 ADD MLOAD PUSH1 0x80 DUP3 ADD MSTORE PUSH2 0x200 DUP8 ADD MLOAD PUSH1 0xA0 DUP3 ADD MSTORE PUSH2 0x220 DUP8 ADD MLOAD PUSH1 0xC0 SWAP1 SWAP2 ADD MSTORE SWAP1 POP PUSH2 0x1D55 DUP3 DUP3 PUSH2 0x3725 JUMP JUMPDEST SWAP7 SWAP6 POP POP POP POP POP POP JUMP JUMPDEST PUSH1 0x0 SLOAD PUSH2 0x100 SWAP1 DIV PUSH1 0x1 PUSH1 0xA0 PUSH1 0x2 EXP SUB AND CALLER EQ PUSH2 0x1D7B JUMPI PUSH1 0x0 DUP1 REVERT JUMPDEST TIMESTAMP PUSH1 0x11 DUP2 SWAP1 SSTORE PUSH1 0xD DUP1 SLOAD PUSH20 0xFFFFFFFFFFFFFFFFFFFFFFFFFFFFFFFFFFFFFFFF NOT AND PUSH1 0x1 PUSH1 0xA0 PUSH1 0x2 EXP SUB DUP5 DUP2 AND SWAP2 SWAP1 SWAP2 OR SWAP2 DUP3 SWAP1 SSTORE PUSH1 0x40 DUP1 MLOAD CALLER DUP2 MSTORE SWAP3 SWAP1 SWAP2 AND PUSH1 0x20 DUP4 ADD MSTORE DUP2 DUP2 ADD SWAP3 SWAP1 SWAP3 MSTORE SWAP1 MLOAD PUSH32 0x41B9BF56A41F7160677B991BB03FCD599356E239D488C4ECF1DD083FE2DF28BD SWAP2 PUSH1 0x60 SWAP1 DUP3 SWAP1 SUB ADD SWAP1 LOG1 POP JUMP JUMPDEST PUSH1 0x0 SLOAD PUSH2 0x100 SWAP1 DIV PUSH1 0x1 PUSH1 0xA0 PUSH1 0x2 EXP SUB AND DUP2 JUMP JUMPDEST PUSH1 0x40 DUP1 MLOAD PUSH2 0x280 DUP2 ADD DUP3 MSTORE DUP9 MLOAD PUSH1 0x1 PUSH1 0xA0 PUSH1 0x2 EXP SUB SWAP1 DUP2 AND DUP3 MSTORE PUSH1 0x20 DUP1 DUP12 ADD MLOAD DUP3 AND DUP2 DUP5 ADD MSTORE DUP11 DUP5 ADD MLOAD DUP3 AND DUP4 DUP6 ADD MSTORE DUP10 MLOAD PUSH1 0x60 DUP1 DUP6 ADD SWAP2 SWAP1 SWAP2 MSTORE SWAP1 DUP11 ADD MLOAD PUSH1 0x80 DUP5 ADD MSTORE SWAP3 DUP10 ADD MLOAD PUSH1 0xA0 DUP4 ADD MSTORE DUP9 DUP4 ADD MLOAD PUSH1 0xC0 DUP4 ADD MSTORE SWAP2 DUP10 ADD MLOAD SWAP1 SWAP2 AND PUSH1 0xE0 DUP3 ADD MSTORE PUSH1 0x0 SWAP1 PUSH2 0x1F2C SWAP1 PUSH2 0x100 DUP2 ADD DUP9 PUSH1 0x1 DUP2 GT ISZERO PUSH2 0x1E84 JUMPI INVALID JUMPDEST DUP2 MSTORE PUSH1 0x20 ADD DUP8 PUSH1 0x1 DUP2 GT ISZERO PUSH2 0x1E95 JUMPI INVALID JUMPDEST DUP2 MSTORE PUSH1 0x20 ADD DUP7 PUSH1 0x1 DUP2 GT ISZERO PUSH2 0x1EA6 JUMPI INVALID JUMPDEST DUP2 MSTORE PUSH1 0x20 ADD DUP6 PUSH1 0x1 DUP2 GT ISZERO PUSH2 0x1EB7 JUMPI INVALID JUMPDEST DUP2 MSTORE PUSH1 0x80 DUP12 ADD MLOAD PUSH1 0x1 PUSH1 0xA0 PUSH1 0x2 EXP SUB AND PUSH1 0x20 DUP3 ADD MSTORE PUSH1 0x40 ADD DUP5 PUSH1 0x1 DUP2 GT ISZERO PUSH2 0x1EDB JUMPI INVALID JUMPDEST DUP2 MSTORE PUSH1 0xA0 DUP1 DUP13 ADD MLOAD PUSH1 0x1 PUSH1 0xA0 PUSH1 0x2 EXP SUB AND PUSH1 0x20 DUP4 ADD MSTORE PUSH1 0x80 DUP12 DUP2 ADD MLOAD PUSH1 0x40 DUP5 ADD MSTORE DUP12 DUP3 ADD MLOAD PUSH1 0x60 DUP5 ADD MSTORE PUSH1 0xC0 DUP1 DUP14 ADD MLOAD SWAP2 DUP5 ADD SWAP2 SWAP1 SWAP2 MSTORE PUSH1 0xE0 DUP13 ADD MLOAD SWAP2 DUP4 ADD SWAP2 SWAP1 SWAP2 MSTORE PUSH2 0x100 DUP12 ADD MLOAD SWAP2 ADD MSTORE PUSH2 0x3933 JUMP JUMPDEST SWAP9 SWAP8 POP POP POP POP POP POP POP POP JUMP JUMPDEST PUSH1 0x1 SLOAD PUSH1 0x1 PUSH1 0xA0 PUSH1 0x2 EXP SUB AND DUP2 JUMP JUMPDEST PUSH1 0x40 DUP1 MLOAD PUSH2 0x280 DUP2 ADD DUP3 MSTORE DUP10 MLOAD PUSH1 0x1 PUSH1 0xA0 PUSH1 0x2 EXP SUB SWAP1 DUP2 AND DUP3 MSTORE PUSH1 0x20 DUP1 DUP13 ADD MLOAD DUP3 AND DUP2 DUP5 ADD MSTORE DUP12 DUP5 ADD MLOAD DUP3 AND DUP4 DUP6 ADD MSTORE DUP11 MLOAD PUSH1 0x60 DUP1 DUP6 ADD SWAP2 SWAP1 SWAP2 MSTORE SWAP1 DUP12 ADD MLOAD PUSH1 0x80 DUP5 ADD MSTORE SWAP3 DUP11 ADD MLOAD PUSH1 0xA0 DUP4 ADD MSTORE DUP10 DUP4 ADD MLOAD PUSH1 0xC0 DUP4 ADD MSTORE SWAP2 DUP11 ADD MLOAD SWAP1 SWAP2 AND PUSH1 0xE0 DUP3 ADD MSTORE PUSH1 0x0 SWAP1 PUSH2 0x1308 SWAP1 PUSH2 0x100 DUP2 ADD DUP10 PUSH1 0x1 DUP2 GT ISZERO PUSH2 0x1FC1 JUMPI INVALID JUMPDEST DUP2 MSTORE PUSH1 0x20 ADD DUP9 PUSH1 0x1 DUP2 GT ISZERO PUSH2 0x1FD2 JUMPI INVALID JUMPDEST DUP2 MSTORE PUSH1 0x20 ADD DUP8 PUSH1 0x1 DUP2 GT ISZERO PUSH2 0x1FE3 JUMPI INVALID JUMPDEST DUP2 MSTORE PUSH1 0x20 ADD DUP7 PUSH1 0x1 DUP2 GT ISZERO PUSH2 0x1FF4 JUMPI INVALID JUMPDEST DUP2 MSTORE PUSH1 0x80 DUP13 ADD MLOAD PUSH1 0x1 PUSH1 0xA0 PUSH1 0x2 EXP SUB AND PUSH1 0x20 DUP3 ADD MSTORE PUSH1 0x40 ADD DUP6 PUSH1 0x1 DUP2 GT ISZERO PUSH2 0x2018 JUMPI INVALID JUMPDEST DUP2 MSTORE PUSH1 0xA0 DUP1 DUP14 ADD MLOAD PUSH1 0x1 PUSH1 0xA0 PUSH1 0x2 EXP SUB AND PUSH1 0x20 DUP4 ADD MSTORE PUSH1 0x80 DUP13 DUP2 ADD MLOAD PUSH1 0x40 DUP5 ADD MSTORE DUP13 DUP3 ADD MLOAD PUSH1 0x60 DUP5 ADD MSTORE PUSH1 0xC0 DUP1 DUP15 ADD MLOAD SWAP2 DUP5 ADD SWAP2 SWAP1 SWAP2 MSTORE PUSH1 0xE0 DUP14 ADD MLOAD SWAP2 DUP4 ADD SWAP2 SWAP1 SWAP2 MSTORE PUSH2 0x100 DUP13 ADD MLOAD SWAP2 ADD MSTORE DUP4 PUSH2 0x3961 JUMP JUMPDEST PUSH1 0xC SLOAD PUSH1 0x1 PUSH1 0xA0 PUSH1 0x2 EXP SUB AND DUP2 JUMP JUMPDEST PUSH1 0xA SLOAD DUP2 JUMP JUMPDEST PUSH2 0x2710 DUP2 JUMP JUMPDEST PUSH1 0x0 PUSH2 0x208F PUSH2 0x44E0 JUMP JUMPDEST PUSH2 0x2097 PUSH2 0x44E0 JUMP JUMPDEST PUSH1 0x40 DUP1 MLOAD PUSH2 0x280 DUP2 ADD DUP3 MSTORE DUP8 MLOAD PUSH1 0x1 PUSH1 0xA0 PUSH1 0x2 EXP SUB SWAP1 DUP2 AND DUP3 MSTORE PUSH1 0x20 DUP1 DUP11 ADD MLOAD DUP3 AND DUP2 DUP5 ADD MSTORE DUP10 DUP5 ADD MLOAD DUP3 AND DUP4 DUP6 ADD MSTORE DUP9 MLOAD PUSH1 0x60 DUP1 DUP6 ADD SWAP2 SWAP1 SWAP2 MSTORE SWAP1 DUP10 ADD MLOAD PUSH1 0x80 DUP5 ADD MSTORE SWAP3 DUP9 ADD MLOAD PUSH1 0xA0 DUP4 ADD MSTORE DUP8 DUP4 ADD MLOAD PUSH1 0xC0 DUP4 ADD MSTORE SWAP2 DUP9 ADD MLOAD SWAP1 SWAP2 AND PUSH1 0xE0 DUP3 ADD MSTORE DUP5 MLOAD PUSH2 0x100 DUP3 ADD SWAP1 PUSH1 0xFF AND PUSH1 0x1 DUP2 GT ISZERO PUSH2 0x210F JUMPI INVALID JUMPDEST PUSH1 0x1 DUP2 GT ISZERO PUSH2 0x211A JUMPI INVALID JUMPDEST DUP2 MSTORE PUSH1 0x20 ADD DUP6 PUSH1 0x1 PUSH1 0x20 MUL ADD MLOAD PUSH1 0xFF AND PUSH1 0x1 DUP2 GT ISZERO PUSH2 0x2135 JUMPI INVALID JUMPDEST PUSH1 0x1 DUP2 GT ISZERO PUSH2 0x2140 JUMPI INVALID JUMPDEST DUP2 MSTORE PUSH1 0x20 ADD DUP6 PUSH1 0x2 PUSH1 0x20 MUL ADD MLOAD PUSH1 0xFF AND PUSH1 0x1 DUP2 GT ISZERO PUSH2 0x215B JUMPI INVALID JUMPDEST PUSH1 0x1 DUP2 GT ISZERO PUSH2 0x2166 JUMPI INVALID JUMPDEST DUP2 MSTORE PUSH1 0x20 ADD DUP6 PUSH1 0x3 PUSH1 0x20 MUL ADD MLOAD PUSH1 0xFF AND PUSH1 0x1 DUP2 GT ISZERO PUSH2 0x2181 JUMPI INVALID JUMPDEST PUSH1 0x1 DUP2 GT ISZERO PUSH2 0x218C JUMPI INVALID JUMPDEST DUP2 MSTORE PUSH1 0x80 DUP1 DUP10 ADD MLOAD PUSH1 0x1 PUSH1 0xA0 PUSH1 0x2 EXP SUB AND PUSH1 0x20 DUP4 ADD MSTORE DUP7 ADD MLOAD PUSH1 0x40 SWAP1 SWAP2 ADD SWAP1 PUSH1 0xFF AND PUSH1 0x1 DUP2 GT ISZERO PUSH2 0x21B9 JUMPI INVALID JUMPDEST PUSH1 0x1 DUP2 GT ISZERO PUSH2 0x21C4 JUMPI INVALID JUMPDEST DUP2 MSTORE PUSH1 0x20 ADD DUP8 PUSH1 0x5 PUSH1 0x20 SWAP1 DUP2 MUL SWAP2 SWAP1 SWAP2 ADD MLOAD PUSH1 0x1 PUSH1 0xA0 PUSH1 0x2 EXP SUB AND DUP3 MSTORE ADD DUP7 PUSH1 0x4 PUSH1 0x20 SWAP1 DUP2 MUL SWAP2 SWAP1 SWAP2 ADD MLOAD DUP3 MSTORE ADD DUP7 PUSH1 0x5 PUSH1 0x20 SWAP1 DUP2 MUL SWAP2 SWAP1 SWAP2 ADD MLOAD DUP3 MSTORE ADD DUP7 PUSH1 0x6 PUSH1 0x20 SWAP1 DUP2 MUL SWAP2 SWAP1 SWAP2 ADD MLOAD DUP3 MSTORE ADD DUP7 PUSH1 0x7 PUSH1 0x20 SWAP1 DUP2 MUL SWAP2 SWAP1 SWAP2 ADD MLOAD DUP3 MSTORE ADD DUP7 PUSH1 0x8 PUSH1 0x20 MUL ADD MLOAD SWAP1 MSTORE PUSH1 0x40 DUP1 MLOAD PUSH2 0x280 DUP2 ADD SWAP1 SWAP2 MSTORE SWAP1 SWAP3 POP DUP1 DUP8 PUSH1 0x6 PUSH1 0x20 SWAP1 DUP2 MUL SWAP2 SWAP1 SWAP2 ADD MLOAD PUSH1 0x1 PUSH1 0xA0 PUSH1 0x2 EXP SUB AND DUP3 MSTORE ADD DUP8 PUSH1 0x7 PUSH1 0x20 SWAP1 DUP2 MUL SWAP2 SWAP1 SWAP2 ADD MLOAD PUSH1 0x1 PUSH1 0xA0 PUSH1 0x2 EXP SUB AND DUP3 MSTORE ADD DUP8 PUSH1 0x8 PUSH1 0x20 SWAP1 DUP2 MUL SWAP2 SWAP1 SWAP2 ADD MLOAD PUSH1 0x1 PUSH1 0xA0 PUSH1 0x2 EXP SUB AND DUP3 MSTORE ADD DUP7 PUSH1 0x9 PUSH1 0x20 SWAP1 DUP2 MUL SWAP2 SWAP1 SWAP2 ADD MLOAD DUP3 MSTORE ADD DUP7 PUSH1 0xA PUSH1 0x20 SWAP1 DUP2 MUL SWAP2 SWAP1 SWAP2 ADD MLOAD DUP3 MSTORE ADD DUP7 PUSH1 0xB PUSH1 0x20 SWAP1 DUP2 MUL SWAP2 SWAP1 SWAP2 ADD MLOAD DUP3 MSTORE ADD DUP7 PUSH1 0xC PUSH1 0x20 SWAP1 DUP2 MUL SWAP2 SWAP1 SWAP2 ADD MLOAD DUP3 MSTORE ADD DUP8 PUSH1 0x9 PUSH1 0x20 SWAP1 DUP2 MUL SWAP2 SWAP1 SWAP2 ADD MLOAD PUSH1 0x1 PUSH1 0xA0 PUSH1 0x2 EXP SUB AND DUP3 MSTORE ADD DUP6 PUSH1 0x5 PUSH1 0x20 MUL ADD MLOAD PUSH1 0xFF AND PUSH1 0x1 DUP2 GT ISZERO PUSH2 0x22F6 JUMPI INVALID JUMPDEST PUSH1 0x1 DUP2 GT ISZERO PUSH2 0x2301 JUMPI INVALID JUMPDEST DUP2 MSTORE PUSH1 0x20 ADD DUP6 PUSH1 0x6 PUSH1 0x20 MUL ADD MLOAD PUSH1 0xFF AND PUSH1 0x1 DUP2 GT ISZERO PUSH2 0x231C JUMPI INVALID JUMPDEST PUSH1 0x1 DUP2 GT ISZERO PUSH2 0x2327 JUMPI INVALID JUMPDEST DUP2 MSTORE PUSH1 0x20 ADD DUP6 PUSH1 0x7 PUSH1 0x20 MUL ADD MLOAD PUSH1 0xFF AND PUSH1 0x1 DUP2 GT ISZERO PUSH2 0x2342 JUMPI INVALID JUMPDEST PUSH1 0x1 DUP2 GT ISZERO PUSH2 0x234D JUMPI INVALID JUMPDEST DUP2 MSTORE PUSH1 0x20 ADD DUP6 PUSH1 0x8 PUSH1 0x20 MUL ADD MLOAD PUSH1 0xFF AND PUSH1 0x1 DUP2 GT ISZERO PUSH2 0x2368 JUMPI INVALID JUMPDEST PUSH1 0x1 DUP2 GT ISZERO PUSH2 0x2373 JUMPI INVALID JUMPDEST DUP2 MSTORE PUSH2 0x140 DUP9 ADD MLOAD PUSH1 0x1 PUSH1 0xA0 PUSH1 0x2 EXP SUB AND PUSH1 0x20 DUP3 ADD MSTORE PUSH2 0x120 DUP7 ADD MLOAD PUSH1 0x40 SWAP1 SWAP2 ADD SWAP1 PUSH1 0xFF AND PUSH1 0x1 DUP2 GT ISZERO PUSH2 0x23A3 JUMPI INVALID JUMPDEST PUSH1 0x1 DUP2 GT ISZERO PUSH2 0x23AE JUMPI INVALID JUMPDEST DUP2 MSTORE PUSH1 0x20 DUP9 DUP2 ADD MLOAD PUSH1 0x1 PUSH1 0xA0 PUSH1 0x2 EXP SUB AND SWAP1 DUP3 ADD MSTORE PUSH2 0x1A0 DUP8 ADD MLOAD PUSH1 0x40 DUP3 ADD MSTORE PUSH2 0x1C0 DUP8 ADD MLOAD PUSH1 0x60 DUP3 ADD MSTORE PUSH2 0x1E0 DUP8 ADD MLOAD PUSH1 0x80 DUP3 ADD MSTORE PUSH2 0x200 DUP8 ADD MLOAD PUSH1 0xA0 DUP3 ADD MSTORE PUSH2 0x220 DUP8 ADD MLOAD PUSH1 0xC0 SWAP1 SWAP2 ADD MSTORE SWAP1 POP PUSH2 0x1D55 DUP3 DUP3 PUSH2 0x39AE JUMP JUMPDEST PUSH1 0x0 SLOAD PUSH2 0x100 SWAP1 DIV PUSH1 0x1 PUSH1 0xA0 PUSH1 0x2 EXP SUB AND CALLER EQ PUSH2 0x2423 JUMPI PUSH1 0x0 DUP1 REVERT JUMPDEST TIMESTAMP PUSH1 0xF DUP2 SWAP1 SSTORE PUSH1 0xB DUP3 SWAP1 SSTORE PUSH1 0x40 DUP1 MLOAD CALLER DUP2 MSTORE PUSH1 0x20 DUP2 ADD DUP5 SWAP1 MSTORE DUP1 DUP3 ADD SWAP3 SWAP1 SWAP3 MSTORE MLOAD PUSH32 0xAD6B6A1532B4C7D7A4A30501132D072EA2994194EF0FAF631E0AE718ECF1F732 SWAP2 DUP2 SWAP1 SUB PUSH1 0x60 ADD SWAP1 LOG1 POP JUMP JUMPDEST PUSH1 0xB SLOAD DUP2 JUMP JUMPDEST PUSH1 0x5 PUSH1 0x20 MSTORE PUSH1 0x0 SWAP1 DUP2 MSTORE PUSH1 0x40 SWAP1 KECCAK256 SLOAD PUSH1 0xFF AND DUP2 JUMP JUMPDEST PUSH1 0x0 SLOAD PUSH2 0x100 SWAP1 DIV PUSH1 0x1 PUSH1 0xA0 PUSH1 0x2 EXP SUB AND CALLER EQ PUSH2 0x24A8 JUMPI PUSH1 0x0 DUP1 REVERT JUMPDEST PUSH1 0x11 SLOAD ISZERO ISZERO PUSH2 0x2501 JUMPI PUSH1 0x40 DUP1 MLOAD PUSH1 0xE5 PUSH1 0x2 EXP PUSH3 0x461BCD MUL DUP2 MSTORE PUSH1 0x20 PUSH1 0x4 DUP3 ADD MSTORE PUSH1 0x1D PUSH1 0x24 DUP3 ADD MSTORE PUSH32 0x506C614E46543A205F72656C6179536574466565206E6F742063616C6C000000 PUSH1 0x44 DUP3 ADD MSTORE SWAP1 MLOAD SWAP1 DUP2 SWAP1 SUB PUSH1 0x64 ADD SWAP1 REVERT JUMPDEST PUSH1 0xD SLOAD PUSH1 0x1 PUSH1 0xA0 PUSH1 0x2 EXP SUB DUP3 DUP2 AND SWAP2 AND EQ PUSH2 0x258C JUMPI PUSH1 0x40 DUP1 MLOAD PUSH1 0xE5 PUSH1 0x2 EXP PUSH3 0x461BCD MUL DUP2 MSTORE PUSH1 0x20 PUSH1 0x4 DUP3 ADD MSTORE PUSH1 0x3E PUSH1 0x24 DUP3 ADD MSTORE PUSH32 0x506C614E46543A205F72656C6179526577617264466565526563697069656E74 PUSH1 0x44 DUP3 ADD MSTORE PUSH32 0x206E6F7420657175616C20726577617264466565526563697069656E745F0000 PUSH1 0x64 DUP3 ADD MSTORE SWAP1 MLOAD SWAP1 DUP2 SWAP1 SUB PUSH1 0x84 ADD SWAP1 REVERT JUMPDEST PUSH1 0x10 SLOAD PUSH1 0x11 SLOAD TIMESTAMP SWAP2 ADD GT ISZERO PUSH2 0x2611 JUMPI PUSH1 0x40 DUP1 MLOAD PUSH1 0xE5 PUSH1 0x2 EXP PUSH3 0x461BCD MUL DUP2 MSTORE PUSH1 0x20 PUSH1 0x4 DUP3 ADD MSTORE PUSH1 0x25 PUSH1 0x24 DUP3 ADD MSTORE PUSH32 0x506C615F544E46543A205F64656C617953657446656554696D65206E6F742061 PUSH1 0x44 DUP3 ADD MSTORE PUSH32 0x7272697665000000000000000000000000000000000000000000000000000000 PUSH1 0x64 DUP3 ADD MSTORE SWAP1 MLOAD SWAP1 DUP2 SWAP1 SUB PUSH1 0x84 ADD SWAP1 REVERT JUMPDEST PUSH1 0x0 PUSH1 0x11 SSTORE PUSH1 0xC DUP1 SLOAD PUSH20 0xFFFFFFFFFFFFFFFFFFFFFFFFFFFFFFFFFFFFFFFF NOT AND PUSH1 0x1 PUSH1 0xA0 PUSH1 0x2 EXP SUB DUP4 DUP2 AND SWAP2 SWAP1 SWAP2 OR SWAP2 DUP3 SWAP1 SSTORE PUSH1 0x40 DUP1 MLOAD CALLER DUP2 MSTORE SWAP3 SWAP1 SWAP2 AND PUSH1 0x20 DUP4 ADD MSTORE DUP1 MLOAD PUSH32 0xD9D6B85B6D670CD443496FC6D03390F739BBFF47F96A8E33FB0CDD52AD26F5C2 SWAP3 DUP2 SWAP1 SUB SWAP1 SWAP2 ADD SWAP1 LOG1 POP JUMP JUMPDEST PUSH1 0x0 SLOAD PUSH2 0x100 SWAP1 DIV PUSH1 0x1 PUSH1 0xA0 PUSH1 0x2 EXP SUB AND CALLER EQ PUSH2 0x269F JUMPI PUSH1 0x0 DUP1 REVERT JUMPDEST PUSH1 0x1 PUSH1 0xA0 PUSH1 0x2 EXP SUB DUP2 AND ISZERO ISZERO PUSH2 0x26B4 JUMPI PUSH1 0x0 DUP1 REVERT JUMPDEST PUSH1 0x0 DUP1 SLOAD PUSH1 0x40 MLOAD PUSH1 0x1 PUSH1 0xA0 PUSH1 0x2 EXP SUB DUP1 DUP6 AND SWAP4 PUSH2 0x100 SWAP1 SWAP4 DIV AND SWAP2 PUSH32 0x8BE0079C531659141344CD1FD0A4F28419497F9722A3DAAFE3B4186F6B6457E0 SWAP2 LOG3 PUSH1 0x0 DUP1 SLOAD PUSH1 0x1 PUSH1 0xA0 PUSH1 0x2 EXP SUB SWAP1 SWAP3 AND PUSH2 0x100 MUL PUSH21 0xFFFFFFFFFFFFFFFFFFFFFFFFFFFFFFFFFFFFFFFF00 NOT SWAP1 SWAP3 AND SWAP2 SWAP1 SWAP2 OR SWAP1 SSTORE JUMP JUMPDEST PUSH1 0x0 PUSH2 0x2731 PUSH2 0x44E0 JUMP JUMPDEST PUSH1 0x40 DUP1 MLOAD PUSH2 0x280 DUP2 ADD DUP3 MSTORE DUP12 MLOAD PUSH1 0x1 PUSH1 0xA0 PUSH1 0x2 EXP SUB SWAP1 DUP2 AND DUP3 MSTORE PUSH1 0x20 DUP1 DUP15 ADD MLOAD DUP3 AND DUP2 DUP5 ADD MSTORE DUP14 DUP5 ADD MLOAD DUP3 AND DUP4 DUP6 ADD MSTORE DUP13 MLOAD PUSH1 0x60 DUP1 DUP6 ADD SWAP2 SWAP1 SWAP2 MSTORE SWAP1 DUP14 ADD MLOAD PUSH1 0x80 DUP5 ADD MSTORE SWAP3 DUP13 ADD MLOAD PUSH1 0xA0 DUP4 ADD MSTORE DUP12 DUP4 ADD MLOAD PUSH1 0xC0 DUP4 ADD MSTORE SWAP2 DUP13 ADD MLOAD SWAP1 SWAP2 AND PUSH1 0xE0 DUP3 ADD MSTORE PUSH2 0x100 DUP2 ADD DUP10 PUSH1 0x1 DUP2 GT ISZERO PUSH2 0x27A4 JUMPI INVALID JUMPDEST DUP2 MSTORE PUSH1 0x20 ADD DUP9 PUSH1 0x1 DUP2 GT ISZERO PUSH2 0x27B5 JUMPI INVALID JUMPDEST DUP2 MSTORE PUSH1 0x20 ADD DUP8 PUSH1 0x1 DUP2 GT ISZERO PUSH2 0x27C6 JUMPI INVALID JUMPDEST DUP2 MSTORE PUSH1 0x20 ADD DUP7 PUSH1 0x1 DUP2 GT ISZERO PUSH2 0x27D7 JUMPI INVALID JUMPDEST DUP2 MSTORE PUSH1 0x80 DUP13 ADD MLOAD PUSH1 0x1 PUSH1 0xA0 PUSH1 0x2 EXP SUB AND PUSH1 0x20 DUP3 ADD MSTORE PUSH1 0x40 ADD DUP6 PUSH1 0x1 DUP2 GT ISZERO PUSH2 0x27FB JUMPI INVALID JUMPDEST DUP2 MSTORE PUSH1 0xA0 DUP1 DUP14 ADD MLOAD PUSH1 0x1 PUSH1 0xA0 PUSH1 0x2 EXP SUB AND PUSH1 0x20 DUP4 ADD MSTORE PUSH1 0x80 DUP13 DUP2 ADD MLOAD PUSH1 0x40 DUP5 ADD MSTORE DUP13 DUP3 ADD MLOAD PUSH1 0x60 DUP5 ADD MSTORE PUSH1 0xC0 DUP1 DUP15 ADD MLOAD SWAP2 DUP5 ADD SWAP2 SWAP1 SWAP2 MSTORE PUSH1 0xE0 DUP14 ADD MLOAD SWAP2 DUP4 ADD SWAP2 SWAP1 SWAP2 MSTORE PUSH2 0x100 DUP13 ADD MLOAD SWAP2 ADD MSTORE SWAP1 POP PUSH2 0x285C PUSH2 0x2856 DUP3 DUP6 PUSH2 0x3961 JUMP JUMPDEST DUP3 PUSH2 0x3A41 JUMP JUMPDEST SWAP11 SWAP10 POP POP POP POP POP POP POP POP POP POP JUMP JUMPDEST PUSH1 0x0 DUP1 PUSH1 0x0 DUP1 PUSH1 0x0 DUP1 PUSH1 0x0 DUP1 PUSH1 0x0 DUP1 SWAP1 SLOAD SWAP1 PUSH2 0x100 EXP SWAP1 DIV PUSH1 0xFF AND ISZERO PUSH2 0x288F JUMPI PUSH1 0x0 DUP1 REVERT JUMPDEST PUSH1 0x0 DUP1 SLOAD PUSH1 0xFF NOT AND PUSH1 0x1 OR SWAP1 SSTORE PUSH1 0x20 DUP12 ADD MLOAD PUSH1 0x1 PUSH1 0xA0 PUSH1 0x2 EXP SUB AND CALLER EQ PUSH2 0x2925 JUMPI PUSH1 0x40 DUP1 MLOAD PUSH1 0xE5 PUSH1 0x2 EXP PUSH3 0x461BCD MUL DUP2 MSTORE PUSH1 0x20 PUSH1 0x4 DUP3 ADD MSTORE PUSH1 0x24 DUP1 DUP3 ADD MSTORE PUSH32 0x506C6145786368616E67653A2063616C6C6572206973206E6F7420627579206D PUSH1 0x44 DUP3 ADD MSTORE PUSH32 0x616B657200000000000000000000000000000000000000000000000000000000 PUSH1 0x64 DUP3 ADD MSTORE SWAP1 MLOAD SWAP1 DUP2 SWAP1 SUB PUSH1 0x84 ADD SWAP1 REVERT JUMPDEST PUSH2 0x292E DUP12 PUSH2 0x32ED JUMP JUMPDEST ISZERO ISZERO PUSH2 0x2939 JUMPI PUSH1 0x0 DUP1 REVERT JUMPDEST PUSH2 0x2943 DUP11 DUP11 PUSH2 0x3AA1 JUMP JUMPDEST SWAP7 POP PUSH2 0x294F DUP12 DUP12 PUSH2 0x3725 JUMP JUMPDEST ISZERO ISZERO PUSH2 0x295A JUMPI PUSH1 0x0 DUP1 REVERT JUMPDEST PUSH2 0x180 DUP11 ADD MLOAD DUP1 EXTCODESIZE SWAP7 POP SWAP5 POP PUSH1 0x0 DUP7 GT PUSH2 0x2973 JUMPI PUSH1 0x0 DUP1 REVERT JUMPDEST PUSH1 0x2 SLOAD PUSH1 0x20 DUP1 DUP13 ADD MLOAD PUSH1 0x40 DUP1 MLOAD PUSH32 0xC455279100000000000000000000000000000000000000000000000000000000 DUP2 MSTORE PUSH1 0x1 PUSH1 0xA0 PUSH1 0x2 EXP SUB SWAP3 DUP4 AND PUSH1 0x4 DUP3 ADD MSTORE SWAP1 MLOAD SWAP2 SWAP1 SWAP4 AND SWAP3 PUSH4 0xC4552791 SWAP3 PUSH1 0x24 DUP1 DUP4 ADD SWAP4 SWAP2 SWAP3 DUP3 SWAP1 SUB ADD DUP2 PUSH1 0x0 DUP8 DUP1 EXTCODESIZE ISZERO DUP1 ISZERO PUSH2 0x29DE JUMPI PUSH1 0x0 DUP1 REVERT JUMPDEST POP GAS CALL ISZERO DUP1 ISZERO PUSH2 0x29F2 JUMPI RETURNDATASIZE PUSH1 0x0 DUP1 RETURNDATACOPY RETURNDATASIZE PUSH1 0x0 REVERT JUMPDEST POP POP POP POP PUSH1 0x40 MLOAD RETURNDATASIZE PUSH1 0x20 DUP2 LT ISZERO PUSH2 0x2A08 JUMPI PUSH1 0x0 DUP1 REVERT JUMPDEST POP MLOAD SWAP4 POP PUSH1 0x1 PUSH1 0xA0 PUSH1 0x2 EXP SUB DUP5 AND ISZERO ISZERO PUSH2 0x2A21 JUMPI PUSH1 0x0 DUP1 REVERT JUMPDEST PUSH1 0x2 PUSH1 0x0 SWAP1 SLOAD SWAP1 PUSH2 0x100 EXP SWAP1 DIV PUSH1 0x1 PUSH1 0xA0 PUSH1 0x2 EXP SUB AND PUSH1 0x1 PUSH1 0xA0 PUSH1 0x2 EXP SUB AND PUSH4 0x97204D8E PUSH1 0x40 MLOAD DUP2 PUSH4 0xFFFFFFFF AND PUSH1 0xE0 PUSH1 0x2 EXP MUL DUP2 MSTORE PUSH1 0x4 ADD PUSH1 0x20 PUSH1 0x40 MLOAD DUP1 DUP4 SUB DUP2 PUSH1 0x0 DUP8 DUP1 EXTCODESIZE ISZERO DUP1 ISZERO PUSH2 0x2A74 JUMPI PUSH1 0x0 DUP1 REVERT JUMPDEST POP GAS CALL ISZERO DUP1 ISZERO PUSH2 0x2A88 JUMPI RETURNDATASIZE PUSH1 0x0 DUP1 RETURNDATACOPY RETURNDATASIZE PUSH1 0x0 REVERT JUMPDEST POP POP POP POP PUSH1 0x40 MLOAD RETURNDATASIZE PUSH1 0x20 DUP2 LT ISZERO PUSH2 0x2A9E JUMPI PUSH1 0x0 DUP1 REVERT JUMPDEST POP MLOAD PUSH1 0x40 DUP1 MLOAD PUSH32 0x5C60DA1B00000000000000000000000000000000000000000000000000000000 DUP2 MSTORE SWAP1 MLOAD PUSH1 0x1 PUSH1 0xA0 PUSH1 0x2 EXP SUB SWAP3 DUP4 AND SWAP3 DUP8 AND SWAP2 PUSH4 0x5C60DA1B SWAP2 PUSH1 0x4 DUP1 DUP4 ADD SWAP3 PUSH1 0x20 SWAP3 SWAP2 SWAP1 DUP3 SWAP1 SUB ADD DUP2 PUSH1 0x0 DUP8 DUP1 EXTCODESIZE ISZERO DUP1 ISZERO PUSH2 0x2AFF JUMPI PUSH1 0x0 DUP1 REVERT JUMPDEST POP GAS CALL ISZERO DUP1 ISZERO PUSH2 0x2B13 JUMPI RETURNDATASIZE PUSH1 0x0 DUP1 RETURNDATACOPY RETURNDATASIZE PUSH1 0x0 REVERT JUMPDEST POP POP POP POP PUSH1 0x40 MLOAD RETURNDATASIZE PUSH1 0x20 DUP2 LT ISZERO PUSH2 0x2B29 JUMPI PUSH1 0x0 DUP1 REVERT JUMPDEST POP MLOAD PUSH1 0x1 PUSH1 0xA0 PUSH1 0x2 EXP SUB AND EQ PUSH2 0x2B3E JUMPI PUSH1 0x0 DUP1 REVERT JUMPDEST DUP4 SWAP3 POP PUSH2 0x2B4B DUP12 DUP12 PUSH2 0x3ACC JUMP JUMPDEST SWAP2 POP PUSH1 0x0 DUP11 PUSH2 0x100 ADD MLOAD PUSH1 0x1 DUP2 GT ISZERO PUSH2 0x2B60 JUMPI INVALID JUMPDEST EQ ISZERO PUSH2 0x2BF9 JUMPI DUP9 MLOAD PUSH1 0x0 DUP9 DUP2 MSTORE PUSH1 0x6 PUSH1 0x20 MSTORE PUSH1 0x40 SWAP1 KECCAK256 SLOAD LT PUSH2 0x2BCC JUMPI PUSH1 0x40 DUP1 MLOAD PUSH1 0xE5 PUSH1 0x2 EXP PUSH3 0x461BCD MUL DUP2 MSTORE PUSH1 0x20 PUSH1 0x4 DUP3 ADD DUP2 SWAP1 MSTORE PUSH1 0x24 DUP3 ADD MSTORE PUSH32 0x506C6145786368616E67653A20696C6C6567616C206D6174636820696E646578 PUSH1 0x44 DUP3 ADD MSTORE SWAP1 MLOAD SWAP1 DUP2 SWAP1 SUB PUSH1 0x64 ADD SWAP1 REVERT JUMPDEST PUSH1 0x0 DUP8 DUP2 MSTORE PUSH1 0x6 PUSH1 0x20 MSTORE PUSH1 0x40 SWAP1 KECCAK256 SLOAD DUP10 MLOAD DUP11 SWAP2 SWAP1 DUP2 LT PUSH2 0x2BE8 JUMPI INVALID JUMPDEST SWAP1 PUSH1 0x20 ADD SWAP1 PUSH1 0x20 MUL ADD MLOAD SWAP1 POP PUSH2 0x2CC3 JUMP JUMPDEST DUP9 PUSH1 0x0 DUP2 MLOAD DUP2 LT ISZERO ISZERO PUSH2 0x2C08 JUMPI INVALID JUMPDEST SWAP1 PUSH1 0x20 ADD SWAP1 PUSH1 0x20 MUL ADD MLOAD DUP10 PUSH1 0x1 DUP2 MLOAD DUP2 LT ISZERO ISZERO PUSH2 0x2C21 JUMPI INVALID JUMPDEST PUSH1 0x20 SWAP1 DUP2 MUL SWAP1 SWAP2 ADD DUP2 ADD MLOAD PUSH1 0x0 DUP11 DUP2 MSTORE PUSH1 0x6 SWAP1 SWAP3 MSTORE PUSH1 0x40 SWAP1 SWAP2 KECCAK256 SLOAD SWAP2 SWAP1 SUB LT ISZERO PUSH2 0x2C95 JUMPI PUSH1 0x40 DUP1 MLOAD PUSH1 0xE5 PUSH1 0x2 EXP PUSH3 0x461BCD MUL DUP2 MSTORE PUSH1 0x20 PUSH1 0x4 DUP3 ADD DUP2 SWAP1 MSTORE PUSH1 0x24 DUP3 ADD MSTORE PUSH32 0x506C6145786368616E67653A20696C6C6567616C206D6174636820696E646578 PUSH1 0x44 DUP3 ADD MSTORE SWAP1 MLOAD SWAP1 DUP2 SWAP1 SUB PUSH1 0x64 ADD SWAP1 REVERT JUMPDEST DUP9 PUSH1 0x0 DUP2 MLOAD DUP2 LT ISZERO ISZERO PUSH2 0x2CA4 JUMPI INVALID JUMPDEST PUSH1 0x20 SWAP1 DUP2 MUL SWAP1 SWAP2 ADD DUP2 ADD MLOAD PUSH1 0x0 DUP10 DUP2 MSTORE PUSH1 0x6 SWAP1 SWAP3 MSTORE PUSH1 0x40 SWAP1 SWAP2 KECCAK256 SLOAD ADD SWAP1 POP JUMPDEST PUSH1 0x6 PUSH1 0x0 DUP9 PUSH1 0x0 NOT AND PUSH1 0x0 NOT AND DUP2 MSTORE PUSH1 0x20 ADD SWAP1 DUP2 MSTORE PUSH1 0x20 ADD PUSH1 0x0 KECCAK256 SLOAD PUSH1 0x1 ADD PUSH1 0x6 PUSH1 0x0 DUP10 PUSH1 0x0 NOT AND PUSH1 0x0 NOT AND DUP2 MSTORE PUSH1 0x20 ADD SWAP1 DUP2 MSTORE PUSH1 0x20 ADD PUSH1 0x0 KECCAK256 DUP2 SWAP1 SSTORE POP DUP3 PUSH1 0x1 PUSH1 0xA0 PUSH1 0x2 EXP SUB AND PUSH4 0x1B0F7BA9 DUP12 PUSH2 0x180 ADD MLOAD DUP13 PUSH2 0x1A0 ADD MLOAD DUP14 PUSH1 0x20 ADD MLOAD DUP16 PUSH1 0x20 ADD MLOAD DUP7 PUSH1 0x40 MLOAD PUSH1 0x24 ADD DUP1 DUP5 PUSH1 0x1 PUSH1 0xA0 PUSH1 0x2 EXP SUB AND PUSH1 0x1 PUSH1 0xA0 PUSH1 0x2 EXP SUB AND DUP2 MSTORE PUSH1 0x20 ADD DUP4 PUSH1 0x1 PUSH1 0xA0 PUSH1 0x2 EXP SUB AND PUSH1 0x1 PUSH1 0xA0 PUSH1 0x2 EXP SUB AND DUP2 MSTORE PUSH1 0x20 ADD DUP3 DUP2 MSTORE PUSH1 0x20 ADD SWAP4 POP POP POP POP PUSH1 0x40 MLOAD PUSH1 0x20 DUP2 DUP4 SUB SUB DUP2 MSTORE SWAP1 PUSH1 0x40 MSTORE PUSH32 0x23B872DD00000000000000000000000000000000000000000000000000000000 PUSH28 0xFFFFFFFFFFFFFFFFFFFFFFFFFFFFFFFFFFFFFFFFFFFFFFFFFFFFFFFF NOT AND PUSH1 0x20 DUP3 ADD DUP1 MLOAD PUSH28 0xFFFFFFFFFFFFFFFFFFFFFFFFFFFFFFFFFFFFFFFFFFFFFFFFFFFFFFFF DUP4 DUP2 DUP4 AND OR DUP4 MSTORE POP POP POP POP PUSH1 0x40 MLOAD DUP5 PUSH4 0xFFFFFFFF AND PUSH1 0xE0 PUSH1 0x2 EXP MUL DUP2 MSTORE PUSH1 0x4 ADD DUP1 DUP5 PUSH1 0x1 PUSH1 0xA0 PUSH1 0x2 EXP SUB AND PUSH1 0x1 PUSH1 0xA0 PUSH1 0x2 EXP SUB AND DUP2 MSTORE PUSH1 0x20 ADD DUP4 PUSH1 0x1 DUP2 GT ISZERO PUSH2 0x2E20 JUMPI INVALID JUMPDEST PUSH1 0xFF AND DUP2 MSTORE PUSH1 0x20 ADD DUP1 PUSH1 0x20 ADD DUP3 DUP2 SUB DUP3 MSTORE DUP4 DUP2 DUP2 MLOAD DUP2 MSTORE PUSH1 0x20 ADD SWAP2 POP DUP1 MLOAD SWAP1 PUSH1 0x20 ADD SWAP1 DUP1 DUP4 DUP4 PUSH1 0x0 JUMPDEST DUP4 DUP2 LT ISZERO PUSH2 0x2E61 JUMPI DUP2 DUP2 ADD MLOAD DUP4 DUP3 ADD MSTORE PUSH1 0x20 ADD PUSH2 0x2E49 JUMP JUMPDEST POP POP POP POP SWAP1 POP SWAP1 DUP2 ADD SWAP1 PUSH1 0x1F AND DUP1 ISZERO PUSH2 0x2E8E JUMPI DUP1 DUP3 SUB DUP1 MLOAD PUSH1 0x1 DUP4 PUSH1 0x20 SUB PUSH2 0x100 EXP SUB NOT AND DUP2 MSTORE PUSH1 0x20 ADD SWAP2 POP JUMPDEST POP SWAP5 POP POP POP POP POP PUSH1 0x20 PUSH1 0x40 MLOAD DUP1 DUP4 SUB DUP2 PUSH1 0x0 DUP8 DUP1 EXTCODESIZE ISZERO DUP1 ISZERO PUSH2 0x2EAF JUMPI PUSH1 0x0 DUP1 REVERT JUMPDEST POP GAS CALL ISZERO DUP1 ISZERO PUSH2 0x2EC3 JUMPI RETURNDATASIZE PUSH1 0x0 DUP1 RETURNDATACOPY RETURNDATASIZE PUSH1 0x0 REVERT JUMPDEST POP POP POP POP PUSH1 0x40 MLOAD RETURNDATASIZE PUSH1 0x20 DUP2 LT ISZERO PUSH2 0x2ED9 JUMPI PUSH1 0x0 DUP1 REVERT JUMPDEST POP MLOAD ISZERO ISZERO PUSH2 0x2EE6 JUMPI PUSH1 0x0 DUP1 REVERT JUMPDEST PUSH1 0x20 DUP1 DUP13 ADD MLOAD DUP12 DUP3 ADD MLOAD PUSH2 0x180 DUP14 ADD MLOAD PUSH1 0x40 DUP1 MLOAD DUP13 DUP2 MSTORE PUSH1 0x1 PUSH1 0xA0 PUSH1 0x2 EXP SUB SWAP3 DUP4 AND SWAP6 DUP2 ADD SWAP6 SWAP1 SWAP6 MSTORE DUP5 DUP2 ADD DUP7 SWAP1 MSTORE PUSH1 0x60 DUP6 ADD DUP8 SWAP1 MSTORE MLOAD SWAP3 DUP2 AND SWAP4 SWAP2 AND SWAP2 PUSH32 0x83517C79FD30B597C1E067B1580B3888EE68D8BCCEAC8273414D1C741CE3E2A2 SWAP2 DUP2 SWAP1 SUB PUSH1 0x80 ADD SWAP1 LOG3 POP POP PUSH1 0x0 DUP1 SLOAD PUSH1 0xFF NOT AND SWAP1 SSTORE POP POP POP POP POP POP POP POP POP JUMP JUMPDEST PUSH1 0x0 DUP1 PUSH1 0x0 DUP5 MLOAD DUP7 MLOAD EQ ISZERO ISZERO PUSH2 0x2F7A JUMPI PUSH1 0x0 DUP1 REVERT JUMPDEST DUP4 MLOAD DUP7 MLOAD EQ PUSH2 0x2F88 JUMPI PUSH1 0x0 DUP1 REVERT JUMPDEST DUP6 MLOAD PUSH1 0x20 SWAP1 DIV SWAP3 POP PUSH1 0x20 DUP1 DUP5 MUL SWAP3 POP DUP4 SWAP1 DUP4 DIV EQ PUSH2 0x2FA2 JUMPI INVALID JUMPDEST POP PUSH1 0x0 JUMPDEST DUP3 DUP2 LT ISZERO PUSH2 0x2FD2 JUMPI PUSH1 0x1 ADD PUSH1 0x20 DUP2 MUL DUP5 DUP2 ADD MLOAD DUP7 DUP3 ADD MLOAD SWAP2 DUP9 ADD DUP1 MLOAD SWAP3 DUP3 AND SWAP2 NOT SWAP1 SWAP3 AND OR SWAP1 MSTORE PUSH2 0x2FA6 JUMP JUMPDEST PUSH1 0x0 DUP4 GT ISZERO PUSH2 0x3002 JUMPI DUP3 SWAP1 POP DUP1 PUSH1 0x1 ADD PUSH1 0x20 MUL DUP1 DUP6 ADD MLOAD DUP2 DUP8 ADD MLOAD DUP2 AND DUP3 DUP10 ADD MLOAD DUP3 NOT AND OR DUP3 DUP10 ADD MSTORE POP POP PUSH2 0x30E4 JUMP JUMPDEST POP DUP1 JUMPDEST DUP6 MLOAD DUP2 LT ISZERO PUSH2 0x30E4 JUMPI DUP5 DUP2 DUP2 MLOAD DUP2 LT ISZERO ISZERO PUSH2 0x301C JUMPI INVALID JUMPDEST SWAP1 PUSH1 0x20 ADD ADD MLOAD PUSH1 0xF8 PUSH1 0x2 EXP SWAP1 DIV PUSH1 0xF8 PUSH1 0x2 EXP MUL DUP5 DUP3 DUP2 MLOAD DUP2 LT ISZERO ISZERO PUSH2 0x303D JUMPI INVALID JUMPDEST SWAP1 PUSH1 0x20 ADD ADD MLOAD PUSH1 0xF8 PUSH1 0x2 EXP SWAP1 DIV PUSH1 0xF8 PUSH1 0x2 EXP MUL AND DUP7 DUP3 DUP2 MLOAD DUP2 LT ISZERO ISZERO PUSH2 0x305F JUMPI INVALID JUMPDEST SWAP1 PUSH1 0x20 ADD ADD MLOAD PUSH1 0xF8 PUSH1 0x2 EXP SWAP1 DIV PUSH1 0xF8 PUSH1 0x2 EXP MUL DUP6 DUP4 DUP2 MLOAD DUP2 LT ISZERO ISZERO PUSH2 0x3080 JUMPI INVALID JUMPDEST SWAP1 PUSH1 0x20 ADD ADD MLOAD PUSH1 0xF8 PUSH1 0x2 EXP SWAP1 DIV PUSH1 0xF8 PUSH1 0x2 EXP MUL PUSH1 0xFF PUSH1 0xF8 PUSH1 0x2 EXP MUL XOR AND OR DUP7 DUP3 DUP2 MLOAD DUP2 LT ISZERO ISZERO PUSH2 0x30AC JUMPI INVALID JUMPDEST SWAP1 PUSH1 0x20 ADD ADD SWAP1 PUSH31 0xFFFFFFFFFFFFFFFFFFFFFFFFFFFFFFFFFFFFFFFFFFFFFFFFFFFFFFFFFFFFFF NOT AND SWAP1 DUP2 PUSH1 0x0 BYTE SWAP1 MSTORE8 POP PUSH1 0x1 ADD PUSH2 0x3005 JUMP JUMPDEST POP POP POP POP POP POP JUMP JUMPDEST PUSH1 0x0 DUP1 PUSH1 0x60 PUSH1 0x0 DUP1 PUSH2 0x30FF DUP8 DUP8 MLOAD PUSH2 0x4329 JUMP JUMPDEST SWAP4 POP DUP4 PUSH1 0x40 MLOAD SWAP1 DUP1 DUP3 MSTORE DUP1 PUSH1 0x1F ADD PUSH1 0x1F NOT AND PUSH1 0x20 ADD DUP3 ADD PUSH1 0x40 MSTORE DUP1 ISZERO PUSH2 0x312F JUMPI DUP2 PUSH1 0x20 ADD PUSH1 0x20 DUP3 MUL DUP1 CODESIZE DUP4 CODECOPY ADD SWAP1 POP JUMPDEST POP SWAP3 POP PUSH1 0x20 DUP4 ADD SWAP2 POP PUSH2 0x3146 DUP3 DUP9 PUSH1 0x0 ADD MLOAD PUSH2 0x4337 JUMP JUMPDEST SWAP2 POP PUSH2 0x3156 DUP3 DUP9 PUSH1 0x20 ADD MLOAD PUSH2 0x4337 JUMP JUMPDEST SWAP2 POP PUSH2 0x3166 DUP3 DUP9 PUSH1 0x40 ADD MLOAD PUSH2 0x4337 JUMP JUMPDEST SWAP2 POP PUSH2 0x3176 DUP3 DUP9 PUSH1 0x60 ADD MLOAD PUSH2 0x4357 JUMP JUMPDEST SWAP2 POP PUSH2 0x3186 DUP3 DUP9 PUSH1 0x80 ADD MLOAD PUSH2 0x4357 JUMP JUMPDEST SWAP2 POP PUSH2 0x3196 DUP3 DUP9 PUSH1 0xA0 ADD MLOAD PUSH2 0x4357 JUMP JUMPDEST SWAP2 POP PUSH2 0x31A6 DUP3 DUP9 PUSH1 0xC0 ADD MLOAD PUSH2 0x4357 JUMP JUMPDEST SWAP2 POP PUSH2 0x31B6 DUP3 DUP9 PUSH1 0xE0 ADD MLOAD PUSH2 0x4337 JUMP JUMPDEST SWAP2 POP PUSH2 0x31D2 DUP3 DUP9 PUSH2 0x100 ADD MLOAD PUSH1 0x1 DUP2 GT ISZERO PUSH2 0x31CD JUMPI INVALID JUMPDEST PUSH2 0x435F JUMP JUMPDEST SWAP2 POP PUSH2 0x31E9 DUP3 DUP9 PUSH2 0x120 ADD MLOAD PUSH1 0x1 DUP2 GT ISZERO PUSH2 0x31CD JUMPI INVALID JUMPDEST SWAP2 POP PUSH2 0x3200 DUP3 DUP9 PUSH2 0x140 ADD MLOAD PUSH1 0x1 DUP2 GT ISZERO PUSH2 0x31CD JUMPI INVALID JUMPDEST SWAP2 POP PUSH2 0x3217 DUP3 DUP9 PUSH2 0x160 ADD MLOAD PUSH1 0x1 DUP2 GT ISZERO PUSH2 0x31CD JUMPI INVALID JUMPDEST SWAP2 POP PUSH2 0x3228 DUP3 DUP9 PUSH2 0x180 ADD MLOAD PUSH2 0x4337 JUMP JUMPDEST SWAP2 POP PUSH2 0x323F DUP3 DUP9 PUSH2 0x1A0 ADD MLOAD PUSH1 0x1 DUP2 GT ISZERO PUSH2 0x31CD JUMPI INVALID JUMPDEST SWAP2 POP PUSH2 0x3250 DUP3 DUP9 PUSH2 0x1C0 ADD MLOAD PUSH2 0x4337 JUMP JUMPDEST SWAP2 POP PUSH2 0x3261 DUP3 DUP9 PUSH2 0x1E0 ADD MLOAD PUSH2 0x4357 JUMP JUMPDEST SWAP2 POP PUSH2 0x3272 DUP3 DUP9 PUSH2 0x200 ADD MLOAD PUSH2 0x4357 JUMP JUMPDEST SWAP2 POP PUSH2 0x3283 DUP3 DUP9 PUSH2 0x220 ADD MLOAD PUSH2 0x4357 JUMP JUMPDEST SWAP2 POP PUSH2 0x3294 DUP3 DUP9 PUSH2 0x240 ADD MLOAD PUSH2 0x4357 JUMP JUMPDEST SWAP2 POP PUSH2 0x32A5 DUP3 DUP9 PUSH2 0x260 ADD MLOAD PUSH2 0x4357 JUMP JUMPDEST SWAP2 POP PUSH1 0x0 SWAP1 POP JUMPDEST DUP6 MLOAD DUP2 LT ISZERO PUSH2 0x32E0 JUMPI PUSH2 0x32D6 DUP3 DUP8 DUP4 DUP2 MLOAD DUP2 LT ISZERO ISZERO PUSH2 0x32C7 JUMPI INVALID JUMPDEST SWAP1 PUSH1 0x20 ADD SWAP1 PUSH1 0x20 MUL ADD MLOAD PUSH2 0x4357 JUMP JUMPDEST SWAP2 POP PUSH1 0x1 ADD PUSH2 0x32AC JUMP JUMPDEST POP POP PUSH1 0x20 ADD KECCAK256 SWAP4 SWAP3 POP POP POP JUMP JUMPDEST DUP1 MLOAD PUSH1 0x0 SWAP1 PUSH1 0x1 PUSH1 0xA0 PUSH1 0x2 EXP SUB AND ADDRESS EQ PUSH2 0x3309 JUMPI POP PUSH1 0x0 PUSH2 0x3370 JUMP JUMPDEST PUSH2 0x331D DUP3 PUSH2 0x160 ADD MLOAD DUP4 PUSH2 0x240 ADD MLOAD PUSH2 0x436C JUMP JUMPDEST ISZERO ISZERO PUSH2 0x332B JUMPI POP PUSH1 0x0 PUSH2 0x3370 JUMP JUMPDEST PUSH1 0x1 DUP3 PUSH2 0x120 ADD MLOAD PUSH1 0x1 DUP2 GT ISZERO PUSH2 0x333E JUMPI INVALID JUMPDEST EQ DUP1 ISZERO PUSH2 0x335F JUMPI POP PUSH1 0x7 SLOAD DUP3 PUSH1 0xA0 ADD MLOAD LT DUP1 PUSH2 0x335F JUMPI POP PUSH1 0x8 SLOAD DUP3 PUSH1 0xC0 ADD MLOAD LT JUMPDEST ISZERO PUSH2 0x336C JUMPI POP PUSH1 0x0 PUSH2 0x3370 JUMP JUMPDEST POP PUSH1 0x1 JUMPDEST SWAP2 SWAP1 POP JUMP JUMPDEST PUSH1 0x20 DUP3 ADD MLOAD PUSH1 0x0 SWAP1 PUSH1 0x1 PUSH1 0xA0 PUSH1 0x2 EXP SUB AND CALLER EQ PUSH2 0x3391 JUMPI PUSH1 0x0 DUP1 REVERT JUMPDEST PUSH1 0x0 DUP4 PUSH2 0x100 ADD MLOAD PUSH1 0x1 DUP2 GT ISZERO PUSH2 0x33A4 JUMPI INVALID JUMPDEST EQ ISZERO PUSH2 0x342E JUMPI DUP2 MLOAD PUSH1 0x0 LT PUSH2 0x3429 JUMPI PUSH1 0x40 DUP1 MLOAD PUSH1 0xE5 PUSH1 0x2 EXP PUSH3 0x461BCD MUL DUP2 MSTORE PUSH1 0x20 PUSH1 0x4 DUP3 ADD MSTORE PUSH1 0x27 PUSH1 0x24 DUP3 ADD MSTORE PUSH32 0x506C6145786368616E67653A2073697A65206D75737420626967676572207468 PUSH1 0x44 DUP3 ADD MSTORE PUSH32 0x616E207A65726F00000000000000000000000000000000000000000000000000 PUSH1 0x64 DUP3 ADD MSTORE SWAP1 MLOAD SWAP1 DUP2 SWAP1 SUB PUSH1 0x84 ADD SWAP1 REVERT JUMPDEST PUSH2 0x355A JUMP JUMPDEST DUP2 MLOAD PUSH1 0x2 EQ PUSH2 0x34AD JUMPI PUSH1 0x40 DUP1 MLOAD PUSH1 0xE5 PUSH1 0x2 EXP PUSH3 0x461BCD MUL DUP2 MSTORE PUSH1 0x20 PUSH1 0x4 DUP3 ADD MSTORE PUSH1 0x21 PUSH1 0x24 DUP3 ADD MSTORE PUSH32 0x506C6145786368616E67653A20746F6B656E732073636F706520696C6C656761 PUSH1 0x44 DUP3 ADD MSTORE PUSH32 0x6C00000000000000000000000000000000000000000000000000000000000000 PUSH1 0x64 DUP3 ADD MSTORE SWAP1 MLOAD SWAP1 DUP2 SWAP1 SUB PUSH1 0x84 ADD SWAP1 REVERT JUMPDEST DUP2 PUSH1 0x0 DUP2 MLOAD DUP2 LT ISZERO ISZERO PUSH2 0x34BC JUMPI INVALID JUMPDEST SWAP1 PUSH1 0x20 ADD SWAP1 PUSH1 0x20 MUL ADD MLOAD DUP3 PUSH1 0x1 DUP2 MLOAD DUP2 LT ISZERO ISZERO PUSH2 0x34D5 JUMPI INVALID JUMPDEST PUSH1 0x20 SWAP1 DUP2 MUL SWAP1 SWAP2 ADD ADD MLOAD GT PUSH2 0x355A JUMPI PUSH1 0x40 DUP1 MLOAD PUSH1 0xE5 PUSH1 0x2 EXP PUSH3 0x461BCD MUL DUP2 MSTORE PUSH1 0x20 PUSH1 0x4 DUP3 ADD MSTORE PUSH1 0x22 PUSH1 0x24 DUP3 ADD MSTORE PUSH32 0x506C6145786368616E67653A20746F6B656E732073636F7065206D7573742061 PUSH1 0x44 DUP3 ADD MSTORE PUSH32 0x7363000000000000000000000000000000000000000000000000000000000000 PUSH1 0x64 DUP3 ADD MSTORE SWAP1 MLOAD SWAP1 DUP2 SWAP1 SUB PUSH1 0x84 ADD SWAP1 REVERT JUMPDEST PUSH2 0x3564 DUP4 DUP4 PUSH2 0x3961 JUMP JUMPDEST PUSH1 0x0 DUP2 DUP2 MSTORE PUSH1 0x5 PUSH1 0x20 MSTORE PUSH1 0x40 SWAP1 KECCAK256 SLOAD SWAP1 SWAP2 POP PUSH1 0xFF AND ISZERO PUSH2 0x3583 JUMPI PUSH1 0x0 DUP1 REVERT JUMPDEST PUSH1 0x0 DUP2 DUP2 MSTORE PUSH1 0x5 PUSH1 0x20 SWAP1 DUP2 MSTORE PUSH1 0x40 DUP1 DUP4 KECCAK256 DUP1 SLOAD PUSH1 0xFF NOT AND PUSH1 0x1 OR SWAP1 SSTORE PUSH1 0x6 DUP3 MSTORE DUP1 DUP4 KECCAK256 SWAP3 SWAP1 SWAP3 SSTORE PUSH1 0xE0 DUP6 ADD MLOAD DUP6 DUP3 ADD MLOAD PUSH1 0x60 DUP1 DUP9 ADD MLOAD PUSH1 0x80 DUP1 DUP11 ADD MLOAD PUSH1 0xA0 DUP12 ADD MLOAD PUSH1 0xC0 DUP13 ADD MLOAD DUP10 MLOAD SWAP5 DUP6 MSTORE SWAP8 DUP5 ADD SWAP2 SWAP1 SWAP2 MSTORE DUP3 DUP9 ADD MSTORE SWAP2 DUP2 ADD SWAP5 SWAP1 SWAP5 MSTORE SWAP4 MLOAD PUSH1 0x1 PUSH1 0xA0 PUSH1 0x2 EXP SUB SWAP3 DUP4 AND SWAP5 SWAP2 SWAP1 SWAP3 AND SWAP3 DUP6 SWAP3 PUSH32 0x8AEF416B0E896F7AE3E695584ECFE77745BCB941A902684234D114759927ADB9 SWAP3 SWAP2 DUP2 SWAP1 SUB SWAP1 SWAP2 ADD SWAP1 LOG4 POP POP POP JUMP JUMPDEST PUSH1 0x0 PUSH2 0x3631 DUP4 DUP4 PUSH2 0x3AA1 JUMP JUMPDEST PUSH1 0x20 DUP5 ADD MLOAD SWAP1 SWAP2 POP PUSH1 0x1 PUSH1 0xA0 PUSH1 0x2 EXP SUB AND CALLER EQ PUSH2 0x364D JUMPI PUSH1 0x0 DUP1 REVERT JUMPDEST PUSH1 0x0 DUP2 DUP2 MSTORE PUSH1 0x4 PUSH1 0x20 MSTORE PUSH1 0x40 DUP1 DUP3 KECCAK256 DUP1 SLOAD PUSH1 0xFF NOT AND PUSH1 0x1 OR SWAP1 SSTORE MLOAD DUP3 SWAP2 PUSH32 0x5152ABF959F6564662358C2E52B702259B78BAC5EE7842A0F01937E670EFCC7D SWAP2 LOG2 POP POP POP JUMP JUMPDEST PUSH1 0x0 DUP1 DUP1 DUP8 PUSH1 0x1 DUP2 GT ISZERO PUSH2 0x36A2 JUMPI INVALID JUMPDEST EQ ISZERO PUSH2 0x36B0 JUMPI DUP6 SWAP2 POP PUSH2 0x371A JUMP JUMPDEST PUSH1 0x1 DUP8 PUSH1 0x1 DUP2 GT ISZERO PUSH2 0x36BE JUMPI INVALID JUMPDEST EQ ISZERO PUSH2 0x371A JUMPI PUSH2 0x36E9 PUSH2 0x36DA DUP7 PUSH2 0x36D5 TIMESTAMP DUP9 PUSH2 0x438B JUMP JUMPDEST PUSH2 0x439D JUMP JUMPDEST PUSH2 0x36E4 DUP6 DUP8 PUSH2 0x438B JUMP JUMPDEST PUSH2 0x43C6 JUMP JUMPDEST SWAP1 POP PUSH1 0x1 DUP9 PUSH1 0x1 DUP2 GT ISZERO PUSH2 0x36F9 JUMPI INVALID JUMPDEST EQ ISZERO PUSH2 0x3710 JUMPI PUSH2 0x3709 DUP7 DUP3 PUSH2 0x438B JUMP JUMPDEST SWAP2 POP PUSH2 0x371A JUMP JUMPDEST PUSH2 0x3709 DUP7 DUP3 PUSH2 0x43DB JUMP JUMPDEST POP SWAP7 SWAP6 POP POP POP POP POP POP JUMP JUMPDEST PUSH1 0x0 DUP1 DUP4 PUSH2 0x140 ADD MLOAD PUSH1 0x1 DUP2 GT ISZERO PUSH2 0x3739 JUMPI INVALID JUMPDEST EQ DUP1 ISZERO PUSH2 0x3756 JUMPI POP PUSH1 0x1 DUP3 PUSH2 0x140 ADD MLOAD PUSH1 0x1 DUP2 GT ISZERO PUSH2 0x3754 JUMPI INVALID JUMPDEST EQ JUMPDEST DUP1 ISZERO PUSH2 0x3781 JUMPI POP DUP2 PUSH2 0x100 ADD MLOAD PUSH1 0x1 DUP2 GT ISZERO PUSH2 0x376E JUMPI INVALID JUMPDEST DUP4 PUSH2 0x100 ADD MLOAD PUSH1 0x1 DUP2 GT ISZERO PUSH2 0x377F JUMPI INVALID JUMPDEST EQ JUMPDEST DUP1 ISZERO PUSH2 0x37AC JUMPI POP DUP2 PUSH2 0x120 ADD MLOAD PUSH1 0x1 DUP2 GT ISZERO PUSH2 0x3799 JUMPI INVALID JUMPDEST DUP4 PUSH2 0x120 ADD MLOAD PUSH1 0x1 DUP2 GT ISZERO PUSH2 0x37AA JUMPI INVALID JUMPDEST EQ JUMPDEST DUP1 ISZERO PUSH2 0x37D3 JUMPI POP DUP2 PUSH2 0x1C0 ADD MLOAD PUSH1 0x1 PUSH1 0xA0 PUSH1 0x2 EXP SUB AND DUP4 PUSH2 0x1C0 ADD MLOAD PUSH1 0x1 PUSH1 0xA0 PUSH1 0x2 EXP SUB AND EQ JUMPDEST DUP1 ISZERO PUSH2 0x380D JUMPI POP PUSH1 0x40 DUP3 ADD MLOAD PUSH1 0x1 PUSH1 0xA0 PUSH1 0x2 EXP SUB AND ISZERO DUP1 PUSH2 0x380D JUMPI POP DUP3 PUSH1 0x20 ADD MLOAD PUSH1 0x1 PUSH1 0xA0 PUSH1 0x2 EXP SUB AND DUP3 PUSH1 0x40 ADD MLOAD PUSH1 0x1 PUSH1 0xA0 PUSH1 0x2 EXP SUB AND EQ JUMPDEST DUP1 ISZERO PUSH2 0x3847 JUMPI POP PUSH1 0x40 DUP4 ADD MLOAD PUSH1 0x1 PUSH1 0xA0 PUSH1 0x2 EXP SUB AND ISZERO DUP1 PUSH2 0x3847 JUMPI POP DUP2 PUSH1 0x20 ADD MLOAD PUSH1 0x1 PUSH1 0xA0 PUSH1 0x2 EXP SUB AND DUP4 PUSH1 0x40 ADD MLOAD PUSH1 0x1 PUSH1 0xA0 PUSH1 0x2 EXP SUB AND EQ JUMPDEST DUP1 ISZERO PUSH2 0x38A2 JUMPI POP PUSH1 0xE0 DUP3 ADD MLOAD PUSH1 0x1 PUSH1 0xA0 PUSH1 0x2 EXP SUB AND ISZERO DUP1 ISZERO PUSH2 0x3875 JUMPI POP PUSH1 0xE0 DUP4 ADD MLOAD PUSH1 0x1 PUSH1 0xA0 PUSH1 0x2 EXP SUB AND ISZERO ISZERO JUMPDEST DUP1 PUSH2 0x38A2 JUMPI POP PUSH1 0xE0 DUP3 ADD MLOAD PUSH1 0x1 PUSH1 0xA0 PUSH1 0x2 EXP SUB AND ISZERO DUP1 ISZERO SWAP1 PUSH2 0x38A2 JUMPI POP PUSH1 0xE0 DUP4 ADD MLOAD PUSH1 0x1 PUSH1 0xA0 PUSH1 0x2 EXP SUB AND ISZERO JUMPDEST DUP1 ISZERO PUSH2 0x38C9 JUMPI POP DUP2 PUSH2 0x180 ADD MLOAD PUSH1 0x1 PUSH1 0xA0 PUSH1 0x2 EXP SUB AND DUP4 PUSH2 0x180 ADD MLOAD PUSH1 0x1 PUSH1 0xA0 PUSH1 0x2 EXP SUB AND EQ JUMPDEST DUP1 ISZERO PUSH2 0x38F4 JUMPI POP DUP2 PUSH2 0x1A0 ADD MLOAD PUSH1 0x1 DUP2 GT ISZERO PUSH2 0x38E1 JUMPI INVALID JUMPDEST DUP4 PUSH2 0x1A0 ADD MLOAD PUSH1 0x1 DUP2 GT ISZERO PUSH2 0x38F2 JUMPI INVALID JUMPDEST EQ JUMPDEST DUP1 ISZERO PUSH2 0x390F JUMPI POP PUSH2 0x390F DUP4 PUSH2 0x220 ADD MLOAD DUP5 PUSH2 0x240 ADD MLOAD PUSH2 0x43E8 JUMP JUMPDEST DUP1 ISZERO PUSH2 0x392A JUMPI POP PUSH2 0x392A DUP3 PUSH2 0x220 ADD MLOAD DUP4 PUSH2 0x240 ADD MLOAD PUSH2 0x43E8 JUMP JUMPDEST SWAP1 POP JUMPDEST SWAP3 SWAP2 POP POP JUMP JUMPDEST PUSH1 0x0 PUSH2 0x392D DUP3 PUSH2 0x140 ADD MLOAD DUP4 PUSH2 0x160 ADD MLOAD DUP5 PUSH2 0x1E0 ADD MLOAD DUP6 PUSH2 0x200 ADD MLOAD DUP7 PUSH2 0x220 ADD MLOAD DUP8 PUSH2 0x240 ADD MLOAD PUSH2 0x3692 JUMP JUMPDEST PUSH1 0x0 PUSH2 0x396D DUP4 DUP4 PUSH2 0x30EC JUMP JUMPDEST PUSH1 0x40 DUP1 MLOAD PUSH32 0x19457468657265756D205369676E6564204D6573736167653A0A333200000000 DUP2 MSTORE PUSH1 0x1C DUP2 ADD SWAP3 SWAP1 SWAP3 MSTORE MLOAD SWAP1 DUP2 SWAP1 SUB PUSH1 0x3C ADD SWAP1 KECCAK256 SWAP1 POP SWAP3 SWAP2 POP POP JUMP JUMPDEST PUSH1 0x0 DUP1 PUSH1 0x0 PUSH2 0x39DF DUP5 PUSH2 0x140 ADD MLOAD DUP6 PUSH2 0x160 ADD MLOAD DUP7 PUSH2 0x1E0 ADD MLOAD DUP8 PUSH2 0x200 ADD MLOAD DUP9 PUSH2 0x220 ADD MLOAD DUP10 PUSH2 0x240 ADD MLOAD PUSH2 0x3692 JUMP JUMPDEST SWAP2 POP PUSH2 0x3A0D DUP6 PUSH2 0x140 ADD MLOAD DUP7 PUSH2 0x160 ADD MLOAD DUP8 PUSH2 0x1E0 ADD MLOAD DUP9 PUSH2 0x200 ADD MLOAD DUP10 PUSH2 0x220 ADD MLOAD DUP11 PUSH2 0x240 ADD MLOAD PUSH2 0x3692 JUMP JUMPDEST SWAP1 POP DUP2 DUP2 LT ISZERO PUSH2 0x3A1C JUMPI PUSH1 0x0 DUP1 REVERT JUMPDEST PUSH1 0xE0 DUP5 ADD MLOAD PUSH1 0x1 PUSH1 0xA0 PUSH1 0x2 EXP SUB AND ISZERO ISZERO PUSH2 0x3A36 JUMPI DUP1 PUSH2 0x3A38 JUMP JUMPDEST DUP2 JUMPDEST SWAP6 SWAP5 POP POP POP POP POP JUMP JUMPDEST PUSH1 0x0 PUSH2 0x3A4C DUP3 PUSH2 0x32ED JUMP JUMPDEST ISZERO ISZERO PUSH2 0x3A5A JUMPI POP PUSH1 0x0 PUSH2 0x392D JUMP JUMPDEST PUSH1 0x0 DUP4 DUP2 MSTORE PUSH1 0x4 PUSH1 0x20 MSTORE PUSH1 0x40 SWAP1 KECCAK256 SLOAD PUSH1 0xFF AND ISZERO PUSH2 0x3A79 JUMPI POP PUSH1 0x0 PUSH2 0x392D JUMP JUMPDEST PUSH1 0x0 DUP4 DUP2 MSTORE PUSH1 0x5 PUSH1 0x20 MSTORE PUSH1 0x40 SWAP1 KECCAK256 SLOAD PUSH1 0xFF AND ISZERO PUSH2 0x3A98 JUMPI POP PUSH1 0x1 PUSH2 0x392D JUMP JUMPDEST POP PUSH1 0x0 SWAP3 SWAP2 POP POP JUMP JUMPDEST PUSH1 0x0 DUP1 PUSH2 0x3AAE DUP5 DUP5 PUSH2 0x3961 JUMP JUMPDEST SWAP1 POP PUSH2 0x3ABA DUP2 DUP6 PUSH2 0x3A41 JUMP JUMPDEST ISZERO ISZERO PUSH2 0x3AC5 JUMPI PUSH1 0x0 DUP1 REVERT JUMPDEST SWAP4 SWAP3 POP POP POP JUMP JUMPDEST PUSH1 0x0 DUP1 PUSH1 0x0 DUP1 PUSH1 0x0 DUP1 PUSH1 0x0 DUP1 PUSH1 0x0 DUP1 PUSH1 0x0 PUSH1 0x1 PUSH1 0xA0 PUSH1 0x2 EXP SUB AND DUP12 PUSH2 0x1C0 ADD MLOAD PUSH1 0x1 PUSH1 0xA0 PUSH1 0x2 EXP SUB AND EQ ISZERO ISZERO PUSH2 0x3B07 JUMPI CALLVALUE ISZERO PUSH2 0x3B07 JUMPI PUSH1 0x0 DUP1 REVERT JUMPDEST PUSH2 0x3B11 DUP13 DUP13 PUSH2 0x39AE JUMP JUMPDEST SWAP9 POP PUSH1 0x0 DUP10 GT DUP1 ISZERO PUSH2 0x3B30 JUMPI POP PUSH2 0x1C0 DUP12 ADD MLOAD PUSH1 0x1 PUSH1 0xA0 PUSH1 0x2 EXP SUB AND ISZERO ISZERO JUMPDEST ISZERO PUSH2 0x3B4E JUMPI PUSH2 0x3B4E DUP12 PUSH2 0x1C0 ADD MLOAD DUP14 PUSH1 0x20 ADD MLOAD DUP14 PUSH1 0x20 ADD MLOAD DUP13 PUSH2 0x4404 JUMP JUMPDEST DUP9 SWAP8 POP DUP9 SWAP7 POP PUSH2 0x3B6B PUSH2 0x3B63 PUSH1 0xA SLOAD DUP12 PUSH2 0x439D JUMP JUMPDEST PUSH2 0x2710 PUSH2 0x43C6 JUMP JUMPDEST PUSH1 0xE0 DUP13 ADD MLOAD SWAP1 SWAP7 POP PUSH1 0x1 PUSH1 0xA0 PUSH1 0x2 EXP SUB AND ISZERO PUSH2 0x4024 JUMPI PUSH1 0x80 DUP1 DUP14 ADD MLOAD SWAP1 DUP13 ADD MLOAD GT ISZERO PUSH2 0x3B96 JUMPI PUSH1 0x0 DUP1 REVERT JUMPDEST PUSH1 0x1 DUP12 PUSH2 0x120 ADD MLOAD PUSH1 0x1 DUP2 GT ISZERO PUSH2 0x3BA9 JUMPI INVALID JUMPDEST EQ ISZERO PUSH2 0x3FB3 JUMPI PUSH1 0xC0 DUP1 DUP14 ADD MLOAD SWAP1 DUP13 ADD MLOAD GT ISZERO PUSH2 0x3BC4 JUMPI PUSH1 0x0 DUP1 REVERT JUMPDEST PUSH1 0x60 DUP12 ADD MLOAD ISZERO DUP1 ISZERO PUSH2 0x3BD8 JUMPI POP PUSH1 0x80 DUP12 ADD MLOAD ISZERO JUMPDEST ISZERO PUSH2 0x3C60 JUMPI PUSH2 0x1C0 DUP12 ADD MLOAD PUSH1 0x1 PUSH1 0xA0 PUSH1 0x2 EXP SUB AND ISZERO ISZERO PUSH2 0x3C3D JUMPI PUSH2 0x3BFC DUP9 DUP8 PUSH2 0x438B JUMP JUMPDEST PUSH1 0xC SLOAD PUSH1 0x40 MLOAD SWAP2 SWAP10 POP PUSH1 0x1 PUSH1 0xA0 PUSH1 0x2 EXP SUB AND SWAP1 DUP8 ISZERO PUSH2 0x8FC MUL SWAP1 DUP9 SWAP1 PUSH1 0x0 DUP2 DUP2 DUP2 DUP6 DUP9 DUP9 CALL SWAP4 POP POP POP POP ISZERO DUP1 ISZERO PUSH2 0x3C37 JUMPI RETURNDATASIZE PUSH1 0x0 DUP1 RETURNDATACOPY RETURNDATASIZE PUSH1 0x0 REVERT JUMPDEST POP PUSH2 0x3C60 JUMP JUMPDEST PUSH2 0x1C0 DUP12 ADD MLOAD PUSH1 0x20 DUP13 ADD MLOAD PUSH1 0xC SLOAD PUSH2 0x3C60 SWAP3 SWAP2 SWAP1 PUSH1 0x1 PUSH1 0xA0 PUSH1 0x2 EXP SUB AND DUP10 PUSH2 0x4404 JUMP JUMPDEST PUSH1 0x0 DUP12 PUSH1 0x60 ADD MLOAD GT ISZERO PUSH2 0x3D63 JUMPI PUSH2 0x3C7E PUSH2 0x3B63 DUP13 PUSH1 0x60 ADD MLOAD DUP12 PUSH2 0x439D JUMP JUMPDEST PUSH2 0x1C0 DUP13 ADD MLOAD SWAP1 SWAP6 POP PUSH1 0x1 PUSH1 0xA0 PUSH1 0x2 EXP SUB AND ISZERO ISZERO PUSH2 0x3D27 JUMPI PUSH2 0x3CA9 PUSH2 0x3CA3 DUP10 DUP8 PUSH2 0x438B JUMP JUMPDEST DUP8 PUSH2 0x438B JUMP JUMPDEST PUSH1 0xE0 DUP13 ADD MLOAD PUSH1 0x40 MLOAD SWAP2 SWAP10 POP PUSH1 0x1 PUSH1 0xA0 PUSH1 0x2 EXP SUB AND SWAP1 DUP7 ISZERO PUSH2 0x8FC MUL SWAP1 DUP8 SWAP1 PUSH1 0x0 DUP2 DUP2 DUP2 DUP6 DUP9 DUP9 CALL SWAP4 POP POP POP POP ISZERO DUP1 ISZERO PUSH2 0x3CE6 JUMPI RETURNDATASIZE PUSH1 0x0 DUP1 RETURNDATACOPY RETURNDATASIZE PUSH1 0x0 REVERT JUMPDEST POP PUSH1 0xC SLOAD PUSH1 0x40 MLOAD PUSH1 0x1 PUSH1 0xA0 PUSH1 0x2 EXP SUB SWAP1 SWAP2 AND SWAP1 DUP8 ISZERO PUSH2 0x8FC MUL SWAP1 DUP9 SWAP1 PUSH1 0x0 DUP2 DUP2 DUP2 DUP6 DUP9 DUP9 CALL SWAP4 POP POP POP POP ISZERO DUP1 ISZERO PUSH2 0x3D21 JUMPI RETURNDATASIZE PUSH1 0x0 DUP1 RETURNDATACOPY RETURNDATASIZE PUSH1 0x0 REVERT JUMPDEST POP PUSH2 0x3D63 JUMP JUMPDEST PUSH2 0x3D40 DUP12 PUSH2 0x1C0 ADD MLOAD DUP13 PUSH1 0x20 ADD MLOAD DUP14 PUSH1 0xE0 ADD MLOAD DUP9 PUSH2 0x4404 JUMP JUMPDEST PUSH2 0x1C0 DUP12 ADD MLOAD PUSH1 0x20 DUP13 ADD MLOAD PUSH1 0xC SLOAD PUSH2 0x3D63 SWAP3 SWAP2 SWAP1 PUSH1 0x1 PUSH1 0xA0 PUSH1 0x2 EXP SUB AND DUP10 PUSH2 0x4404 JUMP JUMPDEST PUSH1 0x0 DUP12 PUSH1 0x80 ADD MLOAD GT ISZERO PUSH2 0x3E66 JUMPI PUSH2 0x3D81 PUSH2 0x3B63 DUP13 PUSH1 0x80 ADD MLOAD DUP12 PUSH2 0x439D JUMP JUMPDEST PUSH2 0x1C0 DUP13 ADD MLOAD SWAP1 SWAP5 POP PUSH1 0x1 PUSH1 0xA0 PUSH1 0x2 EXP SUB AND ISZERO ISZERO PUSH2 0x3E2A JUMPI PUSH2 0x3DAC PUSH2 0x3DA6 DUP9 DUP7 PUSH2 0x43DB JUMP JUMPDEST DUP8 PUSH2 0x43DB JUMP JUMPDEST PUSH1 0xE0 DUP13 ADD MLOAD PUSH1 0x40 MLOAD SWAP2 SWAP9 POP PUSH1 0x1 PUSH1 0xA0 PUSH1 0x2 EXP SUB AND SWAP1 DUP6 ISZERO PUSH2 0x8FC MUL SWAP1 DUP7 SWAP1 PUSH1 0x0 DUP2 DUP2 DUP2 DUP6 DUP9 DUP9 CALL SWAP4 POP POP POP POP ISZERO DUP1 ISZERO PUSH2 0x3DE9 JUMPI RETURNDATASIZE PUSH1 0x0 DUP1 RETURNDATACOPY RETURNDATASIZE PUSH1 0x0 REVERT JUMPDEST POP PUSH1 0xC SLOAD PUSH1 0x40 MLOAD PUSH1 0x1 PUSH1 0xA0 PUSH1 0x2 EXP SUB SWAP1 SWAP2 AND SWAP1 DUP8 ISZERO PUSH2 0x8FC MUL SWAP1 DUP9 SWAP1 PUSH1 0x0 DUP2 DUP2 DUP2 DUP6 DUP9 DUP9 CALL SWAP4 POP POP POP POP ISZERO DUP1 ISZERO PUSH2 0x3E24 JUMPI RETURNDATASIZE PUSH1 0x0 DUP1 RETURNDATACOPY RETURNDATASIZE PUSH1 0x0 REVERT JUMPDEST POP PUSH2 0x3E66 JUMP JUMPDEST PUSH2 0x3E43 DUP12 PUSH2 0x1C0 ADD MLOAD DUP14 PUSH1 0x20 ADD MLOAD DUP14 PUSH1 0xE0 ADD MLOAD DUP8 PUSH2 0x4404 JUMP JUMPDEST PUSH2 0x1C0 DUP12 ADD MLOAD PUSH1 0x20 DUP14 ADD MLOAD PUSH1 0xC SLOAD PUSH2 0x3E66 SWAP3 SWAP2 SWAP1 PUSH1 0x1 PUSH1 0xA0 PUSH1 0x2 EXP SUB AND DUP10 PUSH2 0x4404 JUMP JUMPDEST PUSH1 0x0 DUP12 PUSH1 0xA0 ADD MLOAD GT ISZERO PUSH2 0x3F0A JUMPI PUSH2 0x3E84 PUSH2 0x3B63 DUP13 PUSH1 0xA0 ADD MLOAD DUP12 PUSH2 0x439D JUMP JUMPDEST PUSH2 0x1C0 DUP13 ADD MLOAD SWAP1 SWAP4 POP PUSH1 0x1 PUSH1 0xA0 PUSH1 0x2 EXP SUB AND ISZERO ISZERO PUSH2 0x3EE7 JUMPI PUSH2 0x3EA6 DUP9 DUP5 PUSH2 0x438B JUMP JUMPDEST PUSH1 0x9 SLOAD PUSH1 0x40 MLOAD SWAP2 SWAP10 POP PUSH1 0x1 PUSH1 0xA0 PUSH1 0x2 EXP SUB AND SWAP1 DUP5 ISZERO PUSH2 0x8FC MUL SWAP1 DUP6 SWAP1 PUSH1 0x0 DUP2 DUP2 DUP2 DUP6 DUP9 DUP9 CALL SWAP4 POP POP POP POP ISZERO DUP1 ISZERO PUSH2 0x3EE1 JUMPI RETURNDATASIZE PUSH1 0x0 DUP1 RETURNDATACOPY RETURNDATASIZE PUSH1 0x0 REVERT JUMPDEST POP PUSH2 0x3F0A JUMP JUMPDEST PUSH2 0x1C0 DUP12 ADD MLOAD PUSH1 0x20 DUP13 ADD MLOAD PUSH1 0x9 SLOAD PUSH2 0x3F0A SWAP3 SWAP2 SWAP1 PUSH1 0x1 PUSH1 0xA0 PUSH1 0x2 EXP SUB AND DUP7 PUSH2 0x4404 JUMP JUMPDEST PUSH1 0x0 DUP12 PUSH1 0xC0 ADD MLOAD GT ISZERO PUSH2 0x3FAE JUMPI PUSH2 0x3F28 PUSH2 0x3B63 DUP13 PUSH1 0xC0 ADD MLOAD DUP12 PUSH2 0x439D JUMP JUMPDEST PUSH2 0x1C0 DUP13 ADD MLOAD SWAP1 SWAP3 POP PUSH1 0x1 PUSH1 0xA0 PUSH1 0x2 EXP SUB AND ISZERO ISZERO PUSH2 0x3F8B JUMPI PUSH2 0x3F4A DUP8 DUP4 PUSH2 0x43DB JUMP JUMPDEST PUSH1 0x9 SLOAD PUSH1 0x40 MLOAD SWAP2 SWAP9 POP PUSH1 0x1 PUSH1 0xA0 PUSH1 0x2 EXP SUB AND SWAP1 DUP4 ISZERO PUSH2 0x8FC MUL SWAP1 DUP5 SWAP1 PUSH1 0x0 DUP2 DUP2 DUP2 DUP6 DUP9 DUP9 CALL SWAP4 POP POP POP POP ISZERO DUP1 ISZERO PUSH2 0x3F85 JUMPI RETURNDATASIZE PUSH1 0x0 DUP1 RETURNDATACOPY RETURNDATASIZE PUSH1 0x0 REVERT JUMPDEST POP PUSH2 0x3FAE JUMP JUMPDEST PUSH2 0x1C0 DUP12 ADD MLOAD PUSH1 0x20 DUP14 ADD MLOAD PUSH1 0x9 SLOAD PUSH2 0x3FAE SWAP3 SWAP2 SWAP1 PUSH1 0x1 PUSH1 0xA0 PUSH1 0x2 EXP SUB AND DUP6 PUSH2 0x4404 JUMP JUMPDEST PUSH2 0x401F JUMP JUMPDEST PUSH2 0x3FCA DUP12 PUSH1 0x20 ADD MLOAD DUP13 PUSH1 0xE0 ADD MLOAD DUP14 PUSH1 0x60 ADD MLOAD PUSH2 0x44C3 JUMP JUMPDEST PUSH1 0x20 DUP12 ADD MLOAD PUSH1 0xC SLOAD PUSH1 0xA SLOAD PUSH2 0x3FE9 SWAP3 SWAP2 PUSH1 0x1 PUSH1 0xA0 PUSH1 0x2 EXP SUB AND SWAP1 PUSH2 0x44C3 JUMP JUMPDEST PUSH2 0x4000 DUP13 PUSH1 0x20 ADD MLOAD DUP13 PUSH1 0xE0 ADD MLOAD DUP14 PUSH1 0x80 ADD MLOAD PUSH2 0x44C3 JUMP JUMPDEST PUSH1 0x20 DUP13 ADD MLOAD PUSH1 0xC SLOAD PUSH1 0xA SLOAD PUSH2 0x401F SWAP3 SWAP2 PUSH1 0x1 PUSH1 0xA0 PUSH1 0x2 EXP SUB AND SWAP1 PUSH2 0x44C3 JUMP JUMPDEST PUSH2 0x4265 JUMP JUMPDEST PUSH1 0x80 DUP1 DUP13 ADD MLOAD SWAP1 DUP14 ADD MLOAD GT ISZERO PUSH2 0x4039 JUMPI PUSH1 0x0 DUP1 REVERT JUMPDEST PUSH1 0x1 DUP12 PUSH2 0x120 ADD MLOAD PUSH1 0x1 DUP2 GT ISZERO PUSH2 0x404C JUMPI INVALID JUMPDEST EQ ISZERO PUSH2 0x41F9 JUMPI PUSH2 0x1C0 DUP12 ADD MLOAD PUSH1 0x1 PUSH1 0xA0 PUSH1 0x2 EXP SUB AND ISZERO ISZERO PUSH2 0x406C JUMPI PUSH1 0x0 DUP1 REVERT JUMPDEST PUSH1 0xC0 DUP1 DUP13 ADD MLOAD SWAP1 DUP14 ADD MLOAD GT ISZERO PUSH2 0x4081 JUMPI PUSH1 0x0 DUP1 REVERT JUMPDEST PUSH1 0x60 DUP13 ADD MLOAD ISZERO DUP1 ISZERO PUSH2 0x4095 JUMPI POP PUSH1 0x80 DUP13 ADD MLOAD ISZERO JUMPDEST ISZERO PUSH2 0x40BD JUMPI PUSH2 0x1C0 DUP12 ADD MLOAD PUSH1 0x20 DUP13 ADD MLOAD PUSH1 0xC SLOAD PUSH2 0x40BD SWAP3 SWAP2 SWAP1 PUSH1 0x1 PUSH1 0xA0 PUSH1 0x2 EXP SUB AND DUP10 PUSH2 0x4404 JUMP JUMPDEST PUSH1 0x0 DUP13 PUSH1 0x60 ADD MLOAD GT ISZERO PUSH2 0x4119 JUMPI PUSH2 0x40DB PUSH2 0x3B63 DUP14 PUSH1 0x60 ADD MLOAD DUP12 PUSH2 0x439D JUMP JUMPDEST SWAP5 POP PUSH2 0x40F6 DUP12 PUSH2 0x1C0 ADD MLOAD DUP14 PUSH1 0x20 ADD MLOAD DUP15 PUSH1 0xE0 ADD MLOAD DUP9 PUSH2 0x4404 JUMP JUMPDEST PUSH2 0x1C0 DUP12 ADD MLOAD PUSH1 0x20 DUP14 ADD MLOAD PUSH1 0xC SLOAD PUSH2 0x4119 SWAP3 SWAP2 SWAP1 PUSH1 0x1 PUSH1 0xA0 PUSH1 0x2 EXP SUB AND DUP10 PUSH2 0x4404 JUMP JUMPDEST PUSH1 0x0 DUP13 PUSH1 0x80 ADD MLOAD GT ISZERO PUSH2 0x4175 JUMPI PUSH2 0x4137 PUSH2 0x3B63 DUP14 PUSH1 0x80 ADD MLOAD DUP12 PUSH2 0x439D JUMP JUMPDEST SWAP4 POP PUSH2 0x4152 DUP12 PUSH2 0x1C0 ADD MLOAD DUP13 PUSH1 0x20 ADD MLOAD DUP15 PUSH1 0xE0 ADD MLOAD DUP8 PUSH2 0x4404 JUMP JUMPDEST PUSH2 0x1C0 DUP12 ADD MLOAD PUSH1 0x20 DUP13 ADD MLOAD PUSH1 0xC SLOAD PUSH2 0x4175 SWAP3 SWAP2 SWAP1 PUSH1 0x1 PUSH1 0xA0 PUSH1 0x2 EXP SUB AND DUP10 PUSH2 0x4404 JUMP JUMPDEST PUSH1 0x0 DUP13 PUSH1 0xA0 ADD MLOAD GT ISZERO PUSH2 0x41B7 JUMPI PUSH2 0x4193 PUSH2 0x3B63 DUP14 PUSH1 0xA0 ADD MLOAD DUP12 PUSH2 0x439D JUMP JUMPDEST PUSH2 0x1C0 DUP13 ADD MLOAD PUSH1 0x20 DUP15 ADD MLOAD PUSH1 0x9 SLOAD SWAP3 SWAP6 POP PUSH2 0x41B7 SWAP3 PUSH1 0x1 PUSH1 0xA0 PUSH1 0x2 EXP SUB AND DUP7 PUSH2 0x4404 JUMP JUMPDEST PUSH1 0x0 DUP13 PUSH1 0xC0 ADD MLOAD GT ISZERO PUSH2 0x401F JUMPI PUSH2 0x41D5 PUSH2 0x3B63 DUP14 PUSH1 0xC0 ADD MLOAD DUP12 PUSH2 0x439D JUMP JUMPDEST PUSH2 0x1C0 DUP13 ADD MLOAD PUSH1 0x20 DUP14 ADD MLOAD PUSH1 0x9 SLOAD SWAP3 SWAP5 POP PUSH2 0x401F SWAP3 PUSH1 0x1 PUSH1 0xA0 PUSH1 0x2 EXP SUB AND DUP6 PUSH2 0x4404 JUMP JUMPDEST PUSH2 0x4210 DUP13 PUSH1 0x20 ADD MLOAD DUP14 PUSH1 0xE0 ADD MLOAD DUP15 PUSH1 0x60 ADD MLOAD PUSH2 0x44C3 JUMP JUMPDEST PUSH1 0x20 DUP13 ADD MLOAD PUSH1 0xC SLOAD PUSH1 0xA SLOAD PUSH2 0x422F SWAP3 SWAP2 PUSH1 0x1 PUSH1 0xA0 PUSH1 0x2 EXP SUB AND SWAP1 PUSH2 0x44C3 JUMP JUMPDEST PUSH2 0x4246 DUP12 PUSH1 0x20 ADD MLOAD DUP14 PUSH1 0xE0 ADD MLOAD DUP15 PUSH1 0x80 ADD MLOAD PUSH2 0x44C3 JUMP JUMPDEST PUSH1 0x20 DUP12 ADD MLOAD PUSH1 0xC SLOAD PUSH1 0xA SLOAD PUSH2 0x4265 SWAP3 SWAP2 PUSH1 0x1 PUSH1 0xA0 PUSH1 0x2 EXP SUB AND SWAP1 PUSH2 0x44C3 JUMP JUMPDEST PUSH2 0x1C0 DUP12 ADD MLOAD PUSH1 0x1 PUSH1 0xA0 PUSH1 0x2 EXP SUB AND ISZERO ISZERO PUSH2 0x4319 JUMPI CALLVALUE DUP8 GT ISZERO PUSH2 0x4287 JUMPI PUSH1 0x0 DUP1 REVERT JUMPDEST DUP11 PUSH1 0x20 ADD MLOAD PUSH1 0x1 PUSH1 0xA0 PUSH1 0x2 EXP SUB AND PUSH2 0x8FC DUP10 SWAP1 DUP2 ISZERO MUL SWAP1 PUSH1 0x40 MLOAD PUSH1 0x0 PUSH1 0x40 MLOAD DUP1 DUP4 SUB DUP2 DUP6 DUP9 DUP9 CALL SWAP4 POP POP POP POP ISZERO DUP1 ISZERO PUSH2 0x42C4 JUMPI RETURNDATASIZE PUSH1 0x0 DUP1 RETURNDATACOPY RETURNDATASIZE PUSH1 0x0 REVERT JUMPDEST POP PUSH2 0x42CF CALLVALUE DUP9 PUSH2 0x438B JUMP JUMPDEST SWAP1 POP PUSH1 0x0 DUP2 GT ISZERO PUSH2 0x4319 JUMPI DUP12 PUSH1 0x20 ADD MLOAD PUSH1 0x1 PUSH1 0xA0 PUSH1 0x2 EXP SUB AND PUSH2 0x8FC DUP3 SWAP1 DUP2 ISZERO MUL SWAP1 PUSH1 0x40 MLOAD PUSH1 0x0 PUSH1 0x40 MLOAD DUP1 DUP4 SUB DUP2 DUP6 DUP9 DUP9 CALL SWAP4 POP POP POP POP ISZERO DUP1 ISZERO PUSH2 0x4317 JUMPI RETURNDATASIZE PUSH1 0x0 DUP1 RETURNDATACOPY RETURNDATASIZE PUSH1 0x0 REVERT JUMPDEST POP JUMPDEST POP SWAP7 SWAP11 SWAP10 POP POP POP POP POP POP POP POP POP POP JUMP JUMPDEST PUSH1 0x9 ADD PUSH1 0x20 MUL PUSH1 0x7D ADD SWAP2 SWAP1 POP JUMP JUMPDEST PUSH1 0x1 PUSH1 0xA0 PUSH1 0x2 EXP SUB AND PUSH13 0x1000000000000000000000000 MUL DUP2 MSTORE PUSH1 0x14 ADD SWAP1 JUMP JUMPDEST DUP2 MSTORE PUSH1 0x20 ADD SWAP1 JUMP JUMPDEST PUSH1 0x0 DUP2 DUP4 MSTORE8 POP POP PUSH1 0x1 ADD SWAP1 JUMP JUMPDEST PUSH1 0x0 DUP1 DUP4 PUSH1 0x1 DUP2 GT ISZERO PUSH2 0x437B JUMPI INVALID JUMPDEST EQ DUP1 PUSH2 0x392A JUMPI POP POP PUSH1 0x0 LT SWAP2 SWAP1 POP JUMP JUMPDEST PUSH1 0x0 DUP3 DUP3 GT ISZERO PUSH2 0x4397 JUMPI INVALID JUMPDEST POP SWAP1 SUB SWAP1 JUMP JUMPDEST PUSH1 0x0 DUP3 ISZERO ISZERO PUSH2 0x43AE JUMPI POP PUSH1 0x0 PUSH2 0x392D JUMP JUMPDEST POP DUP2 DUP2 MUL DUP2 DUP4 DUP3 DUP2 ISZERO ISZERO PUSH2 0x43BE JUMPI INVALID JUMPDEST DIV EQ PUSH2 0x392D JUMPI INVALID JUMPDEST PUSH1 0x0 DUP2 DUP4 DUP2 ISZERO ISZERO PUSH2 0x43D3 JUMPI INVALID JUMPDEST DIV SWAP4 SWAP3 POP POP POP JUMP JUMPDEST DUP2 DUP2 ADD DUP3 DUP2 LT ISZERO PUSH2 0x392D JUMPI INVALID JUMPDEST PUSH1 0x0 TIMESTAMP DUP4 LT DUP1 ISZERO PUSH2 0x392A JUMPI POP DUP2 ISZERO DUP1 PUSH2 0x392A JUMPI POP POP TIMESTAMP LT SWAP2 SWAP1 POP JUMP JUMPDEST PUSH1 0x0 DUP2 GT ISZERO PUSH2 0x1130 JUMPI PUSH1 0x3 SLOAD PUSH1 0x40 DUP1 MLOAD PUSH32 0x15DACBEA00000000000000000000000000000000000000000000000000000000 DUP2 MSTORE PUSH1 0x1 PUSH1 0xA0 PUSH1 0x2 EXP SUB DUP8 DUP2 AND PUSH1 0x4 DUP4 ADD MSTORE DUP7 DUP2 AND PUSH1 0x24 DUP4 ADD MSTORE DUP6 DUP2 AND PUSH1 0x44 DUP4 ADD MSTORE PUSH1 0x64 DUP3 ADD DUP6 SWAP1 MSTORE SWAP2 MLOAD SWAP2 SWAP1 SWAP3 AND SWAP2 PUSH4 0x15DACBEA SWAP2 PUSH1 0x84 DUP1 DUP4 ADD SWAP3 PUSH1 0x20 SWAP3 SWAP2 SWAP1 DUP3 SWAP1 SUB ADD DUP2 PUSH1 0x0 DUP8 DUP1 EXTCODESIZE ISZERO DUP1 ISZERO PUSH2 0x448C JUMPI PUSH1 0x0 DUP1 REVERT JUMPDEST POP GAS CALL ISZERO DUP1 ISZERO PUSH2 0x44A0 JUMPI RETURNDATASIZE PUSH1 0x0 DUP1 RETURNDATACOPY RETURNDATASIZE PUSH1 0x0 REVERT JUMPDEST POP POP POP POP PUSH1 0x40 MLOAD RETURNDATASIZE PUSH1 0x20 DUP2 LT ISZERO PUSH2 0x44B6 JUMPI PUSH1 0x0 DUP1 REVERT JUMPDEST POP MLOAD ISZERO ISZERO PUSH2 0x1130 JUMPI PUSH1 0x0 DUP1 REVERT JUMPDEST PUSH1 0x1 SLOAD PUSH2 0x44DB SWAP1 PUSH1 0x1 PUSH1 0xA0 PUSH1 0x2 EXP SUB AND DUP5 DUP5 DUP5 PUSH2 0x4404 JUMP JUMPDEST POP POP POP JUMP JUMPDEST PUSH1 0x40 DUP1 MLOAD PUSH2 0x280 DUP2 ADD DUP3 MSTORE PUSH1 0x0 DUP1 DUP3 MSTORE PUSH1 0x20 DUP3 ADD DUP2 SWAP1 MSTORE SWAP2 DUP2 ADD DUP3 SWAP1 MSTORE PUSH1 0x60 DUP2 ADD DUP3 SWAP1 MSTORE PUSH1 0x80 DUP2 ADD DUP3 SWAP1 MSTORE PUSH1 0xA0 DUP2 ADD DUP3 SWAP1 MSTORE PUSH1 0xC0 DUP2 ADD DUP3 SWAP1 MSTORE PUSH1 0xE0 DUP2 ADD DUP3 SWAP1 MSTORE SWAP1 PUSH2 0x100 DUP3 ADD SWAP1 DUP2 MSTORE PUSH1 0x20 ADD PUSH1 0x0 DUP2 MSTORE PUSH1 0x20 ADD PUSH1 0x0 DUP2 MSTORE PUSH1 0x20 ADD PUSH1 0x0 DUP2 MSTORE PUSH1 0x0 PUSH1 0x20 DUP3 ADD DUP2 SWAP1 MSTORE PUSH1 0x40 SWAP1 SWAP2 ADD SWAP1 DUP2 MSTORE PUSH1 0x20 ADD PUSH1 0x0 PUSH1 0x1 PUSH1 0xA0 PUSH1 0x2 EXP SUB AND DUP2 MSTORE PUSH1 0x20 ADD PUSH1 0x0 DUP2 MSTORE PUSH1 0x20 ADD PUSH1 0x0 DUP2 MSTORE PUSH1 0x20 ADD PUSH1 0x0 DUP2 MSTORE PUSH1 0x20 ADD PUSH1 0x0 DUP2 MSTORE PUSH1 0x20 ADD PUSH1 0x0 DUP2 MSTORE POP SWAP1 JUMP STOP LOG1 PUSH6 0x627A7A723058 KECCAK256 0xdf DUP3 0x47 0xe0 DUP2 DIFFICULTY PUSH2 0x87E9 0xb2 SLT 0x2e PUSH2 0xCB61 0xe7 0xf6 0xd5 SLT 0xa5 EQ PUSH16 0xDFD7A841D9966C23A87A002900000000 "
		},
		"gasEstimates": {
			"creation": {
				"codeDepositCost": "3568400",
				"executionCost": "246059",
				"totalCost": "3814459"
			},
			"external": {
				"INVERSE_BASIS_POINT()": "1017",
				"_delaySetFeeRecipientTime()": "997",
				"_delaySetFeeTime()": "535",
				"_exchangeFee()": "1195",
				"_relayExchangeFee()": "1283",
				"_relayRewardFeeRecipient()": "908",
				"_relaySetFeeRecipientTime()": "645",
				"_relaySetFeeTime()": "447",
				"_rewardFeeRecipient()": "1326",
				"approveOrder_(address[6],uint256[9],uint8,uint8,uint8,uint8,uint8,uint256[])": "infinite",
				"approvedOrders(bytes32)": "1389",
				"atomicMatch_(address[12],uint256[18],uint8[10],uint256[])": "infinite",
				"calculateCurrentPrice_(address[6],uint256[9],uint8,uint8,uint8,uint8,uint8)": "infinite",
				"calculateFinalPrice(uint8,uint8,uint256,uint256,uint256,uint256)": "infinite",
				"calculateMatchPrice_(address[12],uint256[18],uint8[10])": "infinite",
				"cancelOrder_(address[6],uint256[9],uint8,uint8,uint8,uint8,uint8,uint256[])": "infinite",
				"cancelledOrFinalized(bytes32)": "1103",
				"changeMinimumMakerProtocolFee(uint256)": "20620",
				"changeMinimumTakerProtocolFee(uint256)": "20642",
				"changeProtocolFeeRecipient(address)": "21182",
				"codename()": "infinite",
				"exchangeToken()": "1282",
				"guardedArrayReplace(bytes,bytes,bytes)": "infinite",
				"hashOrder_(address[6],uint256[9],uint8,uint8,uint8,uint8,uint8,uint256[])": "infinite",
				"hashToSign_(address[6],uint256[9],uint8,uint8,uint8,uint8,uint8,uint256[])": "infinite",
				"matchIndex(bytes32)": "871",
				"minimumMakerProtocolFee()": "975",
				"minimumTakerProtocolFee()": "623",
				"name()": "infinite",
				"ordersCanMatch_(address[12],uint256[18],uint8[10])": "infinite",
				"owner()": "1249",
				"protocolFeeRecipient()": "1040",
				"registry()": "1106",
				"relaySetFee(uint256)": "42956",
				"relaySetFeeRecipient(address)": "43153",
				"renounceOwnership()": "22638",
				"setFee(uint256)": "28208",
				"setFeeRecipient(address)": "29096",
				"tokenTransferProxy()": "666",
				"transferOwnership(address)": "23729",
				"validateOrderParameters_(address[6],uint256[9],uint8,uint8,uint8,uint8,uint8)": "infinite",
				"validateOrder_(address[6],uint256[9],uint8,uint8,uint8,uint8,uint8,uint256[])": "infinite",
				"version()": "infinite"
			}
		},
		"methodIdentifiers": {
			"INVERSE_BASIS_POINT()": "cae6047f",
			"_delaySetFeeRecipientTime()": "7e84cbd4",
			"_delaySetFeeTime()": "1305f35c",
			"_exchangeFee()": "c3b2d4d9",
			"_relayExchangeFee()": "e363db2f",
			"_relayRewardFeeRecipient()": "51917b0a",
			"_relaySetFeeRecipientTime()": "2e819a03",
			"_relaySetFeeTime()": "04588e05",
			"_rewardFeeRecipient()": "bfa1dc30",
			"approveOrder_(address[6],uint256[9],uint8,uint8,uint8,uint8,uint8,uint256[])": "5c629816",
			"approvedOrders(bytes32)": "e57d4adb",
			"atomicMatch_(address[12],uint256[18],uint8[10],uint256[])": "07ce0553",
			"calculateCurrentPrice_(address[6],uint256[9],uint8,uint8,uint8,uint8,uint8)": "923b04cb",
			"calculateFinalPrice(uint8,uint8,uint256,uint256,uint256,uint256)": "63d36c0b",
			"calculateMatchPrice_(address[12],uint256[18],uint8[10])": "d51323c7",
			"cancelOrder_(address[6],uint256[9],uint8,uint8,uint8,uint8,uint8,uint256[])": "6296eb7e",
			"cancelledOrFinalized(bytes32)": "8076f005",
			"changeMinimumMakerProtocolFee(uint256)": "14350c24",
			"changeMinimumTakerProtocolFee(uint256)": "1a6b13e2",
			"changeProtocolFeeRecipient(address)": "514f0330",
			"codename()": "31e63199",
			"exchangeToken()": "a25eb5d9",
			"guardedArrayReplace(bytes,bytes,bytes)": "239e83df",
			"hashOrder_(address[6],uint256[9],uint8,uint8,uint8,uint8,uint8,uint256[])": "401e3813",
			"hashToSign_(address[6],uint256[9],uint8,uint8,uint8,uint8,uint8,uint256[])": "a9e24d01",
			"matchIndex(bytes32)": "5bdb1128",
			"minimumMakerProtocolFee()": "7ccefc52",
			"minimumTakerProtocolFee()": "28a8ee68",
			"name()": "06fdde03",
			"ordersCanMatch_(address[12],uint256[18],uint8[10])": "83b75676",
			"owner()": "8da5cb5b",
			"protocolFeeRecipient()": "64df049e",
			"registry()": "7b103999",
			"relaySetFee(uint256)": "e058ce97",
			"relaySetFeeRecipient(address)": "85bdf989",
			"renounceOwnership()": "715018a6",
			"setFee(uint256)": "69fe0e2d",
			"setFeeRecipient(address)": "e74b981b",
			"tokenTransferProxy()": "0eefdbad",
			"transferOwnership(address)": "f2fde38b",
			"validateOrderParameters_(address[6],uint256[9],uint8,uint8,uint8,uint8,uint8)": "4ec48d09",
			"validateOrder_(address[6],uint256[9],uint8,uint8,uint8,uint8,uint8,uint256[])": "f984ec59",
			"version()": "54fd4d50"
		}
	},
	"abi": [
		{
			"constant": true,
			"inputs": [],
			"name": "_relaySetFeeTime",
			"outputs": [
				{
					"name": "",
					"type": "uint256"
				}
			],
			"payable": false,
			"stateMutability": "view",
			"type": "function"
		},
		{
			"constant": true,
			"inputs": [],
			"name": "name",
			"outputs": [
				{
					"name": "",
					"type": "string"
				}
			],
			"payable": false,
			"stateMutability": "view",
			"type": "function"
		},
		{
			"constant": false,
			"inputs": [
				{
					"name": "addrs",
					"type": "address[12]"
				},
				{
					"name": "uints",
					"type": "uint256[18]"
				},
				{
					"name": "orderTypefeeMethodsSidesKindsHowToCalls",
					"type": "uint8[10]"
				},
				{
					"name": "tokens",
					"type": "uint256[]"
				}
			],
			"name": "atomicMatch_",
			"outputs": [],
			"payable": true,
			"stateMutability": "payable",
			"type": "function"
		},
		{
			"constant": true,
			"inputs": [],
			"name": "tokenTransferProxy",
			"outputs": [
				{
					"name": "",
					"type": "address"
				}
			],
			"payable": false,
			"stateMutability": "view",
			"type": "function"
		},
		{
			"constant": true,
			"inputs": [],
			"name": "_delaySetFeeTime",
			"outputs": [
				{
					"name": "",
					"type": "uint256"
				}
			],
			"payable": false,
			"stateMutability": "view",
			"type": "function"
		},
		{
			"constant": false,
			"inputs": [
				{
					"name": "newMinimumMakerProtocolFee",
					"type": "uint256"
				}
			],
			"name": "changeMinimumMakerProtocolFee",
			"outputs": [],
			"payable": false,
			"stateMutability": "nonpayable",
			"type": "function"
		},
		{
			"constant": false,
			"inputs": [
				{
					"name": "newMinimumTakerProtocolFee",
					"type": "uint256"
				}
			],
			"name": "changeMinimumTakerProtocolFee",
			"outputs": [],
			"payable": false,
			"stateMutability": "nonpayable",
			"type": "function"
		},
		{
			"constant": true,
			"inputs": [
				{
					"name": "array",
					"type": "bytes"
				},
				{
					"name": "desired",
					"type": "bytes"
				},
				{
					"name": "mask",
					"type": "bytes"
				}
			],
			"name": "guardedArrayReplace",
			"outputs": [
				{
					"name": "",
					"type": "bytes"
				}
			],
			"payable": false,
			"stateMutability": "view",
			"type": "function"
		},
		{
			"constant": true,
			"inputs": [],
			"name": "minimumTakerProtocolFee",
			"outputs": [
				{
					"name": "",
					"type": "uint256"
				}
			],
			"payable": false,
			"stateMutability": "view",
			"type": "function"
		},
		{
			"constant": true,
			"inputs": [],
			"name": "_relaySetFeeRecipientTime",
			"outputs": [
				{
					"name": "",
					"type": "uint256"
				}
			],
			"payable": false,
			"stateMutability": "view",
			"type": "function"
		},
		{
			"constant": true,
			"inputs": [],
			"name": "codename",
			"outputs": [
				{
					"name": "",
					"type": "string"
				}
			],
			"payable": false,
			"stateMutability": "view",
			"type": "function"
		},
		{
			"constant": true,
			"inputs": [
				{
					"name": "addrs",
					"type": "address[6]"
				},
				{
					"name": "uints",
					"type": "uint256[9]"
				},
				{
					"name": "orderType",
					"type": "uint8"
				},
				{
					"name": "feeMethod",
					"type": "uint8"
				},
				{
					"name": "side",
					"type": "uint8"
				},
				{
					"name": "saleKind",
					"type": "uint8"
				},
				{
					"name": "howToCall",
					"type": "uint8"
				},
				{
					"name": "tokens",
					"type": "uint256[]"
				}
			],
			"name": "hashOrder_",
			"outputs": [
				{
					"name": "",
					"type": "bytes32"
				}
			],
			"payable": false,
			"stateMutability": "view",
			"type": "function"
		},
		{
			"constant": true,
			"inputs": [
				{
					"name": "addrs",
					"type": "address[6]"
				},
				{
					"name": "uints",
					"type": "uint256[9]"
				},
				{
					"name": "orderType",
					"type": "uint8"
				},
				{
					"name": "feeMethod",
					"type": "uint8"
				},
				{
					"name": "side",
					"type": "uint8"
				},
				{
					"name": "saleKind",
					"type": "uint8"
				},
				{
					"name": "howToCall",
					"type": "uint8"
				}
			],
			"name": "validateOrderParameters_",
			"outputs": [
				{
					"name": "",
					"type": "bool"
				}
			],
			"payable": false,
			"stateMutability": "view",
			"type": "function"
		},
		{
			"constant": false,
			"inputs": [
				{
					"name": "newProtocolFeeRecipient",
					"type": "address"
				}
			],
			"name": "changeProtocolFeeRecipient",
			"outputs": [],
			"payable": false,
			"stateMutability": "nonpayable",
			"type": "function"
		},
		{
			"constant": true,
			"inputs": [],
			"name": "_relayRewardFeeRecipient",
			"outputs": [
				{
					"name": "",
					"type": "address"
				}
			],
			"payable": false,
			"stateMutability": "view",
			"type": "function"
		},
		{
			"constant": true,
			"inputs": [],
			"name": "version",
			"outputs": [
				{
					"name": "",
					"type": "string"
				}
			],
			"payable": false,
			"stateMutability": "view",
			"type": "function"
		},
		{
			"constant": true,
			"inputs": [
				{
					"name": "",
					"type": "bytes32"
				}
			],
			"name": "matchIndex",
			"outputs": [
				{
					"name": "",
					"type": "uint256"
				}
			],
			"payable": false,
			"stateMutability": "view",
			"type": "function"
		},
		{
			"constant": false,
			"inputs": [
				{
					"name": "addrs",
					"type": "address[6]"
				},
				{
					"name": "uints",
					"type": "uint256[9]"
				},
				{
					"name": "orderType",
					"type": "uint8"
				},
				{
					"name": "feeMethod",
					"type": "uint8"
				},
				{
					"name": "side",
					"type": "uint8"
				},
				{
					"name": "saleKind",
					"type": "uint8"
				},
				{
					"name": "howToCall",
					"type": "uint8"
				},
				{
					"name": "tokens",
					"type": "uint256[]"
				}
			],
			"name": "approveOrder_",
			"outputs": [],
			"payable": false,
			"stateMutability": "nonpayable",
			"type": "function"
		},
		{
			"constant": false,
			"inputs": [
				{
					"name": "addrs",
					"type": "address[6]"
				},
				{
					"name": "uints",
					"type": "uint256[9]"
				},
				{
					"name": "orderType",
					"type": "uint8"
				},
				{
					"name": "feeMethod",
					"type": "uint8"
				},
				{
					"name": "side",
					"type": "uint8"
				},
				{
					"name": "saleKind",
					"type": "uint8"
				},
				{
					"name": "howToCall",
					"type": "uint8"
				},
				{
					"name": "tokens",
					"type": "uint256[]"
				}
			],
			"name": "cancelOrder_",
			"outputs": [],
			"payable": false,
			"stateMutability": "nonpayable",
			"type": "function"
		},
		{
			"constant": true,
			"inputs": [
				{
					"name": "side",
					"type": "uint8"
				},
				{
					"name": "saleKind",
					"type": "uint8"
				},
				{
					"name": "basePrice",
					"type": "uint256"
				},
				{
					"name": "extra",
					"type": "uint256"
				},
				{
					"name": "listingTime",
					"type": "uint256"
				},
				{
					"name": "expirationTime",
					"type": "uint256"
				}
			],
			"name": "calculateFinalPrice",
			"outputs": [
				{
					"name": "",
					"type": "uint256"
				}
			],
			"payable": false,
			"stateMutability": "view",
			"type": "function"
		},
		{
			"constant": true,
			"inputs": [],
			"name": "protocolFeeRecipient",
			"outputs": [
				{
					"name": "",
					"type": "address"
				}
			],
			"payable": false,
			"stateMutability": "view",
			"type": "function"
		},
		{
			"constant": false,
			"inputs": [
				{
					"name": "exchangeFee_",
					"type": "uint256"
				}
			],
			"name": "setFee",
			"outputs": [],
			"payable": false,
			"stateMutability": "nonpayable",
			"type": "function"
		},
		{
			"constant": false,
			"inputs": [],
			"name": "renounceOwnership",
			"outputs": [],
			"payable": false,
			"stateMutability": "nonpayable",
			"type": "function"
		},
		{
			"constant": true,
			"inputs": [],
			"name": "registry",
			"outputs": [
				{
					"name": "",
					"type": "address"
				}
			],
			"payable": false,
			"stateMutability": "view",
			"type": "function"
		},
		{
			"constant": true,
			"inputs": [],
			"name": "minimumMakerProtocolFee",
			"outputs": [
				{
					"name": "",
					"type": "uint256"
				}
			],
			"payable": false,
			"stateMutability": "view",
			"type": "function"
		},
		{
			"constant": true,
			"inputs": [],
			"name": "_delaySetFeeRecipientTime",
			"outputs": [
				{
					"name": "",
					"type": "uint256"
				}
			],
			"payable": false,
			"stateMutability": "view",
			"type": "function"
		},
		{
			"constant": true,
			"inputs": [
				{
					"name": "",
					"type": "bytes32"
				}
			],
			"name": "cancelledOrFinalized",
			"outputs": [
				{
					"name": "",
					"type": "bool"
				}
			],
			"payable": false,
			"stateMutability": "view",
			"type": "function"
		},
		{
			"constant": true,
			"inputs": [
				{
					"name": "addrs",
					"type": "address[12]"
				},
				{
					"name": "uints",
					"type": "uint256[18]"
				},
				{
					"name": "orderTypeFeeMethodsSidesKindsHowToCalls",
					"type": "uint8[10]"
				}
			],
			"name": "ordersCanMatch_",
			"outputs": [
				{
					"name": "",
					"type": "bool"
				}
			],
			"payable": false,
			"stateMutability": "view",
			"type": "function"
		},
		{
			"constant": false,
			"inputs": [
				{
					"name": "relayRewardFeeRecipient_",
					"type": "address"
				}
			],
			"name": "relaySetFeeRecipient",
			"outputs": [],
			"payable": false,
			"stateMutability": "nonpayable",
			"type": "function"
		},
		{
			"constant": true,
			"inputs": [],
			"name": "owner",
			"outputs": [
				{
					"name": "",
					"type": "address"
				}
			],
			"payable": false,
			"stateMutability": "view",
			"type": "function"
		},
		{
			"constant": true,
			"inputs": [
				{
					"name": "addrs",
					"type": "address[6]"
				},
				{
					"name": "uints",
					"type": "uint256[9]"
				},
				{
					"name": "orderType",
					"type": "uint8"
				},
				{
					"name": "feeMethod",
					"type": "uint8"
				},
				{
					"name": "side",
					"type": "uint8"
				},
				{
					"name": "saleKind",
					"type": "uint8"
				},
				{
					"name": "howToCall",
					"type": "uint8"
				}
			],
			"name": "calculateCurrentPrice_",
			"outputs": [
				{
					"name": "",
					"type": "uint256"
				}
			],
			"payable": false,
			"stateMutability": "view",
			"type": "function"
		},
		{
			"constant": true,
			"inputs": [],
			"name": "exchangeToken",
			"outputs": [
				{
					"name": "",
					"type": "address"
				}
			],
			"payable": false,
			"stateMutability": "view",
			"type": "function"
		},
		{
			"constant": true,
			"inputs": [
				{
					"name": "addrs",
					"type": "address[6]"
				},
				{
					"name": "uints",
					"type": "uint256[9]"
				},
				{
					"name": "orderType",
					"type": "uint8"
				},
				{
					"name": "feeMethod",
					"type": "uint8"
				},
				{
					"name": "side",
					"type": "uint8"
				},
				{
					"name": "saleKind",
					"type": "uint8"
				},
				{
					"name": "howToCall",
					"type": "uint8"
				},
				{
					"name": "tokens",
					"type": "uint256[]"
				}
			],
			"name": "hashToSign_",
			"outputs": [
				{
					"name": "",
					"type": "bytes32"
				}
			],
			"payable": false,
			"stateMutability": "view",
			"type": "function"
		},
		{
			"constant": true,
			"inputs": [],
			"name": "_rewardFeeRecipient",
			"outputs": [
				{
					"name": "",
					"type": "address"
				}
			],
			"payable": false,
			"stateMutability": "view",
			"type": "function"
		},
		{
			"constant": true,
			"inputs": [],
			"name": "_exchangeFee",
			"outputs": [
				{
					"name": "",
					"type": "uint256"
				}
			],
			"payable": false,
			"stateMutability": "view",
			"type": "function"
		},
		{
			"constant": true,
			"inputs": [],
			"name": "INVERSE_BASIS_POINT",
			"outputs": [
				{
					"name": "",
					"type": "uint256"
				}
			],
			"payable": false,
			"stateMutability": "view",
			"type": "function"
		},
		{
			"constant": true,
			"inputs": [
				{
					"name": "addrs",
					"type": "address[12]"
				},
				{
					"name": "uints",
					"type": "uint256[18]"
				},
				{
					"name": "orderTypeFeeMethodsSidesKindsHowToCalls",
					"type": "uint8[10]"
				}
			],
			"name": "calculateMatchPrice_",
			"outputs": [
				{
					"name": "",
					"type": "uint256"
				}
			],
			"payable": false,
			"stateMutability": "view",
			"type": "function"
		},
		{
			"constant": false,
			"inputs": [
				{
					"name": "relayExchangeFee_",
					"type": "uint256"
				}
			],
			"name": "relaySetFee",
			"outputs": [],
			"payable": false,
			"stateMutability": "nonpayable",
			"type": "function"
		},
		{
			"constant": true,
			"inputs": [],
			"name": "_relayExchangeFee",
			"outputs": [
				{
					"name": "",
					"type": "uint256"
				}
			],
			"payable": false,
			"stateMutability": "view",
			"type": "function"
		},
		{
			"constant": true,
			"inputs": [
				{
					"name": "",
					"type": "bytes32"
				}
			],
			"name": "approvedOrders",
			"outputs": [
				{
					"name": "",
					"type": "bool"
				}
			],
			"payable": false,
			"stateMutability": "view",
			"type": "function"
		},
		{
			"constant": false,
			"inputs": [
				{
					"name": "rewardFeeRecipient_",
					"type": "address"
				}
			],
			"name": "setFeeRecipient",
			"outputs": [],
			"payable": false,
			"stateMutability": "nonpayable",
			"type": "function"
		},
		{
			"constant": false,
			"inputs": [
				{
					"name": "newOwner",
					"type": "address"
				}
			],
			"name": "transferOwnership",
			"outputs": [],
			"payable": false,
			"stateMutability": "nonpayable",
			"type": "function"
		},
		{
			"constant": true,
			"inputs": [
				{
					"name": "addrs",
					"type": "address[6]"
				},
				{
					"name": "uints",
					"type": "uint256[9]"
				},
				{
					"name": "orderType",
					"type": "uint8"
				},
				{
					"name": "feeMethod",
					"type": "uint8"
				},
				{
					"name": "side",
					"type": "uint8"
				},
				{
					"name": "saleKind",
					"type": "uint8"
				},
				{
					"name": "howToCall",
					"type": "uint8"
				},
				{
					"name": "tokens",
					"type": "uint256[]"
				}
			],
			"name": "validateOrder_",
			"outputs": [
				{
					"name": "",
					"type": "bool"
				}
			],
			"payable": false,
			"stateMutability": "view",
			"type": "function"
		},
		{
			"inputs": [
				{
					"name": "registryAddress",
					"type": "address"
				},
				{
					"name": "tokenTransferProxyAddress",
					"type": "address"
				},
				{
					"name": "tokenAddress",
					"type": "address"
				},
				{
					"name": "protocolFeeAddress",
					"type": "address"
				},
				{
					"name": "rewardFeeRecipient",
					"type": "address"
				}
			],
			"payable": false,
			"stateMutability": "nonpayable",
			"type": "constructor"
		},
		{
			"anonymous": false,
			"inputs": [
				{
					"indexed": true,
					"name": "hash",
					"type": "bytes32"
				},
				{
					"indexed": true,
					"name": "maker",
					"type": "address"
				},
				{
					"indexed": false,
					"name": "makerRelayerFee",
					"type": "uint256"
				},
				{
					"indexed": false,
					"name": "takerRelayerFee",
					"type": "uint256"
				},
				{
					"indexed": false,
					"name": "makerProtocolFee",
					"type": "uint256"
				},
				{
					"indexed": false,
					"name": "takerProtocolFee",
					"type": "uint256"
				},
				{
					"indexed": true,
					"name": "minter",
					"type": "address"
				}
			],
			"name": "OrderApproved",
			"type": "event"
		},
		{
			"anonymous": false,
			"inputs": [
				{
					"indexed": true,
					"name": "hash",
					"type": "bytes32"
				}
			],
			"name": "OrderCancelled",
			"type": "event"
		},
		{
			"anonymous": false,
			"inputs": [
				{
					"indexed": false,
					"name": "sellHash",
					"type": "bytes32"
				},
				{
					"indexed": true,
					"name": "maker",
					"type": "address"
				},
				{
					"indexed": true,
					"name": "taker",
					"type": "address"
				},
				{
					"indexed": false,
					"name": "target",
					"type": "address"
				},
				{
					"indexed": false,
					"name": "tokenId",
					"type": "uint256"
				},
				{
					"indexed": false,
					"name": "price",
					"type": "uint256"
				}
			],
			"name": "OrdersMatched",
			"type": "event"
		},
		{
			"anonymous": false,
			"inputs": [
				{
					"indexed": false,
					"name": "owner",
					"type": "address"
				},
				{
					"indexed": false,
					"name": "relaySetFeeTime",
					"type": "uint256"
				},
				{
					"indexed": false,
					"name": "relayExchangeFee",
					"type": "uint256"
				}
			],
			"name": "RelaySetFee",
			"type": "event"
		},
		{
			"anonymous": false,
			"inputs": [
				{
					"indexed": false,
					"name": "owner",
					"type": "address"
				},
				{
					"indexed": false,
					"name": "exchangeFee",
					"type": "uint256"
				}
			],
			"name": "SetFee",
			"type": "event"
		},
		{
			"anonymous": false,
			"inputs": [
				{
					"indexed": false,
					"name": "owner",
					"type": "address"
				},
				{
					"indexed": false,
					"name": "relayRewardFeeRecipient",
					"type": "address"
				},
				{
					"indexed": false,
					"name": "relaySetFeeRecipientTime",
					"type": "uint256"
				}
			],
			"name": "RelaySetRecipientFee",
			"type": "event"
		},
		{
			"anonymous": false,
			"inputs": [
				{
					"indexed": false,
					"name": "owner",
					"type": "address"
				},
				{
					"indexed": false,
					"name": "rewardFeeRecipient",
					"type": "address"
				}
			],
			"name": "SetFeeRecipient",
			"type": "event"
		},
		{
			"anonymous": false,
			"inputs": [
				{
					"indexed": true,
					"name": "previousOwner",
					"type": "address"
				}
			],
			"name": "OwnershipRenounced",
			"type": "event"
		},
		{
			"anonymous": false,
			"inputs": [
				{
					"indexed": true,
					"name": "previousOwner",
					"type": "address"
				},
				{
					"indexed": true,
					"name": "newOwner",
					"type": "address"
				}
			],
			"name": "OwnershipTransferred",
			"type": "event"
		}
	]
}